:100000000C94F5030C9421040C9421040C94210409
:100010000C9421040C9421040C9421040C942104CC
:100020000C9421040C9421040C9421040C942104BC
:100030000C9421040C9421040C9421040C942104AC
:100040000C9421040C9421040C9421040C9421049C
:100050000C9421040C9421040C9421040C94F913A5
:100060000C9421040C9412160C94F2160C94210496
:100070000C9421040C9421040C9421040C9421046C
:100080000C9421040C9421040C9421040C9421045C
:100090000C944A160C9431170C9421040C942104EE
:1000A0000C9421040C9421040C9421040C9421043C
:1000B0000C9421040C9421040C9421040C9421042C
:1000C0000C9421040C9421040C9421040C948216A9
:1000D0000C9470170C9421040C94BA160C94AF175E
:1000E0000C94210400002100240027002A002D0088
:1000F0003000330001010000040107010A01000083
:100100002200250028002B002E00310034000201BF
:100110000000050108010B0100002000230026005B
:1001200029002C002F00320000010000030106010D
:10013000090105050505070508080808020202026D
:100140000A0A080804040404010101010101010173
:100150000303030303030303040707070C0C0C0C3E
:100160000C0C0C0C02020202060606060606060627
:100170000B0B0B0B0B0B0B0B0102102020080810B4
:100180002040102040800201020108040201010207
:1001900004081020408080402010080402018004E0
:1001A000020180402010080402010804020101023B
:1001B0000408102040800102040810204080000044
:1001C000090A02080B0C0D070603040100000000D9
:1001D000000000000000000000000000000000001F
:1001E0000000000000000000000011100F000000DF
:1001F00000000000000000000000000000000000FF
:100200000000000000000000003E5B4F5B3E3E6BC4
:100210004F6B3E1C3E7C3E1C183C7E3C181C577DA0
:10022000571C1C5E7F5E1C00183C1800FFE7C3E7EC
:10023000FF0018241800FFE7DBE7FF30483A060EFE
:100240002629792926407F050507407F05253F5A45
:100250003CE73C5A7F3E1C1C08081C1C3E7F1422B5
:100260007F22145F5F005F5F06097F017F00668960
:10027000956A606060606094A2FFA29408047E04A6
:100280000810207E201008082A1C08081C2A0808CC
:100290001E101010100C1E0C1E0C30383E3830068C
:1002A0000E3E0E06000000000000005F0000000788
:1002B000000700147F147F14242A7F2A12231308B6
:1002C000646236495620500008070300001C224192
:1002D000000041221C002A1C7F1C2A08083E080836
:1002E00000807030000808080808000060600020E6
:1002F000100804023E5149453E00427F40007249C9
:100300004949462141494D331814127F102745456C
:1003100045393C4A49493141211109073649494982
:1003200036464949291E00001400000040340000F0
:100330000008142241141414141400412214080259
:10034000015909063E415D594E7C1211127C7F49CC
:100350004949363E414141227F4141413E7F494921
:1003600049417F090909013E414151737F0808084D
:100370007F00417F41002040413F017F081422411E
:100380007F404040407F021C027F7F0408107F3E78
:100390004141413E7F090909063E4151215E7F09E5
:1003A000192946264949493203017F01033F40404C
:1003B000403F1F2040201F3F4038403F6314081437
:1003C0006303047804036159494D43007F4141416F
:1003D0000204081020004141417F04020102044050
:1003E00040404040000307080020545478407F28D4
:1003F0004444383844444428384444287F385454CA
:10040000541800087E090218A4A49C787F080404EC
:100410007800447D40002040403D007F102844008B
:1004200000417F40007C047804787C08040478381C
:1004300044444438FC1824241818242418FC7C084C
:10044000040408485454542404043F44243C4040C9
:10045000207C1C2040201C3C4030403C442810287C
:10046000444C9090907C4464544C440008364100C5
:100470000000770000004136080002010204023C3F
:100480002623263C1EA1A161123A4040207A38540E
:100490005455592155557941215454784121555489
:1004A000784020545579400C1E52721239555555DA
:1004B00059395454545939555454580000457C41C5
:1004C0000002457D420001457C40F0292429F0F0DE
:1004D000282528F07C545545002054547C547C0A2F
:1004E000097F4932494949323248484832324A48FC
:1004F00048303A4141217A3A42402078009DA0A0FC
:100500007D39444444393D4040403D3C24FF24244F
:10051000487E4943662B2FFC2F2BFF0929F620C06C
:10052000887E090320545479410000447D413048BD
:10053000484A32384040227A007A0A0A727D0D1900
:10054000317D2629292F28262929292630484D4062
:1005500020380808080808080808382F10C8ACBA5E
:100560002F102834FA00007B000008142A142222DD
:10057000142A1408AA005500AAAA55AA55AA0000D0
:1005800000FF00101010FF00141414FF001010FFE3
:1005900000FF1010F010F0141414FC001414F700F5
:1005A000FF0000FF00FF1414F404FC141417101FC4
:1005B00010101F101F1414141F00101010F0000052
:1005C00000001F101010101F10101010F01000006D
:1005D00000FF101010101010101010FF100000007D
:1005E000FF140000FF00FF00001F10170000FC04B4
:1005F000F414141710171414F404F40000FF00F797
:1006000014141414141414F700F7141414171410F9
:10061000101F101F141414F4141010F010F0000028
:100620001F101F0000001F14000000FC140000F049
:1006300010F01010FF10FF141414FF141010101FEE
:1006400000000000F010FFFFFFFFFFF0F0F0F0F0FF
:10065000FFFFFF0000000000FFFF0F0F0F0F0F381C
:10066000444438447C2A2A3E147E02020606027E56
:10067000027E0263554941633844443C04407E2075
:100680001E2006027E020299A5E7A5991C2A492A86
:100690001C4C7201724C304A4D4D30304878483015
:1006A000BC625A463D3E494949007E0101017E2A0D
:1006B0002A2A2A2A44445F444440514A4440404440
:1006C0004A51400000FF0103E080FF000008086B72
:1006D0006B083612362436060F090F06000018186C
:1006E0000000001010003040FF0101001F01011E3A
:1006F00000191D1712003C3C3C3C00000000000F9C
:100700000180961180FFB103012C2DB203012C2D25
:10071000B306012C2D012C2DB40107C003A20284C5
:10072000C101C5C2020A00C3028A2AC4028AEEC5F8
:10073000010E20003601C83A0105022A0400020019
:10074000812B04000100A0022A040000007F2B047A
:100750000000009F04E010021C07123732292D29E7
:10076000252B3900010310E110031D07062E2C294B
:100770002D2E2E373F0000021013800A29806412AC
:100780000180321180FF3A81050AB1830006030A15
:10079000360108B6021502B40100C08202700AC117
:1007A0000105C2020102C5823C380AFC021115E0B3
:1007B0001009160920211B131917151E2B040502F9
:1007C0000EE1900B14081E221D181E1B1A242B0666
:1007D00006020F0A2A04000200812B040002008195
:1007E00013800A2980FF2304191911241FBECFEF9B
:1007F000D1E2DEBFCDBF00E00CBF15E0A0E0B2E06B
:10080000E2E6F7E400E00BBF02C007900D92A432CD
:10081000B107D9F713E1A4E2B5E001C01D92A13CF4
:10082000B107E1F717E0CAEED7E004C02297FE0156
:100830000E94AB23C63ED107C9F70E94AE130C94A9
:1008400002230C9400008AE295E066E047E028E08D
:100850000E9438220895CF92DF92EF92FF920F9379
:100860001F93FAE2CF2EF5E0DF2EC60160E070E0C4
:1008700040E050E020E830E000EA10E0E5EEEE2E47
:10088000F12C0E947F20C6016AE070E04AE050E04F
:100890002CE630E002E210E0EE24EA94FE2C0E9406
:1008A0007F20C60164E170E040E150E00E949A1EA2
:1008B000C60161E178E80E94A61EC60163E00E94BD
:1008C000A01EC60160E072E00E949A1BC60160E1B2
:1008D00070E043E350E00E949A1EC60161E00E946E
:1008E000A01EC6016FEF73E30E94A61EC60166E05C
:1008F00072E00E949A1BC60168E270E04EE350E08D
:100900000E949A1EC60168E172E00E949A1BC6010D
:1009100064E170E049E450E00E949A1EC60161E281
:1009200072E00E94971B05E413E1C80160E372E0E6
:100930000E949A1BC80168E572E00E949A1BC801D8
:1009400064E972E00E949A1BC60161E00E94A01E49
:10095000C6016FEF7FEF0E94A61EC60169E170E03D
:1009600048E550E00E949A1EC60160EA72E00E94CB
:10097000971B1F910F91FF90EF90DF90CF900895FC
:100980008F929F92AF92BF92CF92DF92EF92FF929F
:100990000F931F93DF93CF9300D00F92CDB7DEB7A5
:1009A00085E090E0A0E0B0E089839A83AB83BC83CC
:1009B00085E493E16DEA72E00E949A1B4091600524
:1009C00050916105609162057091630585E493E142
:1009D0002AE030E00E94111B85E493E164EB72E0B1
:1009E0000E949A1BA0906005B0906105C0906205BE
:1009F000D09063057E010894E11CF11C0AE010E030
:100A0000B5E08B2E912C8C0E9D1EC8010E940D23EB
:100A1000F70181937F010F5F1F4FE815F905A9F7D3
:100A200089819A81AB81BC81A816B906CA06DB060A
:100A3000C0F0A6E5CA2EA5E0DA2E00E010E0F6012F
:100A4000F1906F01C8010E940D23F81621F0C80132
:100A50006F2D0E9415230D30110519F00F5F1F4FE8
:100A6000EECF0F900F900F900F90CF91DF911F91CD
:100A70000F91FF90EF90DF90CF90BF90AF909F903D
:100A80008F900895EF92FF920F931F93CF93DF9370
:100A90000E942B04C6E5D5E000E010E080E3E82EDC
:100AA000F12C85E493E10E94A518888388818F3F0B
:100AB000C1F3992787FD90950E940723892B29F47C
:100AC0000A5A1A4FF801108225C08AE295E061E0C7
:100AD0000E94A01E8AE295E06FEF7FEF0E94A61EA3
:100AE0008AE295E0B70143E650E00E949A1E85E451
:100AF00093E168810E94621A8AE295E069910E94FE
:100B0000621A0F5F1F4F86E090E0E80EF91E0B306F
:100B1000110539F685E493E169EC72E00E949A1BB5
:100B200085E493E16AEC72E00E949A1BDF91CF9119
:100B30001F910F91FF90EF900895EF92FF920F9306
:100B40001F93CF93DF9385E493E161EF72E00E94FE
:100B50009A1B0E94F22268E770E00E945923880FD6
:100B6000991F880F991F68E770E00E945923EC01D4
:100B70007C0101978937910560F70E94F2226CE8A9
:100B800070E00E945923880F991F880F991F6CE805
:100B900070E00E9459238C0101978B38910568F70A
:100BA0008091280590912905089794F185E493E1B7
:100BB00063E073E00E949A1B80916C0590916D0533
:100BC000C817D90729F580916A0590916B05081718
:100BD0001907F1F40E94F22268E770E00E9459239D
:100BE000880F991F880F991F68E770E00E945923AA
:100BF0007C010E94F2226CE870E00E945923880F69
:100C0000991F880F991F6CE870E00E9459238C018E
:100C1000B801C701DF91CF911F910F91FF90EF9025
:100C200008952F923F924F925F926F927F928F9290
:100C30009F92AF92BF92CF92DF92EF92FF920F936B
:100C40001F93DF93CF93CDB7DEB72C970FB6F894F1
:100C5000DEBF0FBECDBF2DB73EB73A87298781E0F3
:100C600090E090932505809324058AE295E060E06A
:100C700070E040E050E020E830E000EA10E0EE24D0
:100C8000FF240E947F2085E493E16DE273E00E94DF
:100C90009A1B88E090E0909329058093280580E4D2
:100CA00090E0909367058093660580E590E09093CF
:100CB00065058093640583E090E0909369058093D7
:100CC000680510922705109226058AE295E060E0FB
:100CD00070E040E050E020E830E00E947F208AE2AF
:100CE00095E060E070E043E950E020E830E00DE09E
:100CF00010E0EE24EA94FE2C0E947F208AE295E028
:100D000063E070E046E950E00E949A1E8AE295E0B6
:100D100060E070E00E94A61E8AE295E06DE373E059
:100D20000E94971B60912605709127058AE295E045
:100D30004AE050E00E94651B0E949D057C836B8306
:100D40009A8389833DB73B878EB78C878AE295E08B
:100D500068E270E043E950E020E830E00DE010E0A8
:100D6000EE24EA94FE2C0E947F208AE295E06AE25B
:100D700070E046E950E00E949A1E8AE295E060E049
:100D800070E00E94A61E60912605709127058AE2F8
:100D900095E04AE050E00E94651B8AE295E0698197
:100DA0007A814B815C8124E030E004E010E0AFEF19
:100DB000EA2EA1E0FA2E0E947F2080E00E94C51357
:100DC0008C0181E00E94C513E1E0063F1E0739F067
:100DD00018870F8322EF31E03E832D830AC031E074
:100DE000823F930731F09E838D8386EF91E0988751
:100DF0008F832091280530912905C90164E070E0B6
:100E00000E945923660F771FEDB7FEB7E61BF70B5D
:100E10000FB6F894FEBF0FBEEDBF6DB67EB6089458
:100E2000611C711C8DB79EB7861B970B0FB6F8948B
:100E30009EBF0FBE8DBF4DB65EB60894411C511CBF
:100E400080916805909169058130910509F0C7C1CD
:100E5000C90164E070E00E945923AB01E4E62E2E44
:100E6000E5E03E2ED10160E070E020E030E016C009
:100E7000F301E20FF31F12968D919C9113979183CA
:100E80008083F201E20FF31F8D919C911197918362
:100E900080836F5F7F4F16962E5F3F4F64177507F5
:100EA0003CF3409164055091650544505040509387
:100EB00065054093640560916605709167058AE257
:100EC00095E024E030E004E010E0EE24EA94FE2C0B
:100ED0000E947F2074E6A72E75E0B72E88249924FF
:100EE000CC24DD2422C00894811C911CF301EC0D5C
:100EF000FD1D60817181F50173836283F201EC0D48
:100F0000FD1D40815181F501518340838AE295E0C6
:100F100024E030E004E010E0EE24EA94FE2C0E948D
:100F20007F2022E030E0C20ED31E809128059091F0
:100F3000290564E070E00E9459236150704086E00A
:100F400090E0A80EB91E861697066CF2FB01EE0F14
:100F5000FF1FD301AE0FBF1F6D917C91E40DF51DF6
:100F6000408151818AE295E024E030E004E010E025
:100F7000EE24FF240E947F20ED81FE81E85EF14097
:100F80000CF071C08F819885865F914009F06BC02D
:100F9000AA24BB24CC24DD2422C00894A11CB11CAB
:100FA000F301EC0DFD1D60817181F101738362839A
:100FB000F201EC0DFD1D40815181F101518340830F
:100FC0008AE295E024E030E004E010E0EE24EA94C8
:100FD000FE2C0E947F2022E030E0C20ED31E86E06D
:100FE00090E0280E391E809128059091290564E033
:100FF00070E00E94592361507040A616B7066CF24B
:101000000AE615E051E0E52EF12C1BC0F8018281C3
:10101000938104962091660530916705281739075A
:1010200059F42091640530916505808191812817DC
:10103000390711F40E94BA100894E11CF11C0A5FF0
:101040001F4F809128059091290564E070E00E946F
:101050005923E616F706D4F223E030E03093690511
:10106000209368051CC68D819E818D5F91400CF494
:1010700016C62F813885265F314009F010C6AA2494
:10108000BB24CC24DD2422C00894A11CB11CF30194
:10109000EC0DFD1D60817181F10173836283F201AA
:1010A000EC0DFD1D40815181F101518340838AE2A5
:1010B00095E024E030E004E010E0EE24EA94FE2C19
:1010C0000E947F2022E030E0C20ED31E86E090E036
:1010D000280E391E809128059091290564E070E062
:1010E0000E94592361507040A616B7066CF24AE67A
:1010F000C42E45E0D42E860131E0E32EF12C1BC036
:1011000080916605909167050496F80122813381EC
:101110008217930759F42091640530916505808109
:1011200091812817390711F40E94BA100894E11C24
:10113000F11C0A5F1F4F809128059091290564E0FA
:1011400070E00E945923E616F706D4F201E010E0A1
:101150001CC0F60180819181049620916405309134
:1011600065052817390759F4209166053091670500
:10117000828193812817390711F40E94BA100F5FFA
:101180001F4F26E030E0C20ED31E809128059091BB
:10119000290564E070E00E945923CB010617170768
:1011A000C4F2E4E0F0E0F0936905E093680501978C
:1011B000880F991F680E791EF30160817181480EB6
:1011C000591EF201408151818AE295E024E030E02D
:1011D00004E010E0EE24FF240E947F2060C58230EE
:1011E000910509F0D4C1C90164E070E00E9459235F
:1011F000AB0184E6282E85E0382ED10160E070E056
:1012000020E030E016C0F301E20FF31F12968D913B
:101210009C91139791838083F201E20FF31F8D91CC
:101220009C911197918380836F5F7F4F16962E5FFD
:101230003F4F641775073CF3409164055091650575
:101240004C5F5F4F50936505409364056091660560
:10125000709167058AE295E024E030E004E010E058
:10126000EE24EA94FE2C0E947F2004E6A02E05E0E6
:10127000B02E88249924CC24DD2422C00894811C1B
:10128000911CF301EC0DFD1D60817181F5017383EB
:101290006283F201EC0DFD1D40815181F501518306
:1012A00040838AE295E024E030E004E010E0EE24A0
:1012B000EA94FE2C0E947F2022E030E0C20ED31E72
:1012C000809128059091290564E070E00E945923DF
:1012D0006150704086E090E0A80EB91E8616970611
:1012E0006CF2FB01EE0FFF1FD301AE0FBF1F6D911C
:1012F0007C91E40DF51D408151818AE295E024E066
:1013000030E004E010E0EE24FF240E947F20ED8115
:10131000FE81E85EF1400CF08EC08F819885865F7B
:10132000914009F088C0AA24BB24CC24DD2422C02B
:101330000894A11CB11CF301EC0DFD1D60817181AD
:10134000F10173836283F201EC0DFD1D4081518137
:10135000F101518340838AE295E024E030E004E02B
:1013600010E0EE24EA94FE2C0E947F2022E030E080
:10137000C20ED31E86E090E0280E391E809128050B
:101380009091290564E070E00E94592361507040FB
:10139000A616B7066CF20AE615E0B1E0EB2EF12CCA
:1013A0001BC0F801828193810496209166053091DB
:1013B00067052817390759F42091640530916505B0
:1013C000808191812817390711F40E94BA1008947E
:1013D000E11CF11C0A5F1F4F80912805909129059F
:1013E00064E070E00E945923CB01E616F706CCF2C8
:1013F00023E030E030936905209368050197880F5A
:10140000991F680E791EF30160817181480E591E83
:10141000F201408151818AE295E024E030E004E06D
:1014200010E0EE24FF240E947F200AE615E0F1E0A0
:10143000EF2EF12CA0C02D813E812D5F3140ACF309
:10144000EF81F885E65FF14081F7AA24BB24CC2424
:10145000DD2422C00894A11CB11CF301EC0DFD1D7C
:1014600060817181F10173836283F201EC0DFD1DD6
:1014700040815181F101518340838AE295E024E06B
:1014800030E004E010E0EE24EA94FE2C0E947F207D
:1014900022E030E0C20ED31E86E090E0280E391E16
:1014A000809128059091290564E070E00E945923FD
:1014B00061507040A616B7066CF20AE615E0E1E04E
:1014C000EE2EF12C1BC08091660590916705049665
:1014D000F801228133818217930759F42091640522
:1014E00030916505808191812817390711F40E9498
:1014F000BA100894E11CF11C0A5F1F4F8091280567
:101500009091290564E070E00E945923CB01E61612
:10151000F706CCF224E030E03093690520936805AB
:101520000197880F991F680E791EF3016081718100
:10153000480E591EF201408151818AE295E06FCF39
:1015400080916405909165050496F80120813181B0
:101550008217930759F420916605309167058281BF
:1015600093812817390711F40E94BA100894E11CDE
:10157000F11C0A5F1F4F809128059091290564E0B6
:1015800070E00E945923E616F706D4F288C3833030
:10159000910509F0C1C1C90164E070E00E945923BE
:1015A000AB0164E6262E65E0362ED10160E070E0E6
:1015B00020E030E016C0F301E20FF31F12968D9188
:1015C0009C91139791838083F201E20FF31F8D9119
:1015D0009C911197918380836F5F7F4F16962E5F4A
:1015E0003F4F641775073CF360916605709167057E
:1015F0006450704070936705609366054091640580
:10160000509165058AE295E024E030E004E010E0C6
:10161000EE24EA94FE2C0E947F2054E6A52E55E08D
:10162000B52E88249924CC24DD2422C00894811C62
:10163000911CF301EC0DFD1D60817181F501738337
:101640006283F201EC0DFD1D40815181F501518352
:1016500040838AE295E024E030E004E010E0EE24EC
:10166000EA94FE2C0E947F2022E030E0C20ED31EBE
:10167000809128059091290564E070E00E9459232B
:101680006150704086E090E0A80EB91E861697065D
:101690006CF2FB01EE0FFF1FD301AE0FBF1F6D9168
:1016A0007C91E40DF51D408151818AE295E024E0B2
:1016B00030E004E010E0EE24FF240E947F20EF8160
:1016C000F885EC5EF1400CF08EC08D819E81825FCA
:1016D000914009F088C0AA24BB24CC24DD2422C078
:1016E0000894A11CB11CF301EC0DFD1D60817181FA
:1016F000F10173836283F201EC0DFD1D4081518184
:10170000F101518340838AE295E024E030E004E077
:1017100010E0EE24EA94FE2C0E947F2022E030E0CC
:10172000C20ED31E86E090E0280E391E8091280557
:101730009091290564E070E00E9459236150704047
:10174000A616B7066CF20AE615E031E0E32EF12C9E
:101750001BC0F8018081918104962091640530912D
:1017600065052817390759F42091660530916705FA
:10177000828193812817390711F40E94BA100894C6
:10178000E11CF11C0A5F1F4F8091280590912905EB
:1017900064E070E00E945923CB01E616F706CCF214
:1017A00021E030E030936905209368050197880FA8
:1017B000991F680E791EF30160817181480E591ED0
:1017C000F201408151818AE295E024E030E004E0BA
:1017D00010E0EE24FF240E947F200AE615E091E04D
:1017E000E92EF12C8DC02F81388521503240ACF389
:1017F000ED81FE81E25FF14081F7AA24BB24CC2475
:10180000DD2422C00894A11CB11CF301EC0DFD1DC8
:1018100060817181F10173836283F201EC0DFD1D22
:1018200040815181F101518340838AE295E024E0B7
:1018300030E004E010E0EE24EA94FE2C0E947F20C9
:1018400022E030E0C20ED31E86E090E0280E391E62
:10185000809128059091290564E070E00E94592349
:1018600061507040A616B7066CF20AE615E081E0FA
:10187000E82EF12C1BC080916405909165050496BB
:10188000F801208131818217930759F42091660570
:1018900030916705828193812817390711F40E94DE
:1018A000BA100894E11CF11C0A5F1F4F80912805B3
:1018B0009091290564E070E00E945923CB01E6165F
:1018C000F706CCF222E030E06DCFF80182819381FF
:1018D000049620916605309167052817390759F459
:1018E0002091640530916505808191812817390721
:1018F00011F40E94BA100894E11CF11C0A5F1F4FFA
:10190000809128059091290564E070E00E94592398
:10191000E616F706D4F2C3C1049709F0C6C1C9019F
:1019200064E070E00E945923AB0114E6212E15E01B
:10193000312ED10160E070E020E030E016C0F3010C
:10194000E20FF31F12968D919C91139791838083E0
:10195000F201E20FF31F8D919C9111979183808387
:101960006F5F7F4F16962E5F3F4F641775073CF3EE
:1019700060916605709167056C5F7F4F7093670596
:101980006093660540916405509165058AE295E093
:1019900024E030E004E010E0EE24EA94FE2C0E9403
:1019A0007F20B4E6AB2EB5E0BB2E88249924CC244E
:1019B000DD2422C00894811C911CF301EC0DFD1D57
:1019C00060817181F50173836283F201EC0DFD1D6D
:1019D00040815181F501518340838AE295E024E002
:1019E00030E004E010E0EE24EA94FE2C0E947F2018
:1019F00022E030E0C20ED31E809128059091290587
:101A000064E070E00E9459236150704086E090E0ED
:101A1000A80EB91E861697066CF2FB01EE0FFF1F8B
:101A2000D301AE0FBF1F6D917C91E40DF51D408178
:101A300051818AE295E024E030E004E010E0EE24F9
:101A4000FF240E947F20EF81F885EC5EF1400CF0CE
:101A50008EC08D819E81825F914009F088C0AA244A
:101A6000BB24CC24DD2422C00894A11CB11CF301AA
:101A7000EC0DFD1D60817181F10173836283F201C0
:101A8000EC0DFD1D40815181F101518340838AE2BB
:101A900095E024E030E004E010E0EE24EA94FE2C2F
:101AA0000E947F2022E030E0C20ED31E86E090E04C
:101AB000280E391E809128059091290564E070E078
:101AC0000E94592361507040A616B7066CF20AE6D0
:101AD00015E0F1E0EF2EF12C1BC0F801808191811F
:101AE000049620916405309165052817390759F44B
:101AF0002091660530916705828193812817390707
:101B000011F40E94BA100894E11CF11C0A5F1F4FE7
:101B1000809128059091290564E070E00E94592386
:101B2000CB01E616F706CCF221E030E030936905F0
:101B3000209368050197880F991F680E791EF3019D
:101B400060817181480E591EF201408151818AE203
:101B500095E024E030E004E010E0EE24FF240E9451
:101B60007F200AE615E071E0E72EF12C8DC02F8171
:101B7000388521503240ACF3ED81FE81E25FF140C7
:101B800081F7AA24BB24CC24DD2422C00894A11C04
:101B9000B11CF301EC0DFD1D60817181F1017383B6
:101BA0006283F201EC0DFD1D40815181F1015183F1
:101BB00040838AE295E024E030E004E010E0EE2487
:101BC000EA94FE2C0E947F2022E030E0C20ED31E59
:101BD00086E090E0280E391E809128059091290515
:101BE00064E070E00E94592361507040A616B70669
:101BF0006CF20AE615E061E0E62EF12C1BC0809144
:101C00006405909165050496F80120813181821761
:101C1000930759F42091660530916705828193817D
:101C20002817390711F40E94BA100894E11CF11C1E
:101C30000A5F1F4F809128059091290564E070E0AC
:101C40000E945923CB01E616F706CCF222E030E0E1
:101C50006DCF80916605909167050496F801228109
:101C600033818217930759F42091640530916505FB
:101C7000808191812817390711F40E94BA100894C5
:101C8000E11CF11C0A5F1F4F8091280590912905E6
:101C900064E070E00E945923E616F706D4F264E18E
:101CA00070E080E090E00E94411480916605909180
:101CB000670529813A812817390769F580916405FC
:101CC00090916505EB81FC81E817F90721F580917A
:101CD000280590912905069690932905809328055B
:101CE0000E949D057C836B839A838983809126055E
:101CF0009091270501969093270580932605AA27A2
:101D000097FDA095BA2F8093600590936105A093ED
:101D10006205B09363058091660590916705009711
:101D200061F08038910549F08091640590916505D6
:101D3000009719F08039910551F50E94BA108B85F2
:101D40009C859C010FB6F8943EBF0FBE2DBF298520
:101D50003A850FB6F8943EBF0FBE2DBF2C960FB636
:101D6000F894DEBF0FBECDBFCF91DF911F910F91D1
:101D7000FF90EF90DF90CF90BF90AF909F908F90AB
:101D80007F906F905F904F903F902F90089560915B
:101D90002605709127056C597F4F80EB96E30E94D2
:101DA00059238B01B801882777FD8095982F0E94D1
:101DB000411485E493E165E473E00E94971B85E498
:101DC00093E1B8014AE050E00E94651B85E493E18D
:101DD0006CE473E00E94971B6091260570912705C3
:101DE00085E493E14AE050E00E94781B2B853C8516
:101DF000C9010FB6F8949EBF0FBE8DBF0C94A2060A
:101E0000EF92FF920F931F9385E493E163E573E0F4
:101E10000E949A1B8AE295E060E070E040E050E0AA
:101E200020E830E000EA10E0B5EEEB2EF12C0E9445
:101E30007F208AE295E06AE070E04AE050E02CE61C
:101E400030E002E210E0EE24EA94FE2C0E947F20B3
:101E50008AE295E064E170E040E150E00E949A1E61
:101E60008AE295E061E178E80E94A61E8AE295E0A8
:101E700063E00E94A01E8AE295E060E072E00E94AA
:101E80009A1B8AE295E06DE170E043E350E00E9426
:101E90009A1E8AE295E061E00E94A01E8AE295E027
:101EA00060E070EF0E94A61E8AE295E069E573E0AB
:101EB0000E949A1B8AE295E060E270E04EE350E0F7
:101EC0000E949A1E8AE295E066E673E00E94971BE4
:101ED0008AE295E06EE270E04AE550E028E230E008
:101EE0000DE010E00E947F208AE295E061E00E9410
:101EF000A01E8AE295E061E178E80E94A61E8AE2CF
:101F000095E064E370E04DE550E00E949A1E8AE29D
:101F100095E062E773E00E94971B8AE295E061E03A
:101F20000E94A01E8AE295E060EE77E00E94A61E65
:101F30008AE295E065E370E04DE750E00E949A1E6A
:101F40008AE295E068E773E00E949A1B8AE295E0D6
:101F50006BE070E04AE850E00E949A1E8AE295E049
:101F60006DE773E00E949A1B8AE295E069E170E0F8
:101F700044E950E00E949A1E8AE295E060E973E02D
:101F80000E949A1B01E010E08091E1040E94E2159A
:101F90009093250580932405892BB1F7109325058F
:101FA0000093240585E493E16CE973E00E949A1B99
:101FB0000E941106E9CFEF92FF920F931F9385E4E1
:101FC00093E16BEA73E00E949A1B81E090E09093AA
:101FD0002505809324058AE295E060E070E040E00A
:101FE00050E020E830E000EA10E0EE24FF240E94F8
:101FF0007F208AE295E06BE070E040E150E00E94D3
:102000009A1E8AE295E060EE77E00E94A61E8AE2C0
:1020100095E062E00E94A01E8AE295E065EB73E025
:102020000E949A1B8AE295E06EE170E04DE350E079
:102030000E949A1E8AE295E061E00E94A01E8AE258
:1020400095E066E677EF0E94A61E8AE295E06FEBC8
:1020500073E00E94971B8AE295E060E370E048E439
:1020600050E00E949A1E8AE295E06CEC73E00E94B8
:10207000971B8AE295E06EE170E046E550E020E4CF
:1020800030E00AE110E0EE24EA94FE2C0E947F206A
:102090008AE295E064E270E049E550E00E949A1E11
:1020A0008AE295E06FEF70E00E94A61E8AE295E05A
:1020B00061E00E94A01E8AE295E063ED73E00E9459
:1020C0009A1B8AE295E06EE270E044E650E00E94DE
:1020D0009A1E8AE295E06EED73E00E949A1B8AE2F6
:1020E00095E065E170E044E850E00E949A1E8AE2C3
:1020F00095E063E078EF0E94A61E8AE295E061E039
:102100000E94A01E8AE295E065EE73E00E949A1B91
:102110008AE295E069E270E04FE850E00E949A1E82
:102120008AE295E061E00E94A01E8AE295E065EFF8
:1021300073E00E949A1B01E010E08091E1040E948C
:10214000E2159093250580932405892BB1F764EF60
:1021500071E080E090E00E94411410932505009307
:10216000240585E493E16EEF73E00E949A1B0E94C0
:10217000000FE3CFCF92DF92EF92FF920F931F9366
:10218000DF93CF9300D00F92CDB7DEB70E94C0048B
:1021900085E493E16BEA73E00E949A1B81E090E092
:1021A00090932505809324058AE295E060E070E035
:1021B00040E050E020E830E000EA10E0EE24FF24A8
:1021C0000E947F208AE295E06BE070E040E150E001
:1021D0000E949A1E8AE295E060EE77E00E94A61EB9
:1021E0008AE295E062E00E94A01E8AE295E065EB3B
:1021F00073E00E949A1B8AE295E06BE070E048E28F
:1022000050E02AE630E00EE010E0EE24EA94FE2CE6
:102210000E947F208AE295E064E170E04BE250E0AA
:102220000E949A1E8AE295E060E070EF0E94A61E6E
:102230008AE295E061E00E94A01E8AE295E069E0F2
:1022400074E00E949A1B85E090E0A0E0B0E08983F2
:102250009A83AB83BC838AE295E06BE070E04CE349
:1022600050E00E949A1E8AE295E061E00E94A01E62
:102270008AE295E066E677EF0E94A61E85E493E188
:1022800068E174E00E949A1B8AE295E06BE274E0D8
:102290000E949A1B8AE295E06BE070E04FE350E009
:1022A0000E949A1E8AE295E06DE374E00E949A1BF8
:1022B0008AE295E06BE070E04AE450E00E949A1EEA
:1022C0008AE295E060E574E00E94971B00E010E070
:1022D000C8010E940D23F82E90E00E940723892B4D
:1022E00009F415C185E493E16F2D0E94621AC801BB
:1022F0000E940D23682F8AE295E00E94621A0F5F08
:102300001F4F80E10030180709F401C1E1CFC80177
:102310000E940D23F70181937F010F5F1F4FEC1582
:10232000FD05A9F749815A816B817C8185E493E1A0
:102330002AE030E00E94111B49815A816B817C8127
:102340008AE295E02AE030E00E94111B8AE295E0E3
:1023500069EC72E00E949A1B8AE295E06BE070E003
:102360004AE550E00E949A1E8AE295E06DE374E02F
:102370000E94971B8AE295E06BE070E048E650E02F
:102380000E949A1E8AE295E061E00E94A01E8AE205
:1023900095E06FE770EF0E94A61E8AE295E067E580
:1023A00074E00E94971B85E493E167E574E00E9466
:1023B000971B8AE295E066E575E00E949A1B85E42A
:1023C00093E166E575E00E949A1B8AE295E06BE076
:1023D00070E044E750E00E949A1E8AE295E063E6CE
:1023E00074E00E94971B85E493E163E674E00E9429
:1023F000971B409160055091610560916205709155
:1024000063058AE295E02AE030E00E94111B4091CA
:10241000600550916105609162057091630585E4E6
:1024200093E12AE030E00E94111B8AE295E06EE021
:1024300070E044E850E00E949A1E8AE295E063E072
:1024400078EF0E94A61E8AE295E061E00E94A01E3D
:102450008AE295E060E774E00E94971B8AE295E0CB
:102460006BE070E04CE850E00E949A1E8AE295E032
:1024700063E078EF0E94A61E8AE295E061E00E9488
:10248000A01E8AE295E060E874E00E94971B8AE251
:1024900095E06BE070E045E950E00E949A1E8AE208
:1024A00095E063E078EF0E94A61E8AE295E061E085
:1024B0000E94A01E8AE295E061E974E00E94971BE9
:1024C0008AE295E06EE070E047E950E00E949A1ED3
:1024D0008AE295E060E774E00E94971B01E010E05B
:1024E0008091E1040E94E2159093250580932405D4
:1024F000892BB1F764EF71E080E090E00E94411415
:1025000010932505009324050E94DB0FE9CF85E495
:1025100093E162EA74E00E94971B8AE295E069EC1D
:1025200072E00E949A1B8AE295E06BE070E045E55C
:1025300050E00E949A1E8AE295E06DE373E00E94EB
:10254000971B7E010894E11CF11C0AE010E085E075
:10255000C82ED12CCC0EDD1EDACEEF92FF920F9357
:102560001F930E94420585E493E163E573E00E94B6
:102570009A1B8AE295E060E070E040E050E020E8DD
:1025800030E000EA10E0E5EEEE2EF12C0E947F2014
:102590008AE295E06AE070E04AE050E02CE630E044
:1025A00002E210E0EE24EA94FE2C0E947F208AE2F0
:1025B00095E064E170E040E150E00E949A1E8AE2FA
:1025C00095E061E178E80E94A61E8AE295E063E06A
:1025D0000E94A01E8AE295E060E072E00E949A1BD1
:1025E0008AE295E06DE170E043E350E00E949A1EBC
:1025F0008AE295E061E00E94A01E8AE295E060E038
:1026000070EF0E94A61E8AE295E069E573E00E94E1
:102610009A1B8AE295E060E270E04EE350E00E948F
:102620009A1E8AE295E066E673E00E94971B8AE2B2
:1026300095E06EE270E04AE550E028E230E00DE01F
:1026400010E00E947F208AE295E061E00E94A01ED7
:102650008AE295E061E178E80E94A61E8AE295E0B0
:1026600064E370E04DE550E00E949A1E8AE295E036
:1026700062E773E00E94971B8AE295E061E00E94A6
:10268000A01E8AE295E060EE77E00E94A61E8AE234
:1026900095E065E370E04DE750E00E949A1E8AE203
:1026A00095E068E773E00E949A1B8AE295E06BE090
:1026B00070E04AE850E00E949A1E8AE295E064EADF
:1026C00074E00E949A1B8AE295E064E170E044E9BC
:1026D00050E00E949A1E8AE295E060E973E00E9451
:1026E0009A1B01E010E08091E1040E94E2159093B2
:1026F000250580932405892BB1F7109325050093B8
:10270000240585E493E16CE973E00E949A1B0E9422
:102710001106E9CF0F931F930E949A1405E413E169
:10272000C80140E855E260E070E00E94EE17809139
:10273000E10460E00E94FC148091E10461E00E94E9
:10274000AF158AE295E062E00E940A22C80165EBBB
:1027500074E00E94971B1F910F9108950F931F9390
:102760000E948A1305E413E1C80164EC74E00E943E
:102770009A1BC80164ED74E00E949A1B0E94AD127E
:1027800080E090E01F910F910895382F863308F074
:10279000365320917B00832F86958695869590E011
:1027A0008170907043E0880F991F4A95E1F7277F69
:1027B000282B20937B0037708091E3048295880F4B
:1027C000880F807C832B80937C0080917A008064CA
:1027D00080937A0080917A0086FDFCCF209178006A
:1027E00040917900942F80E030E0282B392BC901EB
:1027F00008951F920F920FB60F9211242F933F93BB
:102800008F939F93AF93BF9380912011909121114B
:10281000A0912211B0912311309124110196A11D94
:10282000B11D232F2D5F2D3720F02D570196A11DAF
:10283000B11D209324118093201190932111A09316
:102840002211B093231180911C1190911D11A09120
:102850001E11B0911F110196A11DB11D80931C1175
:1028600090931D11A0931E11B0931F11BF91AF91B2
:102870009F918F913F912F910F900FBE0F901F90BE
:1028800018959B01AC017FB7F89480911C11909131
:102890001D11A0911E11B0911F1166B5A89B05C016
:1028A0006F3F19F00196A11DB11D7FBFBA2FA92F4F
:1028B000982F8827860F911DA11DB11D62E0880FFA
:1028C000991FAA1FBB1F6A95D1F7BC012DC0FFB786
:1028D000F89480911C1190911D11A0911E11B0913E
:1028E0001F11E6B5A89B05C0EF3F19F00196A11D89
:1028F000B11DFFBFBA2FA92F982F88278E0F911DCA
:10290000A11DB11DE2E0880F991FAA1FBB1FEA9508
:10291000D1F7861B970B885E9340C8F22150304058
:102920004040504068517C4F21153105410551050B
:1029300071F60895789484B5826084BD84B5816011
:1029400084BD85B5826085BD85B5816085BDEEE6B7
:10295000F0E0808181608083E1E8F0E01082808196
:1029600082608083808181608083E0E8F0E0808104
:1029700081608083E1EBF0E0808184608083E0EB24
:10298000F0E0808181608083E1E9F0E08081826015
:102990008083808181608083E0E9F0E080818160D4
:1029A0008083E1EAF0E080818260808380818160C1
:1029B0008083E0EAF0E0808181608083E1E2F1E001
:1029C000808182608083808181608083E0E2F1E0A9
:1029D000808181608083EAE7F0E080818460808389
:1029E0008081826080838081816080838081806833
:1029F00080831092C1000895CF93DF93482F50E059
:102A0000CA0188589E4FFC0134914E5C5E4FFA011A
:102A10008491882369F190E0880F991FFC01EC51A3
:102A2000FF4FA591B491FC01E250FF4FC591D491A5
:102A3000662351F42FB7F8948C91932F90958923A6
:102A40008C93888189230BC0623061F42FB7F8948E
:102A50008C91932F909589238C938881832B8883E5
:102A60002FBF06C09FB7F8948C91832B8C939FBF88
:102A7000DF91CF910895893009F449C08A30A0F4DC
:102A8000843051F1853040F4823079F1833000F5A3
:102A9000813009F063C026C0873079F1883098F51D
:102AA000863009F05BC025C08D3009F442C08E30FD
:102AB00028F48B30B1F18C30C0F52DC0803109F491
:102AC00042C0813109F445C08F3009F047C037C09A
:102AD000809180008F7703C0809180008F7D8093EC
:102AE0008000089584B58F7702C084B58F7D84BD42
:102AF00008958091B0008F7703C08091B0008F7DE2
:102B00008093B0000895809190008F7707C08091E6
:102B100090008F7D03C080919000877F809390000C
:102B200008958091A0008F7707C08091A0008F7DCD
:102B300003C08091A000877F8093A00008958091BA
:102B400020018F7703C0809120018F7D8093200129
:102B5000089580912001877F809320010895FF923E
:102B60000F931F93F62E482F50E0CA0182549E4FB8
:102B7000FC012491CA0188589E4FFC0114914E5CBF
:102B80005E4FFA0104910023C9F0222319F0822F2D
:102B90000E943B15E02FF0E0EE0FFF1FE250FF4FC9
:102BA000A591B4919FB7F894FF2021F48C911095D2
:102BB000812302C08C91812B8C939FBF1F910F9119
:102BC000FF9008950F931F93482F50E0CA0182543D
:102BD0009E4FFC012491CA0188589E4FFC0104912C
:102BE0004E5C5E4FFA011491112319F420E030E09D
:102BF00015C0222319F0822F0E943B15812F90E0EF
:102C0000880F991F885E9E4FFC01A591B4918C910D
:102C100020E030E0802311F021E030E0C9011F9175
:102C20000F9108951F920F920FB60F920BB60F924D
:102C300011242F933F934F938F939F93EF93FF9381
:102C40004091C60020916511309166112F5F3F4F72
:102C50002F73307080916711909168112817390790
:102C600059F0E0916511F0916611EB5DFE4E4083E5
:102C70003093661120936511FF91EF919F918F9191
:102C80004F913F912F910F900BBE0F900FBE0F9061
:102C90001F9018951F920F920FB60F920BB60F92BE
:102CA00011242F933F934F938F939F93EF93FF9311
:102CB0004091CE002091ED113091EE112F5F3F4FEA
:102CC0002F7330708091EF119091F0112817390710
:102CD00059F0E091ED11F091EE11E355FE4E408375
:102CE0003093EE112093ED11FF91EF919F918F9111
:102CF0004F913F912F910F900BBE0F900FBE0F90F1
:102D00001F9018951F920F920FB60F920BB60F924D
:102D100011242F933F934F938F939F93EF93FF93A0
:102D20004091D60020917512309176122F5F3F4F5F
:102D30002F7330708091771290917812281739078D
:102D400059F0E0917512F0917612EB5CFD4E4083E4
:102D50003093761220937512FF91EF919F918F918E
:102D60004F913F912F910F900BBE0F900FBE0F9080
:102D70001F9018951F920F920FB60F920BB60F92DD
:102D800011242F933F934F938F939F93EF93FF9330
:102D9000409136012091FD123091FE122F5F3F4F7E
:102DA0002F7330708091FF1290910013281739070C
:102DB00059F0E091FD12F091FE12E354FD4E408374
:102DC0003093FE122093FD12FF91EF919F918F910E
:102DD0004F913F912F910F900BBE0F900FBE0F9010
:102DE0001F9018951F920F920FB60F920BB60F926D
:102DF00011242F933F938F939F93EF93FF932091F1
:102E0000A9113091AA118091AB119091AC112817A2
:102E1000390731F48091C1008F7D8093C10014C0C7
:102E2000E091AB11F091AC11E759FE4E20818091F9
:102E3000AB119091AC1101968F7390709093AC117F
:102E40008093AB112093C600FF91EF919F918F91DA
:102E50003F912F910F900BBE0F900FBE0F901F90C0
:102E600018951F920F920FB60F920BB60F92112466
:102E70002F933F938F939F93EF93FF932091311262
:102E80003091321280913312909134122817390701
:102E900031F48091C9008F7D8093C90014C0E09106
:102EA0003312F0913412EF50FE4E20818091331294
:102EB0009091341201968F73907090933412809396
:102EC00033122093CE00FF91EF919F918F913F910C
:102ED0002F910F900BBE0F900FBE0F901F90189563
:102EE0001F920F920FB60F920BB60F9211242F93D1
:102EF0003F938F939F93EF93FF932091B91230915B
:102F0000BA128091BB129091BC122817390731F484
:102F10008091D1008F7D8093D10014C0E091BB12CD
:102F2000F091BC12E758FD4E20818091BB12909128
:102F3000BC1201968F7390709093BC128093BB1259
:102F40002093D600FF91EF919F918F913F912F9108
:102F50000F900BBE0F900FBE0F901F9018951F92F1
:102F60000F920FB60F920BB60F9211242F933F932F
:102F70008F939F93EF93FF932091411330914213CE
:102F800080914313909144132817390731F48091AD
:102F900031018F7D8093310114C0E0914313F09192
:102FA0004413EF5FFC4E20818091431390914413B2
:102FB00001968F73907090934413809343132093E2
:102FC0003601FF91EF919F918F913F912F910F903B
:102FD0000BBE0F900FBE0F901F901895AF92BF922F
:102FE000DF92EF92FF920F931F93CF93DF93EC0149
:102FF0007A018B01DD24403081EE580780E06807BC
:1030000080E0780711F0DD24D39491E0A92EB12C53
:10301000EC89FD89DD2069F0C5010E8C02C0880FA6
:10302000991F0A94E2F7808360E079E08DE390E0F5
:1030300005C0108260E874E88EE190E0A801970175
:103040000E946C2321503040404050405695479597
:103050003795279580E12030380720F0DD2011F0EA
:10306000DD24D6CFE889F9893083EA89FB8920837A
:10307000EE89FF89408121E030E0C9010A8C02C05D
:10308000880F991F0A94E2F7482B4083EE89FF8945
:103090004081C9010B8C02C0880F991F0A94E2F786
:1030A000482B4083EE89FF894081C9010C8C02C006
:1030B000880F991F0A94E2F7482B4083EE89FF8915
:1030C00080810D8C02C0220F331F0A94E2F72095F5
:1030D00028232083DF91CF911F910F91FF90EF90D4
:1030E000DF90BF90AF900895DC011C96ED91FC91AC
:1030F0001D97E05CFF4F2191319180819181281BC8
:10310000390B2F733070C9010895DC011C96ED91C5
:10311000FC911D97E05CFF4F20813181E054F0402D
:10312000DF01AE5BBF4F8D919C9111972817390736
:1031300019F42FEF3FEF07C08D919C91E80FF91F15
:103140008081282F30E0C9010895DC011C96ED91A3
:10315000FC911D97E05CFF4F20813181E054F040ED
:10316000DF01AE5BBF4F8D919C91119728173907F6
:1031700019F42FEF3FEF10C08D919C911197E80F3C
:10318000F91F20818D919C91119701968F739070FA
:1031900011969C938E9330E0C9010895FC018685B9
:1031A0009785DC01A05CBF4FFC01EE5BFF4F2D91CA
:1031B0003C9111978081918128173907C1F70895B3
:1031C000CF93DF93EC01EE85FF85E05CFF4F20811C
:1031D0003181E054F0402F5F3F4F2F733070DF019B
:1031E000AE5BBF4F8D919C91119728173907D1F392
:1031F000E05CFF4F80819181E054F040E80FF91FBF
:103200006083EE85FF85E05CFF4F31832083EE898C
:10321000FF89208181E090E00D8C02C0880F991F0A
:103220000A94E2F7282B208381E090E0DF91CF9190
:1032300008951F93109248131092471328EE33E01D
:1032400040E050E02093491330934A1340934B13CE
:1032500050934C1368EE74E07093461360934513DB
:1032600085E291E1909352138093511389E691E1A5
:10327000909354138093531385EC90E090935613DE
:103280008093551384EC90E09093581380935713D8
:1032900080EC90E090935A138093591381EC90E066
:1032A00090935C1380935B1386EC90E090935E1395
:1032B00080935D1314E010935F13B3E0B093601339
:1032C000A7E0A0936113F5E0F0936213E1E0E093CF
:1032D0006313109267131092661320936813309350
:1032E000691340936A1350936B1370936513609343
:1032F00064138DEA91E1909371138093701381EFC1
:1033000091E190937313809372138DEC90E09093FE
:103310007513809374138CEC90E0909377138093E3
:10332000761388EC90E0909379138093781389EC6E
:1033300090E090937B1380937A138EEC90E09093BF
:103340007D1380937C1310937E13B0937F13A0930F
:103350008013F0938113E0938213109286131092DE
:1033600085132093871330938813409389135093C8
:103370008A13709384136093831385E392E190938F
:10338000901380938F1389E792E190939213809327
:10339000911385ED90E0909394138093931384EDB3
:1033A00090E0909396138093951380ED90E0909326
:1033B00098138093971381ED90E090939A138093E4
:1033C000991386ED90E090939C1380939B13109338
:1033D0009D13B0939E13A0939F13F093A013E093BB
:1033E000A1131092A5131092A4132093A613309347
:1033F000A7134093A8135093A9137093A31360933A
:10340000A2138DEB92E19093AF138093AE1381E002
:1034100093E19093B1138093B01385E391E090937F
:10342000B3138093B21384E391E09093B513809328
:10343000B41380E391E09093B7138093B61381E3C4
:1034400091E09093B9138093B81386E391E0909341
:10345000BB138093BA131093BC13B093BD13A09306
:10346000BE13F093BF13E093C0131F910895089506
:10347000CF92DF92EF92FF920F931F93CF93DF9340
:103480007C016B018A01C0E0D0E00FC0D6016D91D4
:103490006D01D701ED91FC910190F081E02DC70104
:1034A0001995C80FD91F015010400115110571F76A
:1034B000CE01DF91CF911F910F91FF90EF90DF90A0
:1034C000CF900895DC01ED91FC910190F081E02D09
:1034D00019950895EF92FF920F931F938C01DC01D1
:1034E000ED91FC910190F081E02D6DE019957C014A
:1034F000D801ED91FC910190F081E02DC8016AE0C6
:1035000019959C012E0D3F1DC9011F910F91FF9030
:10351000EF900895CF93DF93DB010D900020E9F742
:103520001197A61BB70BEC01E881F9810280F381AA
:10353000E02DAD011995DF91CF9108954F925F92E3
:103540007F928F929F92AF92BF92CF92DF92EF9233
:10355000FF920F931F93DF93CF93CDB7DEB7A19761
:103560000FB6F894DEBF0FBECDBF2C01742ECB0179
:10357000223008F42AE019A231E2C32ED12CCC0E5D
:10358000DD1E822E9924AA24BB24672D752FA50148
:1035900094010E946C2379018A01C801B701A50139
:1035A00094010E942623472D461B0894C108D10888
:1035B0004A3014F4405D01C0495CF6014083E114D7
:1035C000F1040105110521F07E2C5F2DC801DDCF2E
:1035D000C201B6010E948A1AA1960FB6F894DEBF06
:1035E0000FBECDBFCF91DF911F910F91FF90EF9054
:1035F000DF90CF90BF90AF909F908F907F905F9023
:103600004F900895DC012115310541F4ED91FC91B5
:103610000190F081E02D642F199508950E949E1A63
:103620000895EF92FF920F931F937C010E94021B5B
:103630008C01C7010E946A1A9C01200F311FC90129
:103640001F910F91FF90EF900895CF92DF92EF922C
:10365000FF920F931F93CF93DF93EC016A017B01DD
:103660002115310541F4E881F9810190F081E02DC7
:10367000642F19951FC02A303105D1F477FF17C088
:10368000E881F9810190F081E02D6DE219958C01BE
:1036900044275527BA014C195D096E097F09CE01EF
:1036A0002AE00E949E1A9801280F391F04C02AE0C0
:1036B0000E949E1A9C01C901DF91CF911F910F9129
:1036C000FF90EF90DF90CF900895EF92FF920F93CD
:1036D0001F937B019A010027F7FC0095102FB8017A
:1036E000A7010E94251B1F910F91FF90EF90089555
:1036F000CF92DF92EF92FF920F931F936C017B01A9
:103700009A010027F7FC0095102FB801A7010E942D
:10371000251B8C01C6010E946A1A080F191FC801D7
:103720001F910F91FF90EF90DF90CF9008950E942E
:103730008A1A0895EF92FF920F931F937C010E94C3
:103740008A1A8C01C7010E946A1A080F191FC80142
:103750001F910F91FF90EF900895FC011382128248
:1037600088EF94E0918380837583648357834683D5
:103770007187608753874287158A15861486178656
:10378000168621E0248B8FEF9FEF938B828B918B9A
:10379000808B268B08952F923F924F925F926F926B
:1037A0007F928F929F92AF92BF92CF92DF92EF92D1
:1037B000FF920F931F93DF93CF9300D00F92CDB75B
:1037C000DEB73C017C836B836A015901FA82E9828E
:1037D000222433249801241B350B37FF03C0309576
:1037E00021953F4FC5014B815C81841B950B97FF51
:1037F00003C0909581959F4F821793075CF481E0F9
:10380000282E312CC601CB80DC809C838B83C801A1
:1038100085015C018B819C81A816B90644F4C50121
:10382000AB80BC809C838B83C80186016C01250121
:10383000AB81BC814A1A5B0A7801EC18FD08F7FEDF
:1038400004C0F094E194F108F394C016D10624F07A
:1038500088248A94982C03C0B1E08B2E912CC2014D
:1038600062E070E00E9459238B0125C0D301ED91E5
:10387000FC912114310441F00480F581E02DC30155
:10388000B6014B815C8107C00480F581E02DC30146
:103890006B817C81A60129813A8119950E191F0936
:1038A00017FF04C0C80CD91C040D151DEB81FC8149
:1038B0003196FC83EB834B815C81A416B506B4F68C
:1038C0000F900F900F900F90CF91DF911F910F915C
:1038D000FF90EF90DF90CF90BF90AF909F908F9030
:1038E0007F906F905F904F903F902F9008954F92F0
:1038F0005F926F927F928F929F92AF92BF92CF9280
:10390000DF92EF92FF920F931F936C015B014A01CC
:1039100039012801DC01ED91FC910284F385E02D51
:1039200087011995D601ED91FC91A40141505040B9
:10393000440D551D0284F385E02DC601B5019301A8
:103940001995D601ED91FC910084F185E02DC60119
:10395000B501A40192011995D601ED91FC9108944D
:10396000A108B108A60CB71C0084F185E02DC601A2
:10397000B501A401920119951F910F91FF90EF904D
:10398000DF90CF90BF90AF909F908F907F906F907F
:103990005F904F900895CF92DF92EF92FF920F9336
:1039A0001F93DC016B017801ED91FC918A010150BC
:1039B0001040020F131F0680F781E02D9601199524
:1039C0001F910F91FF90EF90DF90CF900895CF92CD
:1039D000DF92EF92FF920F931F93DC016A01C901FE
:1039E0007801ED91FC9111979B0121503040280FF7
:1039F000391F0680F781E02DCD01860119951F91B1
:103A00000F91FF90EF90DF90CF9008956F927F928B
:103A10008F929F92AF92BF92CF92DF92EF92FF92DE
:103A20000F931F93CF93DF935C013A016901480123
:103A3000EB01C60ED71E0DC0D501ED91FC9100849F
:103A4000F185E02DC501BE01A301940187011995FF
:103A50002196CC15DD0584F3DF91CF911F910F9155
:103A6000FF90EF90DF90CF90BF90AF909F908F909E
:103A70007F906F900895EF92FF920F931F93FC0138
:103A80007B01A081B18120853185028513851E9639
:103A90000D90BC91A02D60E070E040E050E0FD0191
:103AA00019951F910F91FF90EF9008952F923F92DB
:103AB0004F925F926F927F928F929F92AF92BF923E
:103AC000CF92DF92EF92FF920F931F93DF93CF93EA
:103AD000CDB7DEB72F970FB6F894DEBF0FBECDBFC0
:103AE0005C015E834D8318870F83FA86E986CB8657
:103AF000DC0118968D919C911997681779070CF045
:103B0000A4C01A968D919C911B97481759070CF0E9
:103B10009CC0EC2DF0E0FF87EE87CF01880F991F46
:103B20008E0F9F1F880F991F860F971F1816190653
:103B30000CF08BC0CF01F3E0880F991FFA95E1F7E5
:103B4000840F951F181619060CF07FC085E0289F7A
:103B5000A00111245A8349832B011B011C825C8123
:103B6000553011F480E005C0E981FA81EC5FFD4F2A
:103B700084912C863D866D807E8043011B82C82EF9
:103B8000DD2480FF1CC0D501ED91FC91BB85B130D7
:103B900049F40480F581E02DC501B201A3012F8114
:103BA000388522C00684F785E02DC5016C857D85AA
:103BB000A4012E853F858901EF80F88423C0E98523
:103BC000FA852F813885E217F307E9F0D501ED91E9
:103BD000FC91BB85B13051F40480F581E02DC50125
:103BE000B201A30129853A8519950DC00684F78590
:103BF000E02DC5016C857D85A4012E853F85890159
:103C0000E984FA841995EB81EF5FEB832E853F857C
:103C1000820E931E0894611C711CE83021F0D5942B
:103C2000C7948C2DACCF3C813F5F3C834E855F8534
:103C3000240E351E0894411C511C89819A810196DD
:103C40009A838983363009F08ACF2F960FB6F8947D
:103C5000DEBF0FBECDBFCF91DF911F910F91FF90BF
:103C6000EF90DF90CF90BF90AF909F908F907F901C
:103C70006F905F904F903F902F900895CF92EF926A
:103C8000FF920F931F93CF93DF93EC01262F6A309F
:103C900061F42C8930E003E0220F331F0A95E1F72D
:103CA0008E859F85820F931F37C06D30C9F16C855B
:103CB0007D854E855F8508891989EA88FB88CC88CF
:103CC0000E94561D2C8986E0289FB00111248C8506
:103CD0009D85680F791F7D876C878E89882301F108
:103CE000422F50E08AEF9FEF9C01429FC001439F0B
:103CF000900D529F900D112428853985820F931FB6
:103D0000861797076CF413E0440F551F1A95E1F7D7
:103D10008E859F85840F951F9F878E871D861C86A5
:103D200081E090E0DF91CF911F910F91FF90EF9094
:103D3000CF900895FC01758764875787468708955B
:103D4000FC01662309F461E0648B0895FC01738B28
:103D5000628B718B608B08950895DC0158968C916D
:103D60005897882329F06EBD0DB407FEFDCF089546
:103D700030E840E050E070E0832F90E08623972306
:103D80005996ED91FC915A9796962C919697892B7E
:103D900021F08081822B808304C08081209528239C
:103DA00020835B96ED91FC915C97808197969C9126
:103DB0009797892B80835B96ED91FC915C9790811E
:103DC00097968C91979780958923808336954F5F3E
:103DD0005F4F4830510581F608950F931F938C0172
:103DE000DC015F96ED91FC919097908199968C9172
:103DF00099978095892380835D96ED91FC915E97DC
:103E0000908198968C91809589238083C8010E9427
:103E1000AD1ED8015D96ED91FC915E9780819896DC
:103E20009C91892B80831F910F9108950F931F936D
:103E30008C01DC015F96ED91FC91909780819996C1
:103E40009C919997892B80835D96ED91FC915E976B
:103E5000908198968C91809589238083C8010E94D7
:103E6000AD1ED8015D96ED91FC915E97808198968C
:103E70009C91892B80831F910F910895CF92DF929F
:103E8000EF92FF920F931F937C01162FC42ED22E18
:103E90006AE20E94ED1EC70160E00E94161FF70152
:103EA00062A5610FC7010E94161FC70160E00E9452
:103EB000161FF70162A56D0DC7010E94161FC701ED
:103EC0006BE20E94ED1EC70160E00E94161FF70121
:103ED00063A56C0DC7010E94161FC70160E00E9418
:103EE000161FF70163A5600FC7010E94161FC701C7
:103EF0006CE20E94ED1E1F910F91FF90EF90DF90FA
:103F0000CF900895FF920F931F93CF93DF93EC010F
:103F1000F22E132F77FD2EC08885998568177907B3
:103F20004CF557FD27C08A859B854817590714F51E
:103F3000262F2F5F042F0F5FCE010E943E1FEF8DB3
:103F4000F8A1808199A5892B8083ED8DFE8D9081CC
:103F500088A5809589238083CE01612F0E94AD1EA4
:103F6000CE016F2D0E94AD1EED8DFE8D808198A536
:103F7000892B8083DF91CF911F910F91FF9008953E
:103F8000DF92EF92FF920F931F93CF93DF93EC0199
:103F9000FB017901D02E8885998568177907D4F5BA
:103FA0002A853B8542175307ACF5C701840F951F3F
:103FB000281739071CF47901E41AF50A042F015077
:103FC0000E0DCE016E2F2E2F0E943E1FEF8DF8A1F9
:103FD000808199A5892B8083ED8DFE8D908188A5A8
:103FE00080958923808308C0CE01612F0E94AD1E79
:103FF000CE016D2D0E94AD1E0894E108F1088FEFEF
:10400000E8168FEFF80681F7ED8DFE8D808198A57B
:10401000892B8083DF91CF911F910F91FF90EF90BB
:10402000DF900895DF92EF92FF920F931F93CF934B
:10403000DF93EC01FA017901D02E288539856217CA
:104040007307D4F58A859B8548175907ACF5C701D6
:10405000860F971F281739071CF47901E61AF70A0B
:10406000262F21502E0DCE014E2F0E2F0E943E1FC7
:10407000EF8DF8A1808199A5892B8083ED8DFE8D30
:10408000908188A580958923808308C0CE01612F07
:104090000E94AD1ECE016D2D0E94AD1E0894E10858
:1040A000F1088FEFE8168FEFF80681F7ED8DFE8DA2
:1040B000808198A5892B8083DF91CF911F910F91EB
:1040C000FF90EF90DF900895EF92FF920F931F9370
:1040D000FC017B01A081B18120853185028513859A
:1040E0001E960D90BC91A02D60E070E040E050E085
:1040F000FD0119951F910F91FF90EF900895AF92D8
:10410000BF92CF92DF92EF92FF920F931F93CF93C4
:10411000DF936C015901E801DC0118962D913C9167
:104120001997621773070CF057C01A96ED91FC911E
:104130001B974E175F070CF04FC0C501860F971FE6
:10414000281739071CF45901A61AB70ACE01840FA3
:10415000951FE817F9071CF4EF01C41BD50B262F98
:1041600021502A0D042F01500C0FC6010E943E1F42
:10417000D6015F96ED91FC919097808199969C91E4
:104180009997892B80835D96ED91FC915E97908144
:1041900098968C918095892380838E010EC0C601EC
:1041A0006F2D0E94AD1EC6016E2D0E94AD1E21977F
:1041B0001C161D06A4F3015010401016110614F42D
:1041C000E501F6CFD6015D96ED91FC915E97808179
:1041D00098969C91892B8083DF91CF911F910F91AD
:1041E000FF90EF90DF90CF90BF90AF90089566233F
:1041F00011F460E201C061E20E94ED1E0895AF92E9
:10420000BF92CF92DF92EF92FF920F931F93CF93C3
:10421000DF935C01FB01EB012196D49031C08E014C
:104220000F5F1F4FFE016491C5010E94ED1E7801D2
:104230000894E11CF11CF801C4900C2D0F77E701E4
:10424000102F08C0FE012196E491C5016E2F0E9437
:10425000161F11501123B1F7E701C00FD11DC7FE82
:104260000EC0FE018491682F70E06F3F710511F45C
:1042700064EF71E0219680E090E00E944114DA94AE
:10428000DD2069F6DF91CF911F910F91FF90EF90A4
:10429000DF90CF90BF90AF9008950F931F93CF936F
:1042A000DF93EC018B011BA61AA68AA161E00E9494
:1042B000FC1489A161E00E94FC14E9A14E2F50E09A
:1042C000FA01EE5CFE4FE491F0E0EE0FFF1FE250CA
:1042D000FF4F859194919E8F8D8FEAA12E2F30E014
:1042E000F901EE5CFE4FE491F0E0EE0FFF1FE250AB
:1042F000FF4F8591949198A38F8F48585E4FFA0194
:10430000849188A728583E4FF901849189A7888D08
:10431000882361F00E94782280E00E94672281E079
:104320000E94592280E00E9462223DC08DA161E07E
:104330000E94FC148CA161E00E94FC14EDA14E2FA0
:1043400050E0FA01EE5CFE4FE491F0E0EE0FFF1F4B
:10435000E250FF4FA591B491BC8FAB8FECA12E2FF3
:1043600030E0F901EE5CFE4FE491F0E0EE0FFF1F4C
:10437000E250FF4F859194919A8F898F48585E4FF4
:10438000FA0194919FA328583E4FF90184918EA37E
:104390008C91909598239C93E98DFA8D90818EA1B4
:1043A000809589238083ED8DFE8D908188A58095F1
:1043B000892380838BA1882309F161E00E94FC148A
:1043C0008BA161E00E94AF1564EF71E080E090E0A6
:1043D0000E9441148BA160E00E94AF1564EF71E070
:1043E00080E090E00E9441148BA161E00E94AF1533
:1043F00064EF71E080E090E00E9441140115110526
:1044000021F0CE01B8010E94FF20DF91CF911F91D2
:104410000F9108951F93CF93DF93EC01162F6FEF49
:1044200076E00E944D21112351F4CE016AE377E03A
:104430000E94FF2082E08AA781E08BA705C0CE0101
:1044400067E477E00E94FF20CE0164E577E00E94F8
:10445000FF20123041F4CE0166E30E94ED1ECE0132
:1044600060EC0E94161F1F8BDF91CF911F91089562
:10447000DF92EF92FF920F931F938C01F62EE42EA2
:10448000D22E60E870E040EA50E00E94AD1B80E16F
:1044900095E0F80191838083F1A2E2A2D3A281E0AA
:1044A000808F15A214A21F910F91FF90EF90DF90C3
:1044B0000895882319F48CB5806202C08CB58F7D75
:1044C0008CBD08959CB5937F982B9CBD08952CB509
:1044D000382F33702C7F322B3CBD2DB590E0959555
:1044E00087959595879581702E7F822B8DBD089538
:1044F00084E361E00E94FC1483E361E00E94FC1409
:1045000085E361E00E94FC1484E360E00E94AF1543
:1045100083E360E00E94AF1585E361E00E94AF1580
:104520008CB580618CBD8CB580648CBD0895AF92D4
:10453000BF92CF92DF92EF92FF920F931F93CF9390
:10454000DF93EC01A880B980CA80DB80A114B1049C
:10455000C104D10441F484E2A82E89EDB82E8BE584
:10456000C82E87E0D82EC601B5012DE133EF41E01A
:1045700050E00E948E2327EA31E440E050E00E94A0
:1045800026237B018C01C601B5012DE133EF41E00B
:1045900050E00E948E23CA01B9012CEE34EF4FEF98
:1045A0005FEF0E9426236E0D7F1D801F911F97FFD6
:1045B00004C06150704080409048688379838A834A
:1045C0009B839B013F77C901DF91CF911F910F9191
:1045D000FF90EF90DF90CF90BF90AF9008950E9432
:1045E000972208958DED94E00E9497220895A0E00F
:1045F000B0E08093DD049093DE04A093DF04B093D9
:10460000E0040895F8940C94AF23803209F09111DE
:104610001AC080528F55E0F70895F999FECF92BDE8
:1046200081BDF89A992780B50895262FF999FECF74
:104630001FBA92BD81BD20BD0FB6F894FA9AF99ABF
:104640000FBE01960895992788270895629FD0018B
:10465000739FF001829FE00DF11D649FE00DF11D3D
:10466000929FF00D839FF00D749FF00D659FF00DEC
:104670009927729FB00DE11DF91F639FB00DE11DD9
:10468000F91FBD01CF0111240895AA1BBB1B51E1E5
:1046900007C0AA1FBB1FA617B70710F0A61BB70BB2
:1046A000881F991F5A95A9F780959095BC01CD0157
:1046B000089597FB092E07260AD077FD04D0E5DF81
:1046C00006D000201AF4709561957F4F0895F6F793
:1046D000909581959F4F0895A1E21A2EAA1BBB1BAE
:1046E000FD010DC0AA1FBB1FEE1FFF1FA217B307BE
:1046F000E407F50720F0A21BB30BE40BF50B661FD4
:10470000771F881F991F1A9469F760957095809597
:1047100090959B01AC01BD01CF01089597FB092E37
:1047200005260ED057FD04D0D7DF0AD0001C38F480
:1047300050954095309521953F4F4F4F5F4F0895CD
:10474000F6F790958095709561957F4F8F4F9F4FAD
:104750000895EE0FFF1F0590F491E02D1994F89441
:02476000FFCF89
:10476200536E616B6500506C6561736520496E70B4
:10477200757420596F7572004E616D65206F6E20E1
:104782000053657269616C204D6F6E69746F7200BF
:10479200496E707574205072696E7461626C652026
:1047A2004368617261637465727320617320596F2B
:1047B2007572204E616D65004E616D652057696CA2
:1047C2006C2062652053746F726564205768656E51
:1047D20020556E7072696E7461626C652043686107
:1047E20072616374657273204172652050726573E1
:1047F20073656400596F7572204E616D653A2000D1
:10480200596F7572206E616D652069730045455060
:10481200524F4D0074657374303030303030303068
:10482200303030303030303000004E616D65205312
:10483200746F7265642C20476F206261636B207411
:104842006F205374617274207468652047616D65CE
:104852000072616E646F6D20666F6F6420626567BF
:10486200696E00636865636B20696E2063617365BE
:1048720020666F6F64206973206F6E2074686520F4
:10488200736E616B65277320626F6479006D616975
:104892006E2067616D6520626567696E0053636FA4
:1048A20072653A200064656C6179200073636F72EF
:1048B200653A00737461727400505245535320423A
:1048C2005554544F4E00544F20434F4E54494E5569
:1048D20045005354415254003230313600436F7018
:1048E200797269676874402057656E6368656E0007
:1048F200616E642051697566656E670063616C6CF8
:10490200206D61696E2067616D650067616D65206C
:104912006F7665720047414D45204F56455200570C
:10492200616E7420546F20506C6179004167616937
:104932006E3F005072657373207468652000627563
:1049420074746F6E00507265737320627574746F45
:104952006E20746F00436F6E74696E7565006361DB
:104962006C6C207374617274004849474845535413
:10497200205245434F524400546865204869676895
:104982006573742073636F72653A005468652048DA
:104992006967686573742073636F7265005F5F5F38
:1049A2005F5F5F5F5F5F5F5F5F5F5F5F5F5F5F0074
:1049B2004E616D653A2000596F7572206E616D65AA
:1049C2003A2000596F75722073636F72653A200046
:1049D2005F5F5F5F5F5F5F5F5F5F5F5F5F5F5F0044
:1049E2007C20507265737320627574746F6E207CC4
:1049F200007C20746F20436F6E74696E7565202091
:104A02007C002000436F70797269676874402048A7
:104A12006172727900736574207570206973206702
:104A22006F6F6400696E74206D61696E20626567E4
:104A3200696E200031322E367465737400010000F5
:104A42000009000100000000E018381A7418A518C7
:104A52008518CE18000000003E1E381A371ACB1BEC
:104A6200CB1CE71C771C061D3B1DAC1E0000000082
:104A72003E1E381A821FCB1BC01F1220771C7F20BC
:044A82006420F72095
:00000001FF
