:100000000C94F5030C9421040C9421040C94210409
:100010000C9421040C9421040C9421040C942104CC
:100020000C9421040C9421040C9421040C942104BC
:100030000C9421040C9421040C9421040C942104AC
:100040000C9421040C9421040C9421040C9421049C
:100050000C9421040C9421040C9421040C94AB12F4
:100060000C9421040C94C4140C94A4150C94210435
:100070000C9421040C9421040C9421040C9421046C
:100080000C9421040C9421040C9421040C9421045C
:100090000C94FC140C94E3150C9421040C9421048E
:1000A0000C9421040C9421040C9421040C9421043C
:1000B0000C9421040C9421040C9421040C9421042C
:1000C0000C9421040C9421040C9421040C943415F8
:1000D0000C9422160C9421040C946C150C9461164B
:1000E0000C94210400002100240027002A002D0088
:1000F0003000330001010000040107010A01000083
:100100002200250028002B002E00310034000201BF
:100110000000050108010B0100002000230026005B
:1001200029002C002F00320000010000030106010D
:10013000090105050505070508080808020202026D
:100140000A0A080804040404010101010101010173
:100150000303030303030303040707070C0C0C0C3E
:100160000C0C0C0C02020202060606060606060627
:100170000B0B0B0B0B0B0B0B0102102020080810B4
:100180002040102040800201020108040201010207
:1001900004081020408080402010080402018004E0
:1001A000020180402010080402010804020101023B
:1001B0000408102040800102040810204080000044
:1001C000090A02080B0C0D070603040100000000D9
:1001D000000000000000000000000000000000001F
:1001E0000000000000000000000011100F000000DF
:1001F00000000000000000000000000000000000FF
:100200000000000000000000003E5B4F5B3E3E6BC4
:100210004F6B3E1C3E7C3E1C183C7E3C181C577DA0
:10022000571C1C5E7F5E1C00183C1800FFE7C3E7EC
:10023000FF0018241800FFE7DBE7FF30483A060EFE
:100240002629792926407F050507407F05253F5A45
:100250003CE73C5A7F3E1C1C08081C1C3E7F1422B5
:100260007F22145F5F005F5F06097F017F00668960
:10027000956A606060606094A2FFA29408047E04A6
:100280000810207E201008082A1C08081C2A0808CC
:100290001E101010100C1E0C1E0C30383E3830068C
:1002A0000E3E0E06000000000000005F0000000788
:1002B000000700147F147F14242A7F2A12231308B6
:1002C000646236495620500008070300001C224192
:1002D000000041221C002A1C7F1C2A08083E080836
:1002E00000807030000808080808000060600020E6
:1002F000100804023E5149453E00427F40007249C9
:100300004949462141494D331814127F102745456C
:1003100045393C4A49493141211109073649494982
:1003200036464949291E00001400000040340000F0
:100330000008142241141414141400412214080259
:10034000015909063E415D594E7C1211127C7F49CC
:100350004949363E414141227F4141413E7F494921
:1003600049417F090909013E414151737F0808084D
:100370007F00417F41002040413F017F081422411E
:100380007F404040407F021C027F7F0408107F3E78
:100390004141413E7F090909063E4151215E7F09E5
:1003A000192946264949493203017F01033F40404C
:1003B000403F1F2040201F3F4038403F6314081437
:1003C0006303047804036159494D43007F4141416F
:1003D0000204081020004141417F04020102044050
:1003E00040404040000307080020545478407F28D4
:1003F0004444383844444428384444287F385454CA
:10040000541800087E090218A4A49C787F080404EC
:100410007800447D40002040403D007F102844008B
:1004200000417F40007C047804787C08040478381C
:1004300044444438FC1824241818242418FC7C084C
:10044000040408485454542404043F44243C4040C9
:10045000207C1C2040201C3C4030403C442810287C
:10046000444C9090907C4464544C440008364100C5
:100470000000770000004136080002010204023C3F
:100480002623263C1EA1A161123A4040207A38540E
:100490005455592155557941215454784121555489
:1004A000784020545579400C1E52721239555555DA
:1004B00059395454545939555454580000457C41C5
:1004C0000002457D420001457C40F0292429F0F0DE
:1004D000282528F07C545545002054547C547C0A2F
:1004E000097F4932494949323248484832324A48FC
:1004F00048303A4141217A3A42402078009DA0A0FC
:100500007D39444444393D4040403D3C24FF24244F
:10051000487E4943662B2FFC2F2BFF0929F620C06C
:10052000887E090320545479410000447D413048BD
:10053000484A32384040227A007A0A0A727D0D1900
:10054000317D2629292F28262929292630484D4062
:1005500020380808080808080808382F10C8ACBA5E
:100560002F102834FA00007B000008142A142222DD
:10057000142A1408AA005500AAAA55AA55AA0000D0
:1005800000FF00101010FF00141414FF001010FFE3
:1005900000FF1010F010F0141414FC001414F700F5
:1005A000FF0000FF00FF1414F404FC141417101FC4
:1005B00010101F101F1414141F00101010F0000052
:1005C00000001F101010101F10101010F01000006D
:1005D00000FF101010101010101010FF100000007D
:1005E000FF140000FF00FF00001F10170000FC04B4
:1005F000F414141710171414F404F40000FF00F797
:1006000014141414141414F700F7141414171410F9
:10061000101F101F141414F4141010F010F0000028
:100620001F101F0000001F14000000FC140000F049
:1006300010F01010FF10FF141414FF141010101FEE
:1006400000000000F010FFFFFFFFFFF0F0F0F0F0FF
:10065000FFFFFF0000000000FFFF0F0F0F0F0F381C
:10066000444438447C2A2A3E147E02020606027E56
:10067000027E0263554941633844443C04407E2075
:100680001E2006027E020299A5E7A5991C2A492A86
:100690001C4C7201724C304A4D4D30304878483015
:1006A000BC625A463D3E494949007E0101017E2A0D
:1006B0002A2A2A2A44445F444440514A4440404440
:1006C0004A51400000FF0103E080FF000008086B72
:1006D0006B083612362436060F090F06000018186C
:1006E0000000001010003040FF0101001F01011E3A
:1006F00000191D1712003C3C3C3C00000000000F9C
:100700000180961180FFB103012C2DB203012C2D25
:10071000B306012C2D012C2DB40107C003A20284C5
:10072000C101C5C2020A00C3028A2AC4028AEEC5F8
:10073000010E20003601C83A0105022A0400020019
:10074000812B04000100A0022A040000007F2B047A
:100750000000009F04E010021C07123732292D29E7
:10076000252B3900010310E110031D07062E2C294B
:100770002D2E2E373F0000021013800A29806412AC
:100780000180321180FF3A81050AB1830006030A15
:10079000360108B6021502B40100C08202700AC117
:1007A0000105C2020102C5823C380AFC021115E0B3
:1007B0001009160920211B131917151E2B040502F9
:1007C0000EE1900B14081E221D181E1B1A242B0666
:1007D00006020F0A2A04000200812B040002008195
:1007E00013800A2980FF2304CB1711241FBECFEFEB
:1007F000D1E2DEBFCDBF00E00CBF14E0A0E0B2E06C
:10080000EAEAF4E400E00BBF02C007900D92AC39B5
:10081000B107D9F71EE1ACE9B4E001C01D92A33FD6
:10082000B107E1F717E0CAEED7E004C02297FE0156
:100830000E944F22C63ED107C9F70E946A120C944B
:10084000B4210C9400008EE994E066E047E028E0D3
:100850000E94EA200895CF92DF92EF92FF920F93C9
:100860001F93FEE9CF2EF4E0DF2EC60160E070E0BA
:1008700040E050E020E830E000EA10E0E5EEEE2E47
:10088000F12C0E94311FC6016AE070E04AE050E09E
:100890002CE630E002E210E0EE24EA94FE2C0E9406
:1008A000311FC60164E170E040E150E00E944C1D40
:1008B000C60161E178E80E94581DC60163E00E940C
:1008C000521DC60160E072E00E944C1AC60160E150
:1008D00070E043E350E00E944C1DC60161E00E94BD
:1008E000521DC6016FEF73E30E94581DC60166E0FA
:1008F00072E00E944C1AC60168E270E04EE350E0DC
:100900000E944C1DC60168E172E00E944C1AC601AB
:1009100064E170E049E450E00E944C1DC60161E2D0
:1009200072E00E94491A07E71EE1C80160E372E025
:100930000E944C1AC80168E572E00E944C1AC80176
:1009400064E972E00E944C1AC60161E00E94521DE7
:10095000C6016FEF7FEF0E94581DC60169E170E08C
:1009600048E550E00E944C1DC60160EA72E00E941A
:10097000491A1F910F91FF90EF90DF90CF9008954B
:10098000EF92FF920F931F93CF93DF930E942B045C
:10099000C0EDD4E000E010E080E3E82EF12C87E722
:1009A0009EE10E945717888388818F3FC1F3992762
:1009B00087FD90950E94B921892B29F400531B4F84
:1009C000F801108225C08EE994E061E00E94521D7A
:1009D0008EE994E06FEF7FEF0E94581D8EE994E05E
:1009E000B70143E650E00E944C1D87E79EE1688115
:1009F0000E9414198EE994E069910E9414190F5F06
:100A00001F4F86E090E0E80EF91E0B30110539F615
:100A100087E79EE16DEA72E00E944C1A87E79EE14B
:100A20006EEA72E00E944C1ADF91CF911F910F91F4
:100A3000FF90EF900895EF92FF920F931F93CF9343
:100A4000DF930E94A4216CE770E00E94FD21880FD3
:100A5000991F880F991F6CE770E00E94FD217C01AF
:100A60000E94A4216CE970E00E94FD21880F991F6B
:100A7000880F991F60E970E00E94FD21EC018C0154
:100A8000C70101978B37910578F00E94A4216CE78C
:100A900070E00E94FD21880F991F880F991F6CE755
:100AA00070E00E94FD217C012197CF38D10548F1EB
:100AB0000E94A42160E970E019C0E216F306E9F78C
:100AC0000817190751F50E94A4216CE770E00E94F5
:100AD000FD21880F991F880F991F6CE770E00E9415
:100AE000FD217C010E94A4216CE970E00E94FD219F
:100AF000880F991F880F991F60E970E00E94FD21FF
:100B00008C014091CE045091CF042091E6043091A5
:100B1000E7048091E4049091E504483051056CF6B7
:100B2000B801C701DF91CF911F910F91FF90EF9016
:100B300008952F923F924F925F926F927F928F9281
:100B40009F92AF92BF92CF92DF92EF92FF920F935C
:100B50001F93DF93CF93CDB7DEB76E970FB6F894A0
:100B6000DEBF0FBECDBF2DB73EB73C8B2B8B21E038
:100B700030E030939D0420939C043093CD04209367
:100B8000CC041092CB041092CA0480E490E09093BD
:100B9000E1048093E00480E590E09093DF0480938B
:100BA000DE043093E3042093E20480E00E94771295
:100BB0009C878B8781E00E9477129A8789878EE9CC
:100BC00094E060E070E040E050E020E830E000EACF
:100BD00010E0EE24FF240E94311F0E941B057C833D
:100BE0006B839A83898388E090E09E878D87EB856D
:100BF000FC853A97F88FEF8B2B853C85265F3F4F1E
:100C00003A8F298F89859A850A979C8F8B8FE985E2
:100C1000FA853A96FE8FED8FFDB7FD8B2EB72E8BA2
:100C20008EE994E060E070E043E950E020E830E0D5
:100C30000DE010E0EE24EA94FE2C0E94311F8EE9B4
:100C400094E069E070E046E950E00E944C1D8EE9B6
:100C500094E060E070E00E94581D8EE994E065ED3C
:100C600072E00E94491A6091CA047091CB048EE927
:100C700094E04AE050E00E94171A8EE994E06981FE
:100C80007A814B815C8124E030E004E010E0BFEF2A
:100C9000EB2EF12C0E94311F80E00E9477128C0114
:100CA00081E00E947712EB85FC850E171F0739F053
:100CB00018870F8329853A853E832D830BC0E985EC
:100CC000FA858E179F0731F02B853C8538872F8357
:100CD0009E838D838D859E85959587959595879522
:100CE0009A8B898B0197988B8F8789899A89880F2E
:100CF000991FEDB7FEB7E81BF90B0FB6F894FEBFCE
:100D00000FBEEDBF6DB67EB60894611C711C2DB789
:100D10003EB7281B390B0FB6F8943EBF0FBE2DBF50
:100D20004DB65EB60894411C511C8091E20490912E
:100D3000E3048130910509F0A0C1EEED2E2EE4E030
:100D40003E2ED10140E050E020E030E016C0F3013B
:100D5000E20FF31F12968D919C91139791838083DC
:100D6000F201E20FF31F8D919C9111979183808383
:100D70004F5F5F4F16962E5F3F4F89899A894817BC
:100D800059072CF34091DE045091DF044450504049
:100D90005093DF044093DE046091E0047091E1041D
:100DA0008EE994E024E030E004E010E0EE24EA94E0
:100DB000FE2C0E94311F7EEDA72E74E0B72E8824F2
:100DC0009924CC24DD2422C00894811C911CF301B9
:100DD000EC0DFD1D60817181F50173836283F20169
:100DE000EC0DFD1D40815181F501518340838EE959
:100DF00094E024E030E004E010E0EE24EA94FE2CDD
:100E00000E94311F22E030E0C20ED31E86E090E047
:100E1000A80EB91EEF85F8898E169F06ACF2EE0F6C
:100E2000FF1FD301AE0FBF1F6D917C91E40DF51D27
:100E3000408151818EE994E024E030E004E010E04C
:100E4000EE24FF240E94311F2D813E818B8D9C8DCD
:100E5000281739070CF065C0EF81F8852B853C8594
:100E6000E217F30709F05DC0AA24BB24CC24DD24DB
:100E700022C00894A11CB11CF301EC0DFD1D608182
:100E80007181F10173836283F201EC0DFD1D4081DC
:100E90005181F101518340838EE994E024E030E0F8
:100EA00004E010E0EE24EA94FE2C0E94311F22E0C0
:100EB00030E0C20ED31E86E090E0280E391EEF858A
:100EC000F889AE16BF06ACF204EE14E051E0E52E50
:100ED000F12C1BC0F8018281938104962091E004DB
:100EE0003091E1042817390759F42091DE0430913C
:100EF000DF04808191812817390711F40E94780F4F
:100F00000894E11CF11C0A5F1F4F29893A89E216F7
:100F1000F30604F383E090E09093E3048093E2040B
:100F200081C5ED81FE812D8D3E8D2E173F070CF082
:100F300079C58F819885EB85FC858E179F0709F011
:100F400071C5AA24BB24CC24DD2422C00894A11C92
:100F5000B11CF301EC0DFD1D60817181F101738302
:100F60006283F201EC0DFD1D40815181F10151833D
:100F700040838EE994E024E030E004E010E0EE24C9
:100F8000EA94FE2C0E94311F22E030E0C20ED31EF4
:100F900086E090E0280E391EEF85F889AE16BF0670
:100FA000ACF244EEC42E44E0D42E860131E0E32EB0
:100FB000F12C1BC08091E0049091E1040496F801AB
:100FC000228133818217930759F42091DE043091F6
:100FD000DF04808191812817390711F40E94780F6E
:100FE0000894E11CF11C0A5F1F4F29893A89E21617
:100FF000F30604F301E010E01CC0F601808191814A
:1010000004962091DE043091DF042817390759F443
:101010002091E0043091E1048281938128173907FF
:1010200011F40E94780F0F5F1F4F26E030E0C20ED0
:10103000D31E89899A8908171907FCF284E090E089
:101040009093E3048093E2048F859889880F991F19
:10105000680E791EF30160817181480E591EF201FC
:10106000408151818EE994E024E030E004E010E01A
:10107000EE24FF240E94311FD5C48230910509F06F
:1010800099C10EED202E04E0302ED10140E050E059
:1010900020E030E016C0F301E20FF31F12968D91AD
:1010A0009C91139791838083F201E20FF31F8D913E
:1010B0009C911197918380834F5F5F4F16962E5FAF
:1010C0003F4F89899A89481759072CF34091DE04CC
:1010D0005091DF044C5F5F4F5093DF044093DE0478
:1010E0006091E0047091E1048EE994E024E030E046
:1010F00004E010E0EE24EA94FE2C0E94311F1EED65
:10110000A12E14E0B12E88249924CC24DD2422C001
:101110000894811C911CF301EC0DFD1D608171810F
:10112000F50173836283F201EC0DFD1D4081518155
:10113000F501518340838EE994E024E030E004E03F
:1011400010E0EE24EA94FE2C0E94311F22E030E0F1
:10115000C20ED31E86E090E0A80EB91EEF85F88976
:101160008E169F06ACF2EE0FFF1FD301AE0FBF1F0E
:101170006D917C91E40DF51D408151818EE994E0E3
:1011800024E030E004E010E0EE24FF240E94311F50
:101190002D813E818B8D9C8D281739070CF082C0E4
:1011A000EF81F8852B853C85E217F30709F07AC0BB
:1011B000AA24BB24CC24DD2422C00894A11CB11C89
:1011C000F301EC0DFD1D60817181F1017383628378
:1011D000F201EC0DFD1D40815181F10151834083ED
:1011E0008EE994E024E030E004E010E0EE24EA949C
:1011F000FE2C0E94311F22E030E0C20ED31E86E09A
:1012000090E0280E391EEF85F889AE16BF06ACF2C5
:1012100004EE14E0A1E0EA2EF12C1BC0F80182815B
:10122000938104962091E0043091E1042817390756
:1012300059F42091DE043091DF04808191812817D8
:10124000390711F40E94780F0894E11CF11C0A5F21
:101250001F4F29893A89E216F30604F383E090E0F0
:101260009093E3048093E2048F859889880F991FF7
:10127000680E791EF30160817181480E591EF201DA
:10128000408151818EE994E024E030E004E010E0F8
:10129000EE24FF240E94311F04EE14E0E1E0EE2E64
:1012A000F12C82C02D813E818D8D9E8D82179307FA
:1012B0009CF7EF81F8852B853C85E217F30761F7F2
:1012C000AA24BB24CC24DD2422C00894A11CB11C78
:1012D000F301EC0DFD1D60817181F1017383628367
:1012E000F201EC0DFD1D40815181F10151834083DC
:1012F0008EE994E024E030E004E010E0EE24EA948B
:10130000FE2C0E94311F22E030E0C20ED31E86E088
:1013100090E0280E391EEF85F889AE16BF06ACF2B4
:1013200004EE14E071E0E72EF12C1BC08091E00484
:101330009091E1040496F80122813381821793078A
:1013400059F42091DE043091DF04808191812817C7
:10135000390711F40E94780F0894E11CF11C0A5F10
:101360001F4F29893A89E216F30604F384E090E0DE
:1013700077CF8091DE049091DF040496F8012081FC
:1013800031818217930759F42091E0043091E104F0
:10139000828193812817390711F40E94780F0894ED
:1013A000E11CF11C0A5F1F4F29893A89E216F306F6
:1013B00004F338C38330910509F099C16EED262EF0
:1013C00064E0362ED10140E050E020E030E016C06D
:1013D000F301E20FF31F12968D919C911397918365
:1013E0008083F201E20FF31F8D919C9111979183FD
:1013F00080834F5F5F4F16962E5F3F4F89899A8992
:10140000481759072CF36091E0047091E10464508F
:1014100070407093E1046093E0044091DE045091C9
:10142000DF048EE994E024E030E004E010E0EE24F4
:10143000EA94FE2C0E94311F5EEDA52E54E0B52EDD
:1014400088249924CC24DD2422C00894811C911C7A
:10145000F301EC0DFD1D60817181F50173836283E1
:10146000F201EC0DFD1D40815181F5015183408356
:101470008EE994E024E030E004E010E0EE24EA9409
:10148000FE2C0E94311F22E030E0C20ED31E86E007
:1014900090E0A80EB91EEF85F8898E169F06ACF273
:1014A000EE0FFF1FD301AE0FBF1F6D917C91E40DB6
:1014B000F51D408151818EE994E024E030E004E0A4
:1014C00010E0EE24FF240E94311F2F8138858F8980
:1014D000988D281739070CF082C0ED81FE8129858F
:1014E0003A85E217F30709F07AC0AA24BB24CC247A
:1014F000DD2422C00894A11CB11CF301EC0DFD1DDC
:1015000060817181F10173836283F201EC0DFD1D35
:1015100040815181F101518340838EE994E024E0C0
:1015200030E004E010E0EE24EA94FE2C0E94311F2B
:1015300022E030E0C20ED31E86E090E0280E391E75
:10154000EF85F889AE16BF06ACF204EE14E031E088
:10155000E32EF12C1BC0F80180819181049620912B
:10156000DE043091DF042817390759F42091E00494
:101570003091E104828193812817390711F40E9488
:10158000780F0894E11CF11C0A5F1F4F29893A89E2
:10159000E216F30604F381E090E09093E304809375
:1015A000E2048F859889880F991F680E791EF301D0
:1015B00060817181480E591EF201408151818EE98E
:1015C00094E024E030E004E010E0EE24FF240E94E8
:1015D000311F04EE14E091E0E92EF12C82C02F813E
:1015E0003885898D9A8D821793079CF7ED81FE814E
:1015F00029853A85E217F30761F7AA24BB24CC2496
:10160000DD2422C00894A11CB11CF301EC0DFD1DCA
:1016100060817181F10173836283F201EC0DFD1D24
:1016200040815181F101518340838EE994E024E0AF
:1016300030E004E010E0EE24EA94FE2C0E94311F1A
:1016400022E030E0C20ED31E86E090E0280E391E64
:10165000EF85F889AE16BF06ACF204EE14E081E027
:10166000E82EF12C1BC08091DE049091DF040496DB
:10167000F801208131818217930759F42091E00409
:101680003091E104828193812817390711F40E9477
:10169000780F0894E11CF11C0A5F1F4F29893A89D1
:1016A000E216F30604F382E090E077CFF80182813E
:1016B000938104962091E0043091E10428173907C2
:1016C00059F42091DE043091DF0480819181281744
:1016D000390711F40E94780F0894E11CF11C0A5F8D
:1016E0001F4F29893A89E216F30604F39BC1049738
:1016F00009F09EC10EED202E04E0302ED10140E015
:1017000050E020E030E016C0F301E20FF31F129624
:101710008D919C91139791838083F201E20FF31FC7
:101720008D919C911197918380834F5F5F4F1696A7
:101730002E5F3F4F89899A89481759072CF360918A
:10174000E0047091E1046C5F7F4F7093E10460935B
:10175000E0044091DE045091DF048EE994E024E03F
:1017600030E004E010E0EE24EA94FE2C0E94311FE9
:101770001EEDA12E14E0B12E88249924CC24DD2462
:1017800022C00894811C911CF301EC0DFD1D6081A9
:101790007181F50173836283F201EC0DFD1D4081BF
:1017A0005181F501518340838EE994E024E030E0DB
:1017B00004E010E0EE24EA94FE2C0E94311F22E0A7
:1017C00030E0C20ED31E86E090E0A80EB91EEF8571
:1017D000F8898E169F06ACF2EE0FFF1FD301AE0FF5
:1017E000BF1F6D917C91E40DF51D408151818EE903
:1017F00094E024E030E004E010E0EE24FF240E94B6
:10180000311F2F8138858F89988D281739070CF063
:1018100082C0ED81FE8129853A85E217F30709F040
:101820007AC0AA24BB24CC24DD2422C00894A11CA5
:10183000B11CF301EC0DFD1D60817181F101738319
:101840006283F201EC0DFD1D40815181F101518354
:1018500040838EE994E024E030E004E010E0EE24E0
:10186000EA94FE2C0E94311F22E030E0C20ED31E0B
:1018700086E090E0280E391EEF85F889AE16BF0687
:10188000ACF204EE14E0A1E0EA2EF12C1BC0F8014A
:101890008081918104962091DE043091DF04281725
:1018A000390759F42091E0043091E1048281938159
:1018B0002817390711F40E94780F0894E11CF11CD5
:1018C0000A5F1F4F29893A89E216F30604F381E083
:1018D00090E09093E3048093E2048F859889880FC9
:1018E000991F680E791EF30160817181480E591E9F
:1018F000F201408151818EE994E024E030E004E07F
:1019000010E0EE24FF240E94311F04EE14E0E1E019
:10191000EE2EF12C82C02F813885898D9A8D821709
:1019200093079CF7ED81FE8129853A85E217F3073D
:1019300061F7AA24BB24CC24DD2422C00894A11C76
:10194000B11CF301EC0DFD1D60817181F101738308
:101950006283F201EC0DFD1D40815181F101518343
:1019600040838EE994E024E030E004E010E0EE24CF
:10197000EA94FE2C0E94311F22E030E0C20ED31EFA
:1019800086E090E0280E391EEF85F889AE16BF0676
:10199000ACF204EE14E071E0E72EF12C1BC0809154
:1019A000DE049091DF040496F801208131818217D2
:1019B000930759F42091E0043091E10482819381EE
:1019C0002817390711F40E94780F0894E11CF11CC4
:1019D0000A5F1F4F29893A89E216F30604F382E071
:1019E00090E077CF8091E0049091E1040496F801B3
:1019F000228133818217930759F42091DE043091BC
:101A0000DF04808191812817390711F40E94780F33
:101A10000894E11CF11C0A5F1F4F29893A89E216DC
:101A2000F30604F364E170E080E090E00E94F312BA
:101A30008091E0049091E104E981FA81E817F907C7
:101A400049F58091DE049091DF042B813C812817B9
:101A5000390701F58D859E8506969E878D870E94A4
:101A60001B057C836B839A8389838091CA04909140
:101A7000CB0401969093CB048093CA04AA2797FDC8
:101A8000A095BA2F8093DA049093DB04A093DC0432
:101A9000B093DD048091E0049091E104009761F03F
:101AA0008038910549F08091DE049091DF04009721
:101AB00019F08039910551F50E94780F8D899E8922
:101AC0009C010FB6F8943EBF0FBE2DBFEB89FC8979
:101AD0000FB6F894FEBF0FBEEDBF6E960FB6F8942A
:101AE000DEBF0FBECDBFCF91DF911F910F91FF9051
:101AF000EF90DF90CF90BF90AF909F908F907F90AE
:101B00006F905F904F903F902F9008956091CA041E
:101B10007091CB046C597F4F88EC92E30E94FD21B9
:101B20008B01B801882777FD8095982F0E94F312CA
:101B300087E79EE16DED72E00E94491A87E79EE11A
:101B4000B8014AE050E00E94171A87E79EE164EE70
:101B500072E00E94491A6091CA047091CB0487E731
:101B60009EE14AE050E00E942A1A2D893E89C9016F
:101B70000FB6F8949EBF0FBE8DBF4EC8EF92FF9276
:101B80000F931F9387E79EE16BEE72E00E944C1A61
:101B90008EE994E060E070E040E050E020E830E062
:101BA00000EA10E0E5EEEE2EF12C0E94311F8EE9E6
:101BB00094E06AE070E04AE050E02CE630E002E2B7
:101BC00010E0EE24EA94FE2C0E94311F8EE994E08E
:101BD00064E170E040E150E00E944C1D8EE994E029
:101BE00061E178E80E94581D8EE994E063E00E946C
:101BF000521D8EE994E060E072E00E944C1A8EE97A
:101C000094E06DE170E043E350E00E944C1D8EE9EA
:101C100094E061E00E94521D8EE994E060E070EF74
:101C20000E94581D8EE994E061EF72E00E944C1A08
:101C30008EE994E060E270E04EE350E00E944C1DBB
:101C40008EE994E06EEF72E00E94491A8EE994E00A
:101C50006EE270E04AE550E028E230E00DE010E08E
:101C60000E94311F8EE994E061E00E94521D8EE9CE
:101C700094E061E178E80E94581D8EE994E064E305
:101C800070E04DE550E00E944C1D8EE994E06AE062
:101C900073E00E94491A8EE994E061E00E94521DAF
:101CA0008EE994E060EE77E00E94581D8EE994E0A2
:101CB00065E370E04DE750E00E944C1D8EE994E032
:101CC00060E173E00E944C1A8EE994E06BE070E0F2
:101CD0004AE850E00E944C1D8EE994E065E173E013
:101CE0000E944C1A8EE994E069E170E044E950E00A
:101CF0000E944C1D8EE994E068E273E00E944C1A49
:101D000001E010E0809158040E94941490939D0487
:101D100080939C04892BB1F710939D0400939C043D
:101D200087E79EE164E373E00E944C1A0E949905E4
:101D3000E9CFEF92FF920F931F9387E79EE163E451
:101D400073E00E944C1A81E090E090939D04809390
:101D50009C048EE994E060E070E040E050E020E810
:101D600030E000EA10E0EE24FF240E94311F8EE9EB
:101D700094E06BE070E040E150E00E944C1D8EE981
:101D800094E060EE77E00E94581D8EE994E062E0F6
:101D90000E94521D8EE994E06DE473E00E944C1A9B
:101DA0008EE994E06EE170E04DE350E00E944C1D3E
:101DB0008EE994E061E00E94521D8EE994E066E6AF
:101DC00077EF0E94581D8EE994E067E573E00E946A
:101DD000491A8EE994E060E370E048E450E00E9424
:101DE0004C1D8EE994E064E673E00E94491A8EE986
:101DF00094E06EE170E046E550E020E430E00AE176
:101E000010E0EE24EA94FE2C0E94311F8EE994E04B
:101E100064E270E049E550E00E944C1D8EE994E0D8
:101E20006FEF70E00E94581D8EE994E061E00E941F
:101E3000521D8EE994E06BE673E00E944C1A8EE925
:101E400094E06EE270E044E650E00E944C1D8EE9A2
:101E500094E066E773E00E944C1A8EE994E065E135
:101E600070E044E850E00E944C1D8EE994E063E08D
:101E700078EF0E94581D8EE994E061E00E94521DA7
:101E80008EE994E06DE773E00E944C1A8EE994E0CD
:101E900069E270E04FE850E00E944C1D8EE994E04A
:101EA00061E00E94521D8EE994E06DE873E00E94AB
:101EB0004C1A01E010E0809158040E949414909311
:101EC0009D0480939C04892BB1F764EF71E080E05E
:101ED00090E00E94F31210939D0400939C0487E706
:101EE0009EE166E973E00E944C1A0E94BE0DE3CFAA
:101EF000CF92DF92EF92FF920F931F93DF93CF93D6
:101F000000D00F92CDB7DEB787E79EE163E473E0C0
:101F10000E944C1A81E090E090939D0480939C0471
:101F20008EE994E060E070E040E050E020E830E0CE
:101F300000EA10E0EE24FF240E94311F8EE994E0B5
:101F40006BE070E040E150E00E944C1D8EE994E0AF
:101F500060EE77E00E94581D8EE994E062E00E94F6
:101F6000521D8EE994E06DE473E00E944C1A8EE9F4
:101F700094E06BE070E048E250E02AE630E00EE0EA
:101F800010E0EE24EA94FE2C0E94311F8EE994E0CA
:101F900064E170E04BE250E00E944C1D8EE994E059
:101FA00060E070EF0E94581D8EE994E061E00E94AD
:101FB000521D8EE994E061EA73E00E944C1A85E0BC
:101FC00090E0A0E0B0E089839A83AB83BC838EE984
:101FD00094E06BE070E04CE350E00E944C1D8EE911
:101FE00094E061E00E94521D8EE994E066E677EF8E
:101FF0000E94581D87E79EE160EB73E00E944C1A37
:102000008EE994E063EC73E00E944C1A8EE994E050
:102010006BE070E04FE350E00E944C1D8EE994E0CD
:1020200065ED73E00E944C1A8EE994E06BE070E07D
:102030004AE450E00E944C1D8EE994E068EE73E0A3
:102040000E94491A00E010E0C8010E94BF21F82E4A
:1020500090E00E94B921892B09F415C187E79EE120
:102060006F2D0E941419C8010E94BF21682F8EE9AC
:1020700094E00E9414190F5F1F4F80E10030180791
:1020800009F401C1E1CFC8010E94BF21F70181938A
:102090007F010F5F1F4FEC15FD05A9F749815A819C
:1020A0006B817C8187E79EE12AE030E00E94C319C2
:1020B00049815A816B817C818EE994E02AE030E08D
:1020C0000E94C3198EE994E06DEA72E00E944C1AF6
:1020D0008EE994E06BE070E04AE550E00E944C1D10
:1020E0008EE994E065ED73E00E94491A8EE994E070
:1020F0006BE070E048E650E00E944C1D8EE994E0F1
:1021000061E00E94521D8EE994E06FE770EF0E943B
:10211000581D8EE994E06FEE73E00E94491A87E73C
:102120009EE16FEE73E00E94491A8EE994E060ED43
:1021300074E00E944C1A87E79EE160ED74E00E9413
:102140004C1A8EE994E06BE070E044E750E00E94A6
:102150004C1D8EE994E06BEF73E00E94491A87E70B
:102160009EE16BEF73E00E94491A4091DA045091AE
:10217000DB046091DC047091DD048EE994E02AE0D8
:1021800030E00E94C3194091DA045091DB04609161
:10219000DC047091DD0487E79EE12AE030E00E94D4
:1021A000C3198EE994E06EE070E044E850E00E94CC
:1021B0004C1D8EE994E063E078EF0E94581D8EE993
:1021C00094E061E00E94521D8EE994E068E074E0C2
:1021D0000E94491A8EE994E06BE070E04CE850E010
:1021E0000E944C1D8EE994E063E078EF0E94581D38
:1021F0008EE994E061E00E94521D8EE994E068E16E
:1022000074E00E94491A8EE994E06BE070E045E9C1
:1022100050E00E944C1D8EE994E063E078EF0E944C
:10222000581D8EE994E061E00E94521D8EE994E011
:1022300069E274E00E94491A8EE994E06EE070E071
:1022400047E950E00E944C1D8EE994E068E074E09C
:102250000E94491A01E010E0809158040E949414F1
:1022600090939D0480939C04892BB1F764EF71E0F7
:1022700080E090E00E94F31210939D0400939C0470
:102280000E94990EE9CF87E79EE16AE374E00E941D
:10229000491A8EE994E06DEA72E00E944C1A8EE9C8
:1022A00094E06BE070E045E550E00E944C1D8EE943
:1022B00094E065ED72E00E94491A7E010894E11CE9
:1022C000F11C0AE010E0F5E0CF2ED12CCC0EDD1E83
:1022D000DACEEF92FF920F931F930E94C00487E71C
:1022E0009EE16BEE72E00E944C1A8EE994E060E091
:1022F00070E040E050E020E830E000EA10E0A5EEB9
:10230000EA2EF12C0E94311F8EE994E06AE070E021
:102310004AE050E02CE630E002E210E0EE24EA94DD
:10232000FE2C0E94311F8EE994E064E170E040E1F0
:1023300050E00E944C1D8EE994E061E178E80E9433
:10234000581D8EE994E063E00E94521D8EE994E0EE
:1023500060E072E00E944C1A8EE994E06DE170E05A
:1023600043E350E00E944C1D8EE994E061E00E943E
:10237000521D8EE994E060E070EF0E94581D8EE9D6
:1023800094E061EF72E00E944C1A8EE994E060E202
:1023900070E04EE350E00E944C1D8EE994E06EEF39
:1023A00072E00E94491A8EE994E06EE270E04AE51C
:1023B00050E028E230E00DE010E00E94311F8EE98D
:1023C00094E061E00E94521D8EE994E061E178E8BA
:1023D0000E94581D8EE994E064E370E04DE550E002
:1023E0000E944C1D8EE994E06AE073E00E94491A55
:1023F0008EE994E061E00E94521D8EE994E060EE67
:1024000077E00E94581D8EE994E065E370E04DE7A7
:1024100050E00E944C1D8EE994E060E173E00E9460
:102420004C1A8EE994E06BE070E04AE850E00E94BC
:102430004C1D8EE994E065E173E00E944C1A8EE930
:1024400094E064E170E044E950E00E944C1D8EE9A4
:1024500094E068E273E00E944C1A01E010E0809181
:1024600058040E94941490939D0480939C04892B9B
:10247000B1F710939D0400939C0487E79EE164E309
:1024800073E00E944C1A0E949905E9CF0F931F93A5
:102490000E944C1307E71EE1C80140E855E260E0E6
:1024A00070E00E94A0168091580460E00E94AE1374
:1024B0008091580461E00E9461148EE994E062E02A
:1024C0000E94BC20C8016CE374E00E94491A1F916D
:1024D0000F9108950E94461287E79EE16BE474E035
:1024E0000E944C1A0E94691180E090E00895382FF4
:1024F000863308F0365320917B00832F869586958E
:10250000869590E08170907043E0880F991F4A95FE
:10251000E1F7277F282B20937B00377080915A04A6
:102520008295880F880F807C832B80937C0080911C
:102530007A00806480937A0080917A0086FDFCCFD7
:102540002091780040917900942F80E030E0282B92
:10255000392BC90108951F920F920FB60F921124C3
:102560002F933F938F939F93AF93BF938091521C70
:102570009091531CA091541CB091551C3091561C45
:102580000196A11DB11D232F2D5F2D3720F02D5752
:102590000196A11DB11D2093561C8093521C90934F
:1025A000531CA093541CB093551C80914E1C9091C9
:1025B0004F1CA091501CB091511C0196A11DB11D42
:1025C00080934E1C90934F1CA093501CB093511CB1
:1025D000BF91AF919F918F913F912F910F900FBE1F
:1025E0000F901F9018959B01AC017FB7F8948091D4
:1025F0004E1C90914F1CA091501CB091511C66B57F
:10260000A89B05C06F3F19F00196A11DB11D7FBFAA
:10261000BA2FA92F982F8827860F911DA11DB11DB4
:1026200062E0880F991FAA1FBB1F6A95D1F7BC01F2
:102630002DC0FFB7F89480914E1C90914F1CA09133
:10264000501CB091511CE6B5A89B05C0EF3F19F096
:102650000196A11DB11DFFBFBA2FA92F982F882762
:102660008E0F911DA11DB11DE2E0880F991FAA1FB9
:10267000BB1FEA95D1F7861B970B885E9340C8F283
:10268000215030404040504068517C4F2115310569
:102690004105510571F60895789484B5826084BD32
:1026A00084B5816084BD85B5826085BD85B5816056
:1026B00085BDEEE6F0E0808181608083E1E8F0E0B6
:1026C0001082808182608083808181608083E0E8E5
:1026D000F0E0808181608083E1EBF0E080818460C4
:1026E0008083E0EBF0E0808181608083E1E9F0E0CD
:1026F000808182608083808181608083E0E9F0E076
:10270000808181608083E1EAF0E080818260808363
:10271000808181608083E0EAF0E080818160808355
:10272000E1E2F1E08081826080838081816080834A
:10273000E0E2F1E0808181608083EAE7F0E080817F
:1027400084608083808182608083808181608083D7
:102750008081806880831092C1000895CF93DF93B9
:10276000482F50E0CA0188589E4FFC0134914E5CBE
:102770005E4FFA018491882369F190E0880F991FD8
:10278000FC01EC51FF4FA591B491FC01E250FF4FC9
:10279000C591D491662351F42FB7F8948C91932F5F
:1027A000909589238C93888189230BC0623061F4D2
:1027B0002FB7F8948C91932F909589238C938881CF
:1027C000832B88832FBF06C09FB7F8948C91832BEF
:1027D0008C939FBFDF91CF910895893009F449C050
:1027E0008A30A0F4843051F1853040F4823079F1A0
:1027F000833000F5813009F063C026C0873079F15D
:10280000883098F5863009F05BC025C08D3009F41A
:1028100042C08E3028F48B30B1F18C30C0F52DC021
:10282000803109F442C0813109F445C08F3009F08C
:1028300047C037C0809180008F7703C080918000AF
:102840008F7D80938000089584B58F7702C084B512
:102850008F7D84BD08958091B0008F7703C08091F3
:10286000B0008F7D8093B0000895809190008F77A5
:1028700007C0809190008F7D03C080919000877F7A
:102880008093900008958091A0008F7707C0809179
:10289000A0008F7D03C08091A000877F8093A0005F
:1028A0000895809120018F7703C0809120018F7D52
:1028B00080932001089580912001877F80932001DB
:1028C0000895FF920F931F93F62E482F50E0CA01F0
:1028D00082549E4FFC012491CA0188589E4FFC01EE
:1028E00014914E5C5E4FFA0104910023C9F022233B
:1028F00019F0822F0E94ED13E02FF0E0EE0FFF1F82
:10290000E250FF4FA591B4919FB7F894FF2021F4B6
:102910008C911095812302C08C91812B8C939FBF49
:102920001F910F91FF9008950F931F93482F50E030
:10293000CA0182549E4FFC012491CA0188589E4FBF
:10294000FC0104914E5C5E4FFA011491112319F4BD
:1029500020E030E015C0222319F0822F0E94ED13F1
:10296000812F90E0880F991F885E9E4FFC01A591F2
:10297000B4918C9120E030E0802311F021E030E030
:10298000C9011F910F9108951F920F920FB60F92D8
:102990000BB60F9211242F933F934F938F939F93D6
:1029A000EF93FF934091C6002091971C3091981CA3
:1029B0002F5F3F4F2F7330708091991C90919A1C1C
:1029C0002817390759F0E091971CF091981CE95AA3
:1029D000F34E40833093981C2093971CFF91EF9106
:1029E0009F918F914F913F912F910F900BBE0F9020
:1029F0000FBE0F901F9018951F920F920FB60F9257
:102A00000BB60F9211242F933F934F938F939F9365
:102A1000EF93FF934091CE0020911F1D3091201D18
:102A20002F5F3F4F2F7330708091211D9091221D99
:102A30002817390759F0E0911F1DF091201DE15230
:102A4000F34E40833093201D20931F1DFF91EF9183
:102A50009F918F914F913F912F910F900BBE0F90AF
:102A60000FBE0F901F9018951F920F920FB60F92E6
:102A70000BB60F9211242F933F934F938F939F93F5
:102A8000EF93FF934091D6002091A71D3091A81D90
:102A90002F5F3F4F2F7330708091A91D9091AA1D19
:102AA0002817390759F0E091A71DF091A81DE959A1
:102AB000F24E40833093A81D2093A71DFF91EF9104
:102AC0009F918F914F913F912F910F900BBE0F903F
:102AD0000FBE0F901F9018951F920F920FB60F9276
:102AE0000BB60F9211242F933F934F938F939F9385
:102AF000EF93FF934091360120912F1E3091301EAD
:102B00002F5F3F4F2F7330708091311E9091321E96
:102B10002817390759F0E0912F1EF091301EE1512E
:102B2000F24E40833093301E20932F1EFF91EF9181
:102B30009F918F914F913F912F910F900BBE0F90CE
:102B40000FBE0F901F9018951F920F920FB60F9205
:102B50000BB60F9211242F933F938F939F93EF9374
:102B6000FF932091DB1C3091DC1C8091DD1C909147
:102B7000DE1C2817390731F48091C1008F7D8093C6
:102B8000C10014C0E091DD1CF091DE1CE556F34E4F
:102B900020818091DD1C9091DE1C01968F739070D6
:102BA0009093DE1C8093DD1C2093C600FF91EF9173
:102BB0009F918F913F912F910F900BBE0F900FBE61
:102BC0000F901F9018951F920F920FB60F920BB691
:102BD0000F9211242F933F938F939F93EF93FF9323
:102BE0002091631D3091641D8091651D9091661D3B
:102BF0002817390731F48091C9008F7D8093C9006F
:102C000014C0E091651DF091661DED5DF24E2081CE
:102C10008091651D9091661D01968F7390709093C1
:102C2000661D8093651D2093CE00FF91EF919F91CB
:102C30008F913F912F910F900BBE0F900FBE0F9071
:102C40001F9018951F920F920FB60F920BB60F920E
:102C500011242F933F938F939F93EF93FF93209192
:102C6000EB1D3091EC1D8091ED1D9091EE1D28170C
:102C7000390731F48091D1008F7D8093D10014C049
:102C8000E091ED1DF091EE1DE555F24E2081809111
:102C9000ED1D9091EE1D01968F7390709093EE1D37
:102CA0008093ED1D2093D600FF91EF919F918F911E
:102CB0003F912F910F900BBE0F900FBE0F901F9062
:102CC00018951F920F920FB60F920BB60F92112408
:102CD0002F933F938F939F93EF93FF932091731EB6
:102CE0003091741E8091751E9091761E28173907B9
:102CF00031F4809131018F7D8093310114C0E091D6
:102D0000751EF091761EED5CF14E20818091751E4E
:102D10009091761E01968F7390709093761E80939B
:102D2000751E20933601FF91EF919F918F913F91F6
:102D30002F910F900BBE0F900FBE0F901F90189504
:102D4000AF92BF92DF92EF92FF920F931F93CF93B8
:102D5000DF93EC017A018B01DD24403081EE5807CE
:102D600080E0680780E0780711F0DD24D39491E0DB
:102D7000A92EB12CEC89FD89DD2069F0C5010E8CEE
:102D800002C0880F991F0A94E2F7808360E079E01F
:102D90008DE390E005C0108260E874E88EE190E079
:102DA000A80197010E94102221503040404050401D
:102DB000569547953795279580E12030380720F0C4
:102DC000DD2011F0DD24D6CFE889F9893083EA8946
:102DD000FB892083EE89FF89408121E030E0C90131
:102DE0000A8C02C0880F991F0A94E2F7482B40838F
:102DF000EE89FF894081C9010B8C02C0880F991FA1
:102E00000A94E2F7482B4083EE89FF894081C9018B
:102E10000C8C02C0880F991F0A94E2F7482B40835C
:102E2000EE89FF8980810D8C02C0220F331F0A9426
:102E3000E2F7209528232083DF91CF911F910F91F6
:102E4000FF90EF90DF90BF90AF900895DC011C964B
:102E5000ED91FC911D97E05CFF4F219131918081B4
:102E60009181281B390B2F733070C9010895DC0143
:102E70001C96ED91FC911D97E05CFF4F2081318104
:102E8000E054F040DF01AE5BBF4F8D919C911197F4
:102E90002817390719F42FEF3FEF07C08D919C9148
:102EA000E80FF91F8081282F30E0C9010895DC0167
:102EB0001C96ED91FC911D97E05CFF4F20813181C4
:102EC000E054F040DF01AE5BBF4F8D919C911197B4
:102ED0002817390719F42FEF3FEF10C08D919C91FF
:102EE0001197E80FF91F20818D919C911197019600
:102EF0008F73907011969C938E9330E0C901089562
:102F0000FC0186859785DC01A05CBF4FFC01EE5B70
:102F1000FF4F2D913C91119780819181281739079E
:102F2000C1F70895CF93DF93EC01EE85FF85E05C58
:102F3000FF4F20813181E054F0402F5F3F4F2F73CE
:102F40003070DF01AE5BBF4F8D919C9111972817B8
:102F50003907D1F3E05CFF4F80819181E054F0406C
:102F6000E80FF91F6083EE85FF85E05CFF4F31833A
:102F70002083EE89FF89208181E090E00D8C02C0E2
:102F8000880F991F0A94E2F7282B208381E090E0B4
:102F9000DF91CF9108951F9310927A1E1092791E9F
:102FA00028EE33E040E050E020937B1E30937C1EFF
:102FB00040937D1E50937E1E6FE574E07093781EE3
:102FC0006093771E87E59CE19093841E8093831E17
:102FD0008BE99CE19093861E8093851E85EC90E0A2
:102FE0009093881E8093871E84EC90E090938A1EB5
:102FF0008093891E80EC90E090938C1E80938B1EB2
:1030000081EC90E090938E1E80938D1E86EC90E074
:103010009093901E80938F1E14E01093911EB3E046
:10302000B093921EA7E0A093931EF5E0F093941E38
:10303000E1E0E093951E1092991E1092981E209345
:103040009A1E30939B1E40939C1E50939D1E70931E
:10305000971E6093961E8FED9CE19093A31E809324
:10306000A21E83E29DE19093A51E8093A41E8DEC89
:1030700090E09093A71E8093A61E8CEC90E0909316
:10308000A91E8093A81E88EC90E09093AB1E8093BD
:10309000AA1E89EC90E09093AD1E8093AC1E8EEC3E
:1030A00090E09093AF1E8093AE1E1093B01EB0932D
:1030B000B11EA093B21EF093B31EE093B41E109203
:1030C000B81E1092B71E2093B91E3093BA1E4093BB
:1030D000BB1E5093BC1E7093B61E6093B51E87E650
:1030E0009DE19093C21E8093C11E8BEA9DE1909357
:1030F000C41E8093C31E85ED90E09093C61E8093FE
:10310000C51E84ED90E09093C81E8093C71E80ED8D
:1031100090E09093CA1E8093C91E81ED90E0909339
:10312000CC1E8093CB1E86ED90E09093CE1E8093B4
:10313000CD1E1093CF1EB093D01EA093D11EF0933E
:10314000D21EE093D31E1092D71E1092D61E20934B
:10315000D81E3093D91E4093DA1E5093DB1E709315
:10316000D51E6093D41E8FEE9DE19093E11E809357
:10317000E01E83E39EE19093E31E8093E21E85E3CD
:1031800091E09093E51E8093E41E84E391E0909398
:10319000E71E8093E61E80E391E09093E91E809302
:1031A000E81E81E391E09093EB1E8093EA1E86E394
:1031B00091E09093ED1E8093EC1E1093EE1EB09361
:1031C000EF1EA093F01EF093F11EE093F21E1F91EC
:1031D00008950895CF92DF92EF92FF920F931F937D
:1031E000CF93DF937C016B018A01C0E0D0E00FC078
:1031F000D6016D916D01D701ED91FC910190F081A7
:10320000E02DC7011995C80FD91F015010400115B5
:10321000110571F7CE01DF91CF911F910F91FF90B2
:10322000EF90DF90CF900895DC01ED91FC9101903B
:10323000F081E02D19950895EF92FF920F931F935F
:103240008C01DC01ED91FC910190F081E02D6DE0AD
:1032500019957C01D801ED91FC910190F081E02D50
:10326000C8016AE019959C012E0D3F1DC9011F91EF
:103270000F91FF90EF900895CF93DF93DB010D90B6
:103280000020E9F71197A61BB70BEC01E881F98143
:103290000280F381E02DAD011995DF91CF91089562
:1032A0004F925F927F928F929F92AF92BF92CF92F6
:1032B000DF92EF92FF920F931F93DF93CF93CDB7DF
:1032C000DEB7A1970FB6F894DEBF0FBECDBF2C01BD
:1032D000742ECB01223008F42AE019A231E2C32E69
:1032E000D12CCC0EDD1E822E9924AA24BB24672D5E
:1032F000752FA50194010E94102279018A01C8014D
:10330000B701A50194010E94CA21472D461B0894CC
:10331000C108D1084A3014F4405D01C0495CF6018F
:103320004083E114F1040105110521F07E2C5F2D8D
:10333000C801DDCFC201B6010E943C19A1960FB6AB
:10334000F894DEBF0FBECDBFCF91DF911F910F91DB
:10335000FF90EF90DF90CF90BF90AF909F908F90B5
:103360007F905F904F900895DC012115310541F465
:10337000ED91FC910190F081E02D642F1995089555
:103380000E9450190895EF92FF920F931F937C01B2
:103390000E94B4198C01C7010E941C199C01200FC6
:1033A000311FC9011F910F91FF90EF900895CF92A7
:1033B000DF92EF92FF920F931F93CF93DF93EC0175
:1033C0006A017B012115310541F4E881F981019001
:1033D000F081E02D642F19951FC02A303105D1F4FA
:1033E00077FF17C0E881F9810190F081E02D6DE24F
:1033F00019958C0144275527BA014C195D096E09AE
:103400007F09CE012AE00E9450199801280F391F28
:1034100004C02AE00E9450199C01C901DF91CF919C
:103420001F910F91FF90EF90DF90CF900895EF9252
:10343000FF920F931F937B019A010027F7FC0095E1
:10344000102FB801A7010E94D7191F910F91FF906B
:10345000EF900895CF92DF92EF92FF920F931F9318
:103460006C017B019A010027F7FC0095102FB80131
:10347000A7010E94D7198C01C6010E941C19080FD0
:10348000191FC8011F910F91FF90EF90DF90CF900F
:1034900008950E943C190895EF92FF920F931F9395
:1034A0007C010E943C198C01C7010E941C19080F65
:1034B000191FC8011F910F91FF90EF900895FC0113
:1034C000138212828FE694E09183808375836483F4
:1034D000578346837187608753874287158A15868D
:1034E00014861786168621E0248B8FEF9FEF938B2F
:1034F000828B918B808B268B08952F923F924F92D7
:103500005F926F927F928F929F92AF92BF92CF9273
:10351000DF92EF92FF920F931F93DF93CF9300D030
:103520000F92CDB7DEB73C017C836B836A015901F2
:10353000FA82E982222433249801241B350B37FFB9
:1035400003C0309521953F4FC5014B815C81841BA1
:10355000950B97FF03C0909581959F4F8217930716
:103560005CF481E0282E312CC601CB80DC809C836A
:103570008B83C80185015C018B819C81A816B906EB
:1035800044F4C501AB80BC809C838B83C801860159
:103590006C012501AB81BC814A1A5B0A7801EC18E9
:1035A000FD08F7FE04C0F094E194F108F394C0160E
:1035B000D10624F088248A94982C03C0B1E08B2E85
:1035C000912CC20162E070E00E94FD218B0125C0B8
:1035D000D301ED91FC912114310441F00480F58177
:1035E000E02DC301B6014B815C8107C00480F581E9
:1035F000E02DC3016B817C81A60129813A81199557
:103600000E191F0917FF04C0C80CD91C040D151D85
:10361000EB81FC813196FC83EB834B815C81A416AA
:10362000B506B4F60F900F900F900F90CF91DF91E9
:103630001F910F91FF90EF90DF90CF90BF90AF90D0
:103640009F908F907F906F905F904F903F902F90C2
:1036500008954F925F926F927F928F929F92AF9256
:10366000BF92CF92DF92EF92FF920F931F936C0164
:103670005B014A0139012801DC01ED91FC910284D2
:10368000F385E02D87011995D601ED91FC91A401F8
:1036900041505040440D551D0284F385E02DC60174
:1036A000B50193011995D601ED91FC910084F18546
:1036B000E02DC601B501A40192011995D601ED9145
:1036C000FC910894A108B108A60CB71C0084F185F0
:1036D000E02DC601B501A401920119951F910F912A
:1036E000FF90EF90DF90CF90BF90AF909F908F9022
:1036F0007F906F905F904F900895CF92DF92EF92FE
:10370000FF920F931F93DC016B017801ED91FC9107
:103710008A0101501040020F131F0680F781E02D2F
:10372000960119951F910F91FF90EF90DF90CF9028
:103730000895CF92DF92EF92FF920F931F93DC01D7
:103740006A01C9017801ED91FC9111979B0121500B
:103750003040280F391F0680F781E02DCD0186010A
:1037600019951F910F91FF90EF90DF90CF900895E2
:103770006F927F928F929F92AF92BF92CF92DF9281
:10378000EF92FF920F931F93CF93DF935C013A0167
:1037900069014801EB01C60ED71E0DC0D501ED91A0
:1037A000FC910084F185E02DC501BE01A3019401C7
:1037B000870119952196CC15DD0584F3DF91CF9112
:1037C0001F910F91FF90EF90DF90CF90BF90AF903F
:1037D0009F908F907F906F900895EF92FF920F933C
:1037E0001F93FC017B01A081B18120853185028579
:1037F00013851E960D90BC91A02D60E070E040E016
:1038000050E0FD0119951F910F91FF90EF900895E1
:103810002F923F924F925F926F927F928F929F92E0
:10382000AF92BF92CF92DF92EF92FF920F931F93CE
:10383000DF93CF93CDB7DEB72F970FB6F894DEBFE7
:103840000FBECDBF5C015E834D8318870F83FA8660
:10385000E986CB86DC0118968D919C9119976817A3
:1038600079070CF0A4C01A968D919C911B9748176C
:1038700059070CF09CC0EC2DF0E0FF87EE87CF01DC
:10388000880F991F8E0F9F1F880F991F860F971FF4
:10389000181619060CF08BC0CF01F3E0880F991FA2
:1038A000FA95E1F7840F951F181619060CF07FC0E2
:1038B00085E0289FA00111245A8349832B011B0115
:1038C0001C825C81553011F480E005C0E981FA81E9
:1038D000EC5FFD4F84912C863D866D807E80430198
:1038E0001B82C82EDD2480FF1CC0D501ED91FC9108
:1038F000BB85B13049F40480F581E02DC501B201EA
:10390000A3012F81388522C00684F785E02DC501EB
:103910006C857D85A4012E853F858901EF80F88423
:1039200023C0E985FA852F813885E217F307E9F08E
:10393000D501ED91FC91BB85B13051F40480F58146
:10394000E02DC501B201A30129853A8519950DC065
:103950000684F785E02DC5016C857D85A4012E8543
:103960003F858901E984FA841995EB81EF5FEB8348
:103970002E853F85820E931E0894611C711CE830D1
:1039800021F0D594C7948C2DACCF3C813F5F3C8314
:103990004E855F85240E351E0894411C511C89817B
:1039A0009A8101969A838983363009F08ACF2F96BF
:1039B0000FB6F894DEBF0FBECDBFCF91DF911F9140
:1039C0000F91FF90EF90DF90CF90BF90AF909F90BE
:1039D0008F907F906F905F904F903F902F900895C1
:1039E000CF92EF92FF920F931F93CF93DF93EC014F
:1039F000262F6A3061F42C8930E003E0220F331F58
:103A00000A95E1F78E859F85820F931F37C06D3031
:103A1000C9F16C857D854E855F8508891989EA889D
:103A2000FB88CC880E94081C2C8986E0289FB00166
:103A300011248C859D85680F791F7D876C878E8901
:103A4000882301F1422F50E08AEF9FEF9C01429FB3
:103A5000C001439F900D529F900D112428853985F8
:103A6000820F931F861797076CF413E0440F551FBE
:103A70001A95E1F78E859F85840F951F9F878E8706
:103A80001D861C8681E090E0DF91CF911F910F9100
:103A9000FF90EF90CF900895FC017587648757875A
:103AA00046870895FC01662309F461E0648B08955C
:103AB000FC01738B628B718B608B08950895DC0120
:103AC00058968C915897882329F06EBD0DB407FE47
:103AD000FDCF089530E840E050E070E0832F90E0A3
:103AE000862397235996ED91FC915A9796962C919F
:103AF0009697892B21F08081822B808304C080815E
:103B00002095282320835B96ED91FC915C97808122
:103B100097969C919797892B80835B96ED91FC916A
:103B20005C97908197968C91979780958923808355
:103B300036954F5F5F4F4830510581F608950F93DA
:103B40001F938C01DC015F96ED91FC919097908121
:103B500099968C9199978095892380835D96ED91B4
:103B6000FC915E97908198968C91809589238083B3
:103B7000C8010E945F1DD8015D96ED91FC915E9792
:103B8000808198969C91892B80831F910F91089535
:103B90000F931F938C01DC015F96ED91FC91909740
:103BA000808199969C919997892B80835D96ED9160
:103BB000FC915E97908198968C9180958923808363
:103BC000C8010E945F1DD8015D96ED91FC915E9742
:103BD000808198969C91892B80831F910F910895E5
:103BE000CF92DF92EF92FF920F931F937C01162FDB
:103BF000C42ED22E6AE20E949F1DC70160E00E947F
:103C0000C81DF70162A5610FC7010E94C81DC70149
:103C100060E00E94C81DF70162A56D0DC7010E94FA
:103C2000C81DC7016BE20E949F1DC70160E00E9492
:103C3000C81DF70163A56C0DC7010E94C81DC7010F
:103C400060E00E94C81DF70163A5600FC7010E94D4
:103C5000C81DC7016CE20E949F1D1F910F91FF902C
:103C6000EF90DF90CF900895FF920F931F93CF9323
:103C7000DF93EC01F22E132F77FD2EC088859985F6
:103C8000681779074CF557FD27C08A859B8548172B
:103C9000590714F5262F2F5F042F0F5FCE010E94C6
:103CA000F01DEF8DF8A1808199A5892B8083ED8D82
:103CB000FE8D908188A5809589238083CE01612F18
:103CC0000E945F1DCE016F2D0E945F1DED8DFE8D48
:103CD000808198A5892B8083DF91CF911F910F91CF
:103CE000FF900895DF92EF92FF920F931F93CF936F
:103CF000DF93EC01FB017901D02E88859985681747
:103D00007907D4F52A853B8542175307ACF5C701DF
:103D1000840F951F281739071CF47901E41AF50A56
:103D2000042F01500E0DCE016E2F2E2F0E94F01D7C
:103D3000EF8DF8A1808199A5892B8083ED8DFE8D73
:103D4000908188A580958923808308C0CE01612F4A
:103D50000E945F1DCE016D2D0E945F1D0894E10839
:103D6000F1088FEFE8168FEFF80681F7ED8DFE8DE5
:103D7000808198A5892B8083DF91CF911F910F912E
:103D8000FF90EF90DF900895DF92EF92FF920F93F4
:103D90001F93CF93DF93EC01FA017901D02E288590
:103DA000398562177307D4F58A859B8548175907AB
:103DB000ACF5C701860F971F281739071CF4790146
:103DC000E61AF70A262F21502E0DCE014E2F0E2F68
:103DD0000E94F01DEF8DF8A1808199A5892B808329
:103DE000ED8DFE8D908188A580958923808308C004
:103DF000CE01612F0E945F1DCE016D2D0E945F1DBF
:103E00000894E108F1088FEFE8168FEFF80681F7C4
:103E1000ED8DFE8D808198A5892B8083DF91CF91D8
:103E20001F910F91FF90EF90DF900895EF92FF9216
:103E30000F931F93FC017B01A081B1812085318507
:103E4000028513851E960D90BC91A02D60E070E058
:103E500040E050E0FD0119951F910F91FF90EF9008
:103E60000895AF92BF92CF92DF92EF92FF920F939D
:103E70001F93CF93DF936C015901E801DC01189681
:103E80002D913C911997621773070CF057C01A9641
:103E9000ED91FC911B974E175F070CF04FC0C501C9
:103EA000860F971F281739071CF45901A61AB70A5D
:103EB000CE01840F951FE817F9071CF4EF01C41B0E
:103EC000D50B262F21502A0D042F01500C0FC601AF
:103ED0000E94F01DD6015F96ED91FC919097808134
:103EE00099969C919997892B80835D96ED91FC9191
:103EF0005E97908198968C918095892380838E011E
:103F00000EC0C6016F2D0E945F1DC6016E2D0E945E
:103F10005F1D21971C161D06A4F3015010401016BA
:103F2000110614F4E501F6CFD6015D96ED91FC91F2
:103F30005E97808198969C91892B8083DF91CF91A9
:103F40001F910F91FF90EF90DF90CF90BF90AF90B7
:103F50000895662311F460E201C061E20E949F1D92
:103F60000895AF92BF92CF92DF92EF92FF920F939C
:103F70001F93CF93DF935C01FB01EB012196D4905B
:103F800031C08E010F5F1F4FFE016491C5010E9479
:103F90009F1D78010894E11CF11CF801C4900C2DC0
:103FA0000F77E701102F08C0FE012196E491C501AB
:103FB0006E2F0E94C81D11501123B1F7E701C00FE9
:103FC000D11DC7FE0EC0FE018491682F70E06F3FC7
:103FD000710511F464EF71E0219680E090E00E9499
:103FE000F312DA94DD2069F6DF91CF911F910F91E2
:103FF000FF90EF90DF90CF90BF90AF9008950F9318
:104000001F93CF93DF93EC018B011BA61AA68AA105
:1040100061E00E94AE1389A161E00E94AE13E9A1A4
:104020004E2F50E0FA01EE5CFE4FE491F0E0EE0F0F
:10403000FF1FE250FF4F859194919E8F8D8FEAA1D3
:104040002E2F30E0F901EE5CFE4FE491F0E0EE0F30
:10405000FF1FE250FF4F8591949198A38F8F48588E
:104060005E4FFA01849188A728583E4FF901849148
:1040700089A7888D882361F00E942A2180E00E9410
:10408000192181E00E940B2180E00E9414213DC093
:104090008DA161E00E94AE138CA161E00E94AE137D
:1040A000EDA14E2F50E0FA01EE5CFE4FE491F0E0FE
:1040B000EE0FFF1FE250FF4FA591B491BC8FAB8F65
:1040C000ECA12E2F30E0F901EE5CFE4FE491F0E020
:1040D000EE0FFF1FE250FF4F859194919A8F898FC9
:1040E00048585E4FFA0194919FA328583E4FF9011A
:1040F00084918EA38C91909598239C93E98DFA8D51
:1041000090818EA1809589238083ED8DFE8D908195
:1041100088A58095892380838BA1882309F161E09C
:104120000E94AE138BA161E00E94611464EF71E004
:1041300080E090E00E94F3128BA160E00E94611485
:1041400064EF71E080E090E00E94F3128BA161E0E7
:104150000E94611464EF71E080E090E00E94F3122D
:104160000115110521F0CE01B8010E94B11FDF91A8
:10417000CF911F910F9108951F93CF93DF93EC017F
:10418000162F6FEF76E00E94FF1F112351F4CE012E
:104190006AE377E00E94B11F82E08AA781E08BA7E3
:1041A00005C0CE0167E477E00E94B11FCE0164E54F
:1041B00077E00E94B11F123041F4CE0166E30E9405
:1041C0009F1DCE0160EC0E94C81D1F8BDF91CF9117
:1041D0001F910895DF92EF92FF920F931F938C012E
:1041E000F62EE42ED22E60E870E040EA50E00E9405
:1041F0005F1A87E894E0F80191838083F1A2E2A23C
:10420000D3A281E0808F15A214A21F910F91FF907D
:10421000EF90DF900895882319F48CB5806202C076
:104220008CB58F7D8CBD08959CB5937F982B9CBDDC
:1042300008952CB5382F33702C7F322B3CBD2DB513
:1042400090E0959587959595879581702E7F822B27
:104250008DBD089584E361E00E94AE1383E361E0C5
:104260000E94AE1385E361E00E94AE1384E360E038
:104270000E94611483E360E00E94611485E361E0C1
:104280000E9461148CB580618CBD8CB580648CBD3E
:104290000895AF92BF92CF92DF92EF92FF920F9369
:1042A0001F93CF93DF93EC01A880B980CA80DB8095
:1042B000A114B104C104D10441F484E2A82E89ED13
:1042C000B82E8BE5C82E87E0D82EC601B5012DE1AA
:1042D00033EF41E050E00E94322227EA31E440E02F
:1042E00050E00E94CA217B018C01C601B5012DE17D
:1042F00033EF41E050E00E943222CA01B9012CEEB6
:1043000034EF4FEF5FEF0E94CA216E0D7F1D801FBB
:10431000911F97FF04C061507040804090486883AF
:1043200079838A839B839B013F77C901DF91CF917A
:104330001F910F91FF90EF90DF90CF90BF90AF90C3
:1043400008950E944921089584E594E00E9449213E
:104350000895A0E0B0E08093540490935504A09396
:104360005604B09357040895F8940C945322803265
:1043700009F091110CC080528F55E0F70895F9991A
:10438000FECF92BD81BDF89A992780B508959927EF
:1043900088270895629FD001739FF001829FE00DEE
:1043A000F11D649FE00DF11D929FF00D839FF00DB4
:1043B000749FF00D659FF00D9927729FB00DE11D60
:1043C000F91F639FB00DE11DF91FBD01CF0111243D
:1043D0000895AA1BBB1B51E107C0AA1FBB1FA6174C
:1043E000B70710F0A61BB70B881F991F5A95A9F79E
:1043F00080959095BC01CD01089597FB092E072665
:104400000AD077FD04D0E5DF06D000201AF47095BD
:1044100061957F4F0895F6F7909581959F4F089588
:10442000A1E21A2EAA1BBB1BFD010DC0AA1FBB1FB8
:10443000EE1FFF1FA217B307E407F50720F0A21B2A
:10444000B30BE40BF50B661F771F881F991F1A9497
:1044500069F760957095809590959B01AC01BD01C1
:10446000CF01089597FB092E05260ED057FD04D0E5
:10447000D7DF0AD0001C38F450954095309521952F
:104480003F4F4F4F5F4F0895F6F790958095709589
:1044900061957F4F8F4F9F4F0895EE0FFF1F05903F
:0A44A000F491E02D1994F894FFCF79
:1044AA00536E616B6500506C6561736520496E706F
:1044BA00757420596F7572004E616D65206F6E209C
:1044CA000053657269616C204D6F6E69746F72007A
:1044DA00496E707574205072696E7461626C6520E1
:1044EA004368617261637465727320617320596FE6
:1044FA007572204E616D65004E616D652057696C5D
:10450A006C2062652053746F726564205768656E0B
:10451A0020556E7072696E7461626C6520436861C1
:10452A00726163746572732041726520507265739B
:10453A0073656400596F7572204E616D653A20008B
:10454A00596F7572206E616D6520697300004E6146
:10455A006D652053746F7265642C20476F20626109
:10456A00636B20746F2053746172742074686520C1
:10457A0047616D650053636F72653A200064656C2C
:10458A006179200073636F72653A007374617274A3
:10459A0000505245535320425554544F4E00544FE5
:1045AA0020434F4E54494E554500535441525400EE
:1045BA003230313600436F7079726967687440200F
:1045CA0057656E6368656E00616E64205169756631
:1045DA00656E670063616C6C206D61696E2067614E
:1045EA006D650067616D65206F7665720047414DA4
:1045FA0045204F5645520057616E7420546F205023
:10460A006C617900416761696E3F0050726573732E
:10461A00207468652000627574746F6E005072654C
:10462A00737320627574746F6E20746F00436F6EBB
:10463A0074696E75650063616C6C20737461727461
:10464A000048494748455354205245434F52440075
:10465A0054686520486967686573742073636F726C
:10466A00653A005468652048696768657374207301
:10467A00636F7265005F5F5F5F5F5F5F5F5F5F5F72
:10468A005F5F5F5F5F5F5F004E616D653A20005953
:10469A006F7572206E616D653A2000596F757220D0
:1046AA0073636F72653A20005F5F5F5F5F5F5F5F92
:1046BA005F5F5F5F5F5F5F007C205072657373208E
:1046CA00627574746F6E207C007C20746F20436F57
:1046DA006E74696E756520207C00200073657420F5
:1046EA00757020697320676F6F6400696E74206D3E
:1046FA0061696E00010000000900010000000092DB
:10470A0017EA18261757173717801700000000F006
:10471A001CEA18E9187D1A7D1B991B291BB81BED89
:10472A001B5E1D00000000F01CEA18341E7D1A7280
:0C473A001EC41E291B311F161FA91F00E2
:00000001FF
