:100000000C94FE030C942A040C942A040C942A04E5
:100010000C942A040C942A040C942A040C942A04A8
:100020000C942A040C942A040C942A040C942A0498
:100030000C942A040C942A040C942A040C942A0488
:100040000C942A040C942A040C942A040C942A0478
:100050000C942A040C942A040C942A040C94580836
:100060000C942A040C947F0A0C945F0B0C942A04C1
:100070000C942A040C942A040C942A040C942A0448
:100080000C942A040C942A040C942A040C942A0438
:100090000C94B70A0C949E0B0C942A040C942A041A
:1000A0000C942A040C942A040C942A040C942A0418
:1000B0000C942A040C942A040C942A040C942A0408
:1000C0000C942A040C942A040C942A040C94EF0A2D
:1000D0000C94DD0B0C942A040C94270B0C941C0C30
:1000E0000C942A0400002100240027002A002D007F
:1000F0003000330001010000040107010A01000083
:100100002200250028002B002E00310034000201BF
:100110000000050108010B0100002000230026005B
:1001200029002C002F00320000010000030106010D
:10013000090105050505070508080808020202026D
:100140000A0A080804040404010101010101010173
:100150000303030303030303040707070C0C0C0C3E
:100160000C0C0C0C02020202060606060606060627
:100170000B0B0B0B0B0B0B0B0102102020080810B4
:100180002040102040800201020108040201010207
:1001900004081020408080402010080402018004E0
:1001A000020180402010080402010804020101023B
:1001B0000408102040800102040810204080000044
:1001C000090A02080B0C0D070603040100000000D9
:1001D000000000000000000000000000000000001F
:1001E0000000000000000000000011100F000000DF
:1001F00000000000000000000000000000000000FF
:10020000000000000F0180961180FFB103012C2D2A
:10021000B203012C2DB306012C2D012C2DB40107A6
:10022000C003A20284C101C5C2020A00C3028A2A15
:10023000C4028AEEC5010E20003601C83A0105024B
:100240002A04000200812B04000100A0022A0400FD
:1002500000007F2B040000009F04E010021C071226
:100260003732292D29252B3900010310E110031DF8
:1002700007062E2C292D2E2E373F0000021013804A
:100280000A298064120180321180FF3A81050AB187
:10029000830006030A360108B6021502B40100C045
:1002A0008202700AC10105C2020102C5823C380AFD
:1002B000FC021115E01009160920211B131917154E
:1002C0001E2B0405020EE1900B14081E221D181EA1
:1002D0001B1A242B0606020F0A2A04000200812B97
:1002E000040002008113800A2980FF7C3C3E5E2BC3
:1002F0003D3F2F5B5D3B2C2A225C0000000000008C
:100300003E5B4F5B3E3E6B4F6B3E1C3E7C3E1C1883
:100310003C7E3C181C577D571C1C5E7F5E1C0018E1
:100320003C1800FFE7C3E7FF0018241800FFE7DBD5
:10033000E7FF30483A060E2629792926407F050531
:1003400007407F05253F5A3CE73C5A7F3E1C1C086E
:10035000081C1C3E7F14227F22145F5F005F5F0633
:10036000097F017F006689956A606060606094A281
:10037000FFA29408047E040810207E201008082A9A
:100380001C08081C2A08081E101010100C1E0C1E39
:100390000C30383E3830060E3E0E060000000000DD
:1003A00000005F00000007000700147F147F142482
:1003B0002A7F2A1223130864623649562050000807
:1003C000070300001C2241000041221C002A1C7F60
:1003D0001C2A08083E080800807030000808080839
:1003E00008000060600020100804023E5149453EAC
:1003F00000427F400072494949462141494D331826
:1004000014127F1027454545393C4A49493141215D
:100410001109073649494936464949291E00001441
:100420000000004034000000081422411414141489
:1004300014004122140802015909063E415D594E3B
:100440007C1211127C7F494949363E414141227F4D
:100450004141413E7F494949417F090909013E41E6
:100460004151737F0808087F00417F4100204041CF
:100470003F017F081422417F404040407F021C0220
:100480007F7F0408107F3E4141413E7F09090906F4
:100490003E4151215E7F09192946264949493203C7
:1004A000017F01033F4040403F1F2040201F3F404D
:1004B00038403F6314081463030478040361594906
:1004C0004D43007F41414102040810200041414159
:1004D0007F0402010204404040404000030708003E
:1004E00020545478407F28444438384444442838C1
:1004F0004444287F385454541800087E090218A434
:10050000A49C787F0804047800447D40002040408B
:100510003D007F1028440000417F40007C047804A7
:10052000787C080404783844444438FC182424189F
:1005300018242418FC7C0804040848545454240447
:10054000043F44243C4040207C1C2040201C3C4074
:1005500030403C44281028444C9090907C44645493
:100560004C44000836410000007700000041360886
:100570000002010204023C2623263C1EA1A16112B6
:100580003A4040207A3854545559215555794121E3
:1005900054547841215554784020545579400C1ECC
:1005A0005272123955555559395454545939555474
:1005B00054580000457C410002457D420001457CC5
:1005C00040F0292429F0F0282528F07C54554500D6
:1005D0002054547C547C0A097F49324949493232BB
:1005E00048484832324A4848303A4141217A3A42F2
:1005F000402078009DA0A07D39444444393D4040CE
:10060000403D3C24FF2424487E4943662B2FFC2F89
:100610002BFF0929F620C0887E0903205454794114
:100620000000447D413048484A32384040227A0038
:100630007A0A0A727D0D19317D2629292F2826294B
:1006400029292630484D402038080808080808089D
:1006500008382F10C8ACBA2F102834FA00007B00DD
:100660000008142A142222142A1408AA005500AAE9
:10067000AA55AA55AA000000FF00101010FF001490
:100680001414FF001010FF00FF1010F010F01414ED
:1006900014FC001414F700FF0000FF00FF1414F412
:1006A00004FC141417101F10101F101F1414141F13
:1006B00000101010F0000000001F101010101F108C
:1006C000101010F010000000FF101010101010108B
:1006D0001010FF10000000FF140000FF00FF0000DA
:1006E0001F10170000FC04F414141710171414F44E
:1006F00004F40000FF00F714141414141414F70089
:10070000F7141414171410101F101F141414F414D9
:100710001010F010F000001F101F0000001F140048
:100720000000FC140000F010F01010FF10FF141473
:1007300014FF141010101F00000000F010FFFFFF46
:10074000FFFFF0F0F0F0F0FFFFFF0000000000FFFF
:10075000FF0F0F0F0F0F38444438447C2A2A3E14F1
:100760007E02020606027E027E026355494163381C
:1007700044443C04407E201E2006027E020299A5CD
:10078000E7A5991C2A492A1C4C7201724C304A4D2B
:100790004D303048784830BC625A463D3E49494960
:1007A000007E0101017E2A2A2A2A2A44445F444409
:1007B00040514A444040444A51400000FF0103E098
:1007C00080FF000008086B6B083612362436060FCF
:1007D000090F06000018180000001010003040FF3C
:1007E0000101001F01011E00191D1712003C3C3CB5
:1007F0003C00000000007A05860D481411241FBE3D
:10080000CFEFD1E2DEBFCDBF00E00CBF12E0A0E031
:10081000B2E0E0EAF8E500E00BBF02C007900D92FD
:10082000AA3CB107D9F718E0AAECB2E001C01D92CA
:10083000AB30B107E1F717E0CCEFD7E004C0229767
:10084000FE010E944A2CC63FD107C9F70E94150835
:100850000C94B62B0C9400002F923F924F925F9213
:100860006F927F928F929F92AF92BF92CF92DF92C0
:10087000EF92FF920F931F93DF93CF93CDB7DEB725
:10088000C654D0400FB6F894DEBF0FBECDBF98AFB0
:100890008FAB7AAF69AF5CAF4BAF4901F02E160159
:1008A000BEAEADAE8DB79EB721969FAF8EAF2197EE
:1008B000CE0101960E940D13AFA9B8AD4D915C9188
:1008C000CE014C9667EA75E021E00E948D158E8D71
:1008D0009F8D9C838B8388A199A1AAA1BBA18D83A5
:1008E0009E83AF83B8878CA19DA1AEA1BFA189874C
:1008F0009A87AB87BC87DE011D96FE01B8968DE016
:1009000001900D928150E1F78DA99EA99B8F8A8F4E
:100910002E010894411C511CC2010E945D13182F26
:10092000CE014C960E9420131123A1F48BE295E096
:1009300060E072E00E941B0FEFA9F8AD6081718149
:100940008BE295E00E941B0F8BE295E067E20E942C
:10095000EF0EA9C02F2D2150220D0E2D0150FDADFF
:100960000F0F89AD9AAD6F2D4E2D0E94C20F310130
:10097000660C771C5401CC24DD2488249924C20100
:10098000542C492EABADBCADCD01A0E0B0E0279614
:100990008CAF9DAFAEAFBFAF279778C0FDB6EEB6B8
:1009A0002296FFAE22972396EFAE23978DB79EB780
:1009B000861997090FB6F8949EBF0FBE8DBF0DB76D
:1009C0001EB70F5F1F4FAFA9B8AD12962D913C9186
:1009D000139740E050E0C601B5010E94E02BAB0147
:1009E000BC0127968CAD9DADAEADBFAD2797480F2E
:1009F000591F6A1F7B1F440F551F661F771F852DC8
:100A0000942D0E947C13852D942DB801A3010E9482
:100A10008E138615970519F4EE24FF2420C08BE26F
:100A200095E061E172E00E941E0F852D942D0E94D9
:100A30006A138F2D9E2D9C010FB6F8943EBF0FBEFA
:100A40002DBF31C0D8017C9111966C9189AD9AADC2
:100A50000E9406100894E11CF11C0E5F1F4FE21467
:100A6000F30480F322968FAD229723969FAD2397B0
:100A70009C010FB6F8943EBF0FBE2DBF0894811C99
:100A8000911C0894A11CB11CC11CD11CEDADFEAD84
:100A90008E169F0608F482CF852D942D0E946A132E
:100AA000852D942D02C0CE0101960E94201321961F
:100AB0008EAD9FAD21970FB6F8949EBF0FBE8DBF30
:100AC000CA5BDF4F0FB6F894DEBF0FBECDBFCF912C
:100AD000DF911F910F91FF90EF90DF90CF90BF902B
:100AE000AF909F908F907F906F905F904F903F90CE
:100AF0002F9008958AEC92E066E047E028E00E949B
:100B0000EC1280915D0290915E0220916102309121
:100B10006202820F931F9093FF028093FE028091E6
:100B20005F02909160022091630230916402820F13
:100B3000931F90930103809300030895AF92BF9297
:100B4000CF92DF92EF92FF920F931F9380915F02FB
:100B50009091600297FF48C02091000330910103FB
:100B60004091FE025091FF0260915D0270915E0221
:100B7000213A3105CCF4461B570B85E692E06AEC2E
:100B800072E020E030E000E010E0EE24FF24B0E866
:100B9000CB2ED12CA0EAAA2EB12C0E942C0480913D
:100BA00000039091010351C08DE990E090936002A1
:100BB00080935F02461B570B205A304085E692E037
:100BC0006AEC72E000E010E0EE24FF24F0E8CF2EA3
:100BD000D12CE0EAAE2EB12C0E942C0480910003AF
:100BE00090910103039753C08E3991050CF453C0C3
:100BF000209100033091010380E098E0821B930B69
:100C00004091FE025091FF0260915D0270915E0280
:100C1000813A9105FCF4461B570B85E692E06AEC9D
:100C200072E020E637E000E010E0EE24FF24B0E8B8
:100C3000CB2ED12CA0EAAA2EB12C0E942C0480919C
:100C40000003909101038056974090936002809337
:100C50005F0221C01092600210925F02461B570B88
:100C60002D5F3F4F85E692E06AEC72E000E010E015
:100C7000EE24FF24F0E8CF2ED12CE0EAAE2EB12CEA
:100C80000E942C048091000390910103039690939D
:100C900001038093000380915D0290915E0297FFB3
:100CA00048C04091FE025091FF0260915F02709136
:100CB0006002209100033091010341385105CCF4CA
:100CC000261B370B85E692E06AEC72E040E050E0CC
:100CD00000E010E0EE24FF24B0E8CB2ED12CA0EAF7
:100CE000AA2EB12C0E942C048091FE029091FF024A
:100CF00051C08DE790E090935E0280935D02405872
:100D00005040261B370B85E692E06AEC72E000E06B
:100D100010E0EE24FF24F0E8CF2ED12CE0EAAE2E36
:100D2000B12C0E942C048091FE029091FF02039747
:100D300053C08E3791050CF453C04091FE02509180
:100D4000FF0280E098E0841B950B60915F02709138
:100D50006002209100033091010381389105FCF479
:100D6000261B370B85E692E06AEC72E040E857E01C
:100D700000E010E0EE24FF24B0E8CB2ED12CA0EA56
:100D8000AA2EB12C0E942C048091FE029091FF02A9
:100D90008058974090935E0280935D0221C010922C
:100DA0005E0210925D024D5F5F4F261B370B85E69A
:100DB00092E06AEC72E000E010E0EE24FF24F0E83C
:100DC000CF2ED12CE0EAAE2EB12C0E942C048091C3
:100DD000FE029091FF0203969093FF028093FE0221
:100DE0001F910F91FF90EF90DF90CF90BF90AF9049
:100DF00008958F929F92AF92BF92CF92DF92EF921F
:100E0000FF920F931F93CF93DF9380E00E942408FB
:100E10004C0181E00E942408EC0180915D029091D8
:100E20005E029093F7028093F60280915F029091A8
:100E300060029093F9028093F8028091FE029091F3
:100E4000FF029093FB028093FA028091000390913D
:100E500001039093FD028093FC0280E00E9424082D
:100E60007C0181E00E9424088C0189E00E944F0AE5
:100E7000C8018C1B9D0B64E670E00E94132CFB01E3
:100E800080915D0290915E02860F971F90935E02A3
:100E900080935D02C7018819990964E670E00E9499
:100EA000132C80915F0290916002860F971F9093A0
:100EB000600280935F024091000350910103460F4E
:100EC000571F8091FE029091FF028E0F9F1F27E017
:100ED0008E3F920714F08DEF97E0FC0197FF02C060
:100EE000E0E0F0E0F093FF02E093FE029A0187E079
:100EF0004E3F580714F02DEF37E037FF02C020E0D7
:100F000030E030930103209300034091FA025091A6
:100F1000FB02E417F50739F48091FC029091FD0281
:100F200028173907C1F02091FC023091FD02009191
:100F3000F6021091F702E090F802F090F90285E6CF
:100F400092E06AEC72E0F3E0CF2ED12CE3E0AE2E1B
:100F5000B12C0E942C040E949E0560915D0270914C
:100F60005E0240915F02509160028AEC92E023E0C1
:100F700030E003E010E0EE24FF240E9433114DCF57
:100F8000AF92BF92CF92DF92EF92FF920F931F9397
:100F90000E9407098BE295E040E855E260E070E0CE
:100FA0000E945B0C8AEC92E062E00E94BE128BE22F
:100FB00095E065E272E00E941B0F87EA95E065E02C
:100FC0004FEF2FEF0FEF0E94BF16882339F48BE20B
:100FD00095E06DE372E00E941E0F1EC08BE295E06B
:100FE00065E472E00E941E0F40916102509162021E
:100FF000209163023091640285E692E06AEC72E02F
:1010000000E010E0EE24FF24B0E8CB2ED12CA0EAC3
:10101000AA2EB12C0E942C041F910F91FF90EF90EB
:10102000DF90CF90BF90AF9008950E94C00789E0F5
:1010300060E00E94690989E061E00E941C0A0E9448
:10104000A0080E94F906FDCF382F863308F03653EA
:1010500020917B00832F86958695869590E0817000
:10106000907043E0880F991F4A95E1F7277F282B5E
:1010700020937B00377080916B028295880F880FD8
:10108000807C832B80937C0080917A0080648093A5
:101090007A0080917A0086FDFCCF20917800409103
:1010A0007900942F80E030E0282B392BC901089576
:1010B0001F920F920FB60F9211242F933F938F938D
:1010C0009F93AF93BF938091060390910703A091E4
:1010D0000803B091090330910A030196A11DB11DC7
:1010E000232F2D5F2D3720F02D570196A11DB11D07
:1010F00020930A038093060390930703A0930803A9
:10110000B09309038091020390910303A09104031B
:10111000B09105030196A11DB11D80930203909328
:101120000303A0930403B0930503BF91AF919F9174
:101130008F913F912F910F900FBE0F901F90189598
:101140008FB7F8942091060330910703409108036C
:10115000509109038FBFB901CA0108959B01AC01E9
:101160007FB7F8948091020390910303A091040348
:10117000B091050366B5A89B05C06F3F19F00196B5
:10118000A11DB11D7FBFBA2FA92F982F8827860FC9
:10119000911DA11DB11D62E0880F991FAA1FBB1FE1
:1011A0006A95D1F7BC012DC0FFB7F8948091020376
:1011B00090910303A0910403B0910503E6B5A89BA9
:1011C00005C0EF3F19F00196A11DB11DFFBFBA2F59
:1011D000A92F982F88278E0F911DA11DB11DE2E028
:1011E000880F991FAA1FBB1FEA95D1F7861B970B83
:1011F000885E9340C8F221503040404050406851D2
:101200007C4F211531054105510571F608957894FB
:1012100084B5826084BD84B5816084BD85B58260FB
:1012200085BD85B5816085BDEEE6F0E08081816099
:101230008083E1E8F0E01082808182608083808199
:1012400081608083E0E8F0E0808181608083E1EB71
:10125000F0E0808184608083E0EBF0E08081816059
:101260008083E1E9F0E08081826080838081816019
:101270008083E0E9F0E0808181608083E1EAF0E052
:10128000808182608083808181608083E0EAF0E0F9
:10129000808181608083E1E2F1E0808182608083EF
:1012A000808181608083E0E2F1E0808181608083E1
:1012B000EAE7F0E0808184608083808182608083BF
:1012C0008081816080838081806880831092C100EA
:1012D0000895CF93DF93482F50E0CA0188589E4F5E
:1012E000FC0134914E5C5E4FFA018491882369F1D0
:1012F00090E0880F991FFC01EC51FF4FA591B4912C
:10130000FC01E250FF4FC591D491662351F42FB7F1
:10131000F8948C91932F909589238C9388818923BD
:101320000BC0623061F42FB7F8948C91932F909595
:1013300089238C938881832B88832FBF06C09FB716
:10134000F8948C91832B8C939FBFDF91CF9108955C
:10135000893009F449C08A30A0F4843051F18530D5
:1013600040F4823079F1833000F5813009F063C0B8
:1013700026C0873079F1883098F5863009F05BC057
:1013800025C08D3009F442C08E3028F48B30B1F185
:101390008C30C0F52DC0803109F442C0813109F490
:1013A00045C08F3009F047C037C0809180008F77EB
:1013B00003C0809180008F7D80938000089584B564
:1013C0008F7702C084B58F7D84BD08958091B00071
:1013D0008F7703C08091B0008F7D8093B000089517
:1013E000809190008F7707C0809190008F7D03C01F
:1013F00080919000877F8093900008958091A00055
:101400008F7707C08091A0008F7D03C08091A000DE
:10141000877F8093A0000895809120018F7703C07B
:10142000809120018F7D809320010895809120017B
:10143000877F809320010895FF920F931F93F62ECC
:10144000482F50E0CA0182549E4FFC012491CA01EA
:1014500088589E4FFC0114914E5C5E4FFA01049136
:101460000023C9F0222319F0822F0E94A809E02F3F
:10147000F0E0EE0FFF1FE250FF4FA591B4919FB730
:10148000F894FF2021F48C911095812302C08C9157
:10149000812B8C939FBF1F910F91FF9008950F9305
:1014A0001F93482F50E0CA0182549E4FFC012491A3
:1014B000CA0188589E4FFC0104914E5C5E4FFA01B0
:1014C0001491112319F420E030E015C0222319F003
:1014D000822F0E94A809812F90E0880F991F885EB3
:1014E0009E4FFC01A591B4918C9120E030E08023C7
:1014F00011F021E030E0C9011F910F9108951F9272
:101500000F920FB60F920BB60F9211242F933F93A9
:101510004F938F939F93EF93FF934091C600209139
:101520004B0330914C032F5F3F4F2F7330708091EE
:101530004D0390914E032817390759F0E0914B0362
:10154000F0914C03E55FFC4F408330934C032093B4
:101550004B03FF91EF919F918F914F913F912F916D
:101560000F900BBE0F900FBE0F901F9018951F92FB
:101570000F920FB60F920BB60F9211242F933F9339
:101580004F938F939F93EF93FF934091CE002091C1
:10159000D3033091D4032F5F3F4F2F73307080916E
:1015A000D5039091D6032817390759F0E091D3035A
:1015B000F091D403ED56FC4F40833093D403209335
:1015C000D303FF91EF919F918F914F913F912F9175
:1015D0000F900BBE0F900FBE0F901F9018951F928B
:1015E0000F920FB60F920BB60F9211242F933F93C9
:1015F0004F938F939F93EF93FF934091D600209149
:101600005B0430915C042F5F3F4F2F7330708091EB
:101610005D0490915E042817390759F0E0915B044E
:10162000F0915C04E55EFB4F408330935C042093B3
:101630005B04FF91EF919F918F914F913F912F917B
:101640000F900BBE0F900FBE0F901F9018951F921A
:101650000F920FB60F920BB60F9211242F933F9358
:101660004F938F939F93EF93FF9340913601209177
:10167000E3043091E4042F5F3F4F2F73307080916B
:10168000E5049091E6042817390759F0E091E30446
:10169000F091E404ED55FB4F40833093E404209334
:1016A000E304FF91EF919F918F914F913F912F9183
:1016B0000F900BBE0F900FBE0F901F9018951F92AA
:1016C0000F920FB60F920BB60F9211242F933F93E8
:1016D0008F939F93EF93FF9320918F03309190030B
:1016E00080919103909192032817390731F48091EA
:1016F000C1008F7D8093C10014C0E0919103F091EF
:101700009203E15BFC4F20818091910390919203C1
:1017100001968F739070909392038093910320931E
:10172000C600FF91EF919F918F913F912F910F9064
:101730000BBE0F900FBE0F901F9018951F920F9227
:101740000FB60F920BB60F9211242F933F938F93E6
:101750009F93EF93FF932091170430911804809189
:10176000190490911A042817390731F48091C9009F
:101770008F7D8093C90014C0E0911904F0911A0480
:10178000E952FC4F20818091190490911A0401962E
:101790008F73907090931A04809319042093CE0055
:1017A000FF91EF919F918F913F912F910F900BBEE1
:1017B0000F900FBE0F901F9018951F920F920FB6AB
:1017C0000F920BB60F9211242F933F938F939F93F9
:1017D000EF93FF9320919F043091A0048091A10486
:1017E0009091A2042817390731F48091D1008F7DA0
:1017F0008093D10014C0E091A104F091A204E15AB9
:10180000FB4F20818091A1049091A20401968F73D7
:1018100090709093A2048093A1042093D600FF912E
:10182000EF919F918F913F912F910F900BBE0F9051
:101830000FBE0F901F9018951F920F920FB60F9228
:101840000BB60F9211242F933F938F939F93EF9397
:10185000FF932091270530912805809129059091CB
:101860002A052817390731F4809131018F7D809343
:10187000310114C0E0912905F0912A05E951FB4F8F
:1018800020818091290590912A0501968F7390708F
:1018900090932A058093290520933601FF91EF91BB
:1018A0009F918F913F912F910F900BBE0F900FBE84
:1018B0000F901F901895AF92BF92DF92EF92FF9218
:1018C0000F931F93CF93DF93EC017A018B01DD24FB
:1018D000403081EE580780E0680780E0780711F01B
:1018E000DD24D39491E0A92EB12CEC89FD89DD2073
:1018F00069F0C5010E8C02C0880F991F0A94E2F7A7
:10190000808360E079E08DE390E005C0108260E8BC
:1019100074E88EE190E0A80197010E94262C2150E6
:10192000304040405040569547953795279580E187
:101930002030380720F0DD2011F0DD24D6CFE889F3
:10194000F9893083EA89FB892083EE89FF89408108
:1019500021E030E0C9010A8C02C0880F991F0A9467
:10196000E2F7482B4083EE89FF894081C9010B8C47
:1019700002C0880F991F0A94E2F7482B4083EE8932
:10198000FF894081C9010C8C02C0880F991F0A94FD
:10199000E2F7482B4083EE89FF8980810D8C02C0DD
:1019A000220F331F0A94E2F7209528232083DF912A
:1019B000CF911F910F91FF90EF90DF90BF90AF906C
:1019C0000895DC011C96ED91FC911D97E05CFF4FA2
:1019D0002191319180819181281B390B2F733070B7
:1019E000C9010895DC011C96ED91FC911D97E05C06
:1019F000FF4F20813181E054F040DF01AE5BBF4FEB
:101A00008D919C9111972817390719F42FEF3FEF0B
:101A100007C08D919C91E80FF91F8081282F30E03D
:101A2000C9010895DC011C96ED91FC911D97E05CC5
:101A3000FF4F20813181E054F040DF01AE5BBF4FAA
:101A40008D919C9111972817390719F42FEF3FEFCB
:101A500010C08D919C911197E80FF91F20818D91F5
:101A60009C91119701968F73907011969C938E9311
:101A700030E0C9010895FC0186859785DC01A05CF2
:101A8000BF4FFC01EE5BFF4F2D913C911197808180
:101A9000918128173907C1F70895CF93DF93EC019F
:101AA000EE85FF85E05CFF4F20813181E054F040FE
:101AB0002F5F3F4F2F733070DF01AE5BBF4F8D91B3
:101AC0009C91119728173907D1F3E05CFF4F808173
:101AD0009181E054F040E80FF91F6083EE85FF85A7
:101AE000E05CFF4F31832083EE89FF89208181E014
:101AF00090E00D8C02C0880F991F0A94E2F7282B02
:101B0000208381E090E0DF91CF9108951F931092A0
:101B10002E0510922D0528EE33E040E050E0209392
:101B20002F0530933005409331055093320564E71B
:101B300072E070932C0560932B058BE093E09093FB
:101B40003805809337058FE493E090933A058093AE
:101B5000390585EC90E090933C0580933B0584EC3F
:101B600090E090933E0580933D0580EC90E090934B
:101B7000400580933F0581EC90E09093420580936F
:101B8000410586EC90E0909344058093430514E072
:101B900010934505B3E0B0934605A7E0A093470531
:101BA000F5E0F0934805E1E0E093490510924D051A
:101BB00010924C0520934E0530934F0540935005ED
:101BC0005093510570934B0560934A0583E993E068
:101BD000909357058093560587ED93E090935905B0
:101BE000809358058DEC90E090935B0580935A05A7
:101BF0008CEC90E090935D0580935C0588EC90E020
:101C000090935F0580935E0589EC90E09093610569
:101C1000809360058EEC90E090936305809362055D
:101C200010936405B0936505A0936605F09367056E
:101C3000E093680510926C0510926B0520936D057A
:101C400030936E0540936F055093700570936A054D
:101C5000609369058BE194E0909376058093750518
:101C60008FE594E0909378058093770585ED90E07B
:101C700090937A058093790584ED90E090937C05AC
:101C800080937B0580ED90E090937E0580937D05A9
:101C900081ED90E09093800580937F0586ED90E044
:101CA000909382058093810510938305B0938405FA
:101CB000A0938505F0938605E093870510928B0528
:101CC00010928A0520938C0530938D0540938E05E4
:101CD00050938F05709389056093880583EA94E09B
:101CE000909395058093940587EE94E090939705E3
:101CF0008093960585E391E09093990580939805EC
:101D000084E391E090939B0580939A0580E391E0B2
:101D100090939D0580939C0581E391E090939F05AE
:101D200080939E0586E391E09093A1058093A005A2
:101D30001093A205B093A305A093A405F093A50565
:101D4000E093A6051F9108950895CF92DF92EF9238
:101D5000FF920F931F93CF93DF937C016B018A0156
:101D6000C0E0D0E00FC0D6016D916D01D701ED91BB
:101D7000FC910190F081E02DC7011995C80FD91F82
:101D8000015010400115110571F7CE01DF91CF917F
:101D90001F910F91FF90EF90DF90CF900895EF92F9
:101DA000FF920F931F938C01DC01ED91FC91019048
:101DB000F081E02D6DE019957C01D801ED91FC9149
:101DC0000190F081E02DC8016AE019959C012E0D6B
:101DD0003F1DC9011F910F91FF90EF900895EF9261
:101DE000FF920F931F937C01DC01ED91FC91019018
:101DF000F081E02D19958C01C7010E94CF0E080FCC
:101E0000191FC8011F910F91FF90EF900895CF9374
:101E1000DF93DB010D900020E9F71197A61BB70BAC
:101E2000EC01E881F9810280F381E02DAD01199583
:101E3000DF91CF9108950E94070F0895EF92FF92CE
:101E40000F931F937C010E94070F8C01C7010E9412
:101E5000CF0E080F191FC8011F910F91FF90EF902F
:101E60000895DC0158968C915897882329F06EBD0F
:101E70000DB407FEFDCF089530E840E050E070E07B
:101E8000832F90E0862397235996ED91FC915A97E2
:101E900096962C919697892B21F08081822B8083B6
:101EA00004C080812095282320835B96ED91FC91CE
:101EB0005C97808197969C919797892B80835B96FE
:101EC000ED91FC915C97908197968C919797809576
:101ED0008923808336954F5F5F4F4830510581F6E7
:101EE00008950F931F938C01DC015F96ED91FC9197
:101EF0009097908199968C9199978095892380836A
:101F00005D96ED91FC915E97908198968C9180956D
:101F100089238083C8010E94310FD8015D96ED911D
:101F2000FC915E97808198969C91892B80831F916C
:101F30000F9108950F931F938C01DC015F96ED9133
:101F4000FC919097808199969C919997892B808399
:101F50005D96ED91FC915E97908198968C9180951D
:101F600089238083C8010E94310FD8015D96ED91CD
:101F7000FC915E97808198969C91892B80831F911C
:101F80000F910895CF92DF92EF92FF920F931F93DC
:101F90007C01162FC42ED22E6AE20E94710FC70157
:101FA00060E00E949A0FF70162A5610FC7010E94CD
:101FB0009A0FC70160E00E949A0FF70162A56D0DAC
:101FC000C7010E949A0FC7016BE20E94710FC701FF
:101FD00060E00E949A0FF70163A56C0DC7010E9493
:101FE0009A0FC70160E00E949A0FF70163A5600F86
:101FF000C7010E949A0FC7016CE20E94710F1F91E6
:102000000F91FF90EF90DF90CF900895FF920F9384
:102010001F938C01F62E672FDC015F96ED91FC91EA
:102020009097808199969C919997892B80835D9652
:10203000ED91FC915E97908198968C918095892383
:102040008083C8010E94310FC8016F2D0E94310F9B
:10205000D8015D96ED91FC915E97808198969C9158
:10206000892B80831F910F91FF900895FF920F930A
:102070001F93CF93DF93EC01F22E132F77FD2EC029
:1020800088859985681779074CF557FD27C08A859B
:102090009B854817590714F5262F2F5F042F0F5FD4
:1020A000CE010E94C20FEF8DF8A1808199A5892BE6
:1020B0008083ED8DFE8D908188A580958923808316
:1020C000CE01612F0E94310FCE016F2D0E94310F82
:1020D000ED8DFE8D808198A5892B8083DF91CF9136
:1020E0001F910F91FF900895DF92EF92FF920F934F
:1020F0001F93CF93DF93EC01FB017901D02E8885EC
:10210000998568177907D4F52A853B8542175307C7
:10211000ACF5C701840F951F281739071CF4790106
:10212000E41AF50A042F01500E0DCE016E2F2E2F4A
:102130000E94C20FEF8DF8A1808199A5892B808321
:10214000ED8DFE8D908188A580958923808308C0C0
:10215000CE01612F0E94310FCE016D2D0E94310FF3
:102160000894E108F1088FEFE8168FEFF80681F781
:10217000ED8DFE8D808198A5892B8083DF91CF9195
:102180001F910F91FF90EF90DF900895DF92EF92F3
:10219000FF920F931F93CF93DF93EC01FA01790124
:1021A000D02E2885398562177307D4F58A859B85DB
:1021B00048175907ACF5C701860F971F281739072D
:1021C0001CF47901E61AF70A262F21502E0DCE01B4
:1021D0004E2F0E2F0E94C20FEF8DF8A1808199A57E
:1021E000892B8083ED8DFE8D908188A58095892334
:1021F000808308C0CE01612F0E94310FCE016D2D6A
:102200000E94310F0894E108F1088FEFE8168FEF74
:10221000F80681F7ED8DFE8D808198A5892B80834E
:10222000DF91CF911F910F91FF90EF90DF90089574
:10223000EF92FF920F931F93FC017B01A081B1816C
:1022400020853185028513851E960D90BC91A02DA9
:1022500060E070E040E050E0FD0119951F910F91A2
:10226000FF90EF900895AF92BF92CF92DF92EF92DE
:10227000FF920F931F93CF93DF936C015901E801F5
:10228000DC0118962D913C911997621773070CF099
:1022900057C01A96ED91FC911B974E175F070CF0F3
:1022A0004FC0C501860F971F281739071CF4590125
:1022B000A61AB70ACE01840F951FE817F9071CF478
:1022C000EF01C41BD50B262F21502A0D042F0150DE
:1022D0000C0FC6010E94C20FD6015F96ED91FC91D2
:1022E0009097808199969C919997892B80835D9690
:1022F000ED91FC915E97908198968C9180958923C1
:1023000080838E010EC0C6016F2D0E94310FC60161
:102310006E2D0E94310F21971C161D06A4F301504B
:1023200010401016110614F4E501F6CFD6015D96A3
:10233000ED91FC915E97808198969C91892B80838A
:10234000DF91CF911F910F91FF90EF90DF90CF9091
:10235000BF90AF900895662311F460E201C061E27E
:102360000E94710F0895AF92BF92CF92DF92EF92C9
:10237000FF920F931F93CF93DF935C01FB01EB015F
:102380002196D49031C08E010F5F1F4FFE016491E2
:10239000C5010E94710F78010894E11CF11CF8013D
:1023A000C4900C2D0F77E701102F08C0FE01219675
:1023B000E491C5016E2F0E949A0F11501123B1F7BD
:1023C000E701C00FD11DC7FE0EC0FE018491682F2A
:1023D00070E06F3F710511F464EF71E0219680E0C9
:1023E00090E00E94AE08DA94DD2069F6DF91CF918B
:1023F0001F910F91FF90EF90DF90CF90BF90AF9023
:1024000008950F931F93CF93DF93EC018B011BA6CD
:102410001AA68AA161E00E94690989A161E00E946F
:102420006909E9A14E2F50E0FA01EE5CFE4FE491FC
:10243000F0E0EE0FFF1FE250FF4F859194919E8FC9
:102440008D8FEAA12E2F30E0F901EE5CFE4FE49172
:10245000F0E0EE0FFF1FE250FF4F8591949198A39B
:102460008F8F48585E4FFA01849188A728583E4FB5
:10247000F901849189A7888D882361F00E947427CF
:1024800080E00E94632781E00E94552780E00E943F
:102490005E273DC08DA161E00E9469098CA161E0C9
:1024A0000E946909EDA14E2F50E0FA01EE5CFE4F4B
:1024B000E491F0E0EE0FFF1FE250FF4FA591B491C1
:1024C000BC8FAB8FECA12E2F30E0F901EE5CFE4FFC
:1024D000E491F0E0EE0FFF1FE250FF4F85919491E1
:1024E0009A8F898F48585E4FFA0194919FA328587C
:1024F0003E4FF90184918EA38C91909598239C93E3
:10250000E98DFA8D90818EA1809589238083ED8D50
:10251000FE8D908188A58095892380838BA1882357
:1025200009F161E00E9469098BA161E00E941C0A27
:1025300064EF71E080E090E00E94AE088BA160E063
:102540000E941C0A64EF71E080E090E00E94AE08F7
:102550008BA161E00E941C0A64EF71E080E090E0D2
:102560000E94AE080115110521F0CE01B8010E94AC
:10257000B311DF91CF911F910F9108951F93CF93C6
:10258000DF93EC01162F64E072E00E940112112328
:1025900051F4CE016FE372E00E94B31182E08AA78A
:1025A00081E08BA705C0CE016CE472E00E94B311FC
:1025B000CE0169E572E00E94B311123041F4CE0100
:1025C00066E30E94710FCE0160EC0E949A0F1F8B90
:1025D000DF91CF911F910895DF92EF92FF920F93B9
:1025E0001F938C01F62EE42ED22E60E870E040EAB4
:1025F00050E00E94932784E892E0F8019183808361
:10260000F1A2E2A2D3A281E0808F15A214A21F91B1
:102610000F91FF90EF90DF900895FC0113821282DA
:1026200088EE93E0A0E0B0E084839583A683B7832F
:102630008CE992E091838083128E118E1486089526
:10264000FC018CE992E0918380830895FC01A18DC7
:10265000B28D109719F420E030E009C0ED91FC91A3
:1026600011970190F081E02DCD0119959C01C901D0
:102670000895DC015996ED91FC915A97309719F421
:1026800020E030E018C02489358946895789838540
:102690009485A585B685281B390B4A0B5B0B20302A
:1026A000B0E83B07B0E04B07B0E05B0720F02FEF4E
:1026B0003FE740E050E0C9010895DC015996ED91F3
:1026C000FC915A97309711F480E00895868181112A
:1026D00081E00895CF93DF93EC01898D9A8D009767
:1026E00041F00E94351C898D9A8D0E941E2B1A8EF6
:1026F000198EDF91CF910895FC01818D928D009705
:1027000011F480E008950E94251B0895FC01818D3D
:10271000928D009711F00E94EB1B0895FC01818DB2
:10272000928D009719F420E030E003C00E940C1D48
:102730009C01C9010895DF93CF930F92CDB7DEB707
:10274000FC01818D928D009749F0BE016F5F7F4F34
:1027500041E050E00E940C1D019719F02FEF3FEF70
:1027600003C08981282F30E0C9010F90CF91DF91FC
:102770000895EF92FF920F931F93DF93CF930F92E1
:10278000CDB7DEB77C01DC0159968D919C915A97AB
:10279000009719F400E010E01FC0BE016F5F7F4F8B
:1027A00041E050E00E940C1D019719F00FEF1FEF60
:1027B00013C08981082F10E0D7015996ED91FC9143
:1027C0005A974385548565857685415050406040D1
:1027D0007040CF010E94251BC8010F90CF91DF915F
:1027E0001F910F91FF90EF900895FC01818D928DC4
:1027F000009719F420E030E003C00E94511F9C01B3
:10280000C9010895FC01818D928D009719F420E093
:1028100030E003C00E9409219C01C9010895EF9294
:10282000FF920F931F93CF93DF93EC01F62EE72EC9
:102830008A011B821A8288EE93E0A0E0B0E08C83CC
:102840009D83AE83BF838CE992E0998388838EE178
:1028500090E00E94812A9A8F898F009791F0DC0185
:102860008F2D9E2D9C01F9018EE101900D928150DA
:10287000E1F7CE010C96B8014CE050E00E94D12B5C
:10288000188EDF91CF911F910F91FF90EF900895D7
:1028900082E090E0A0E0B0E08093A7059093A805C7
:1028A000A093A905B093AA051092BE051092C80581
:1028B0001092C7058EEA92E09093C6058093C505F5
:1028C0001092CB051092E8051092E9051092EC05E4
:1028D0001092EE0508952F923F924F925F926F9261
:1028E0007F928F929F92AF92BF92CF92DF92EF92A0
:1028F000FF920F931F93DF93CF93CDB7DEB7C954E9
:10290000D0400FB6F894DEBF0FBECDBF582E492E73
:10291000FB013A01190180A191A1998B888B2EEAC4
:1029200032E03F872E8782A18A8B83A18B8B84A183
:102930008C8B85A196A1A7A1B0A58D8B9E8BAF8B0B
:10294000B88F81A592A5A3A5B4A5898F9A8FAB8FC7
:10295000BC8F85A596A5A7A5B0A98D8F9E8FAF8F9B
:10296000B8A381A989A382A993A9A4A9B5A98AA377
:102970009BA3ACA3BDA386A997A9A0ADB1AD8EA31F
:102980009FA3A8A7B9A782AD93AD9BA78AA71FA6AF
:102990001EA63DA72CA71AAA7A018E01025F1F4F1F
:1029A0003CE2A32EB12CAC0EBD1E4E010894811C3E
:1029B000911C35C0D7018C918F3221F40894E11C11
:1029C000F11C2DC0422F4E194D3008F04CE0C42EA2
:1029D000DD24C401B701A6010E94D12BF401EC0D46
:1029E000FD1D1082C5010E94351CC501B801A4015E
:1029F00021E00E948921882351F4E52DF42D1382D2
:102A000012828EEA92E09183808316826AC0EC0C77
:102A1000FD1CC8010E94351CC50158018C01C7016D
:102A20006FE270E00E94C62B9C01009719F6E61831
:102A3000F708F101F182E082E52DF42DD80112961C
:102A40008D919C911397938382838EEA92E0918378
:102A5000808314968C911497848315968C91159786
:102A6000858316968C911697868317962D913D91A6
:102A70004D915C911A9727833087418752871B9627
:102A80002D913D914D915C911E9723873487458709
:102A900056871F962D913D914D915C9152972787B6
:102AA000308B418B528B53968C915397838B5496DA
:102AB0002D913D914D915C915797248B358B468B91
:102AC000578B58962D913D914D915C915B97208F3E
:102AD000318F428F538F5C968D919C915D97958F2E
:102AE000848F852D942DC75BDF4F0FB6F894DEBF22
:102AF0000FBECDBFCF91DF911F910F91FF90EF904F
:102B0000DF90CF90BF90AF909F908F907F906F900D
:102B10005F904F903F902F9008959F92AF92BF92F9
:102B2000CF92DF92EF92FF920F931F93DF93CF9399
:102B3000CDB7DEB7CA57D0400FB6F894DEBF0FBE90
:102B4000CDBFC82E992E8A01D22E43E0A42EB12CDF
:102B5000AC0EBD1EC501A8019E012F5F3F4F0E9414
:102B60006B14E980FA80E00EF11EF70180814EEAD5
:102B700052E02985882309F041C08D819E819CA364
:102B80008BA35AA349A38F818DA388858EA32FA3DE
:102B90008A859B85AC85BD8588A799A7AAA7BBA771
:102BA0008E859F85A889B9898CA79DA7AEA7BFA749
:102BB0008A899B89AC89BD8988AB99ABAAABBBAB31
:102BC0008E898CAB8F89988DA98DBA8D8DAB9EAB7C
:102BD000AFABB8AF8B8D9C8DAD8DBE8D89AF9AAFED
:102BE000ABAFBCAF8F8D98A19EAF8DAF8C2D992DC3
:102BF000BE016F5D7F4F45E552E0AAC0FE01EF5B6D
:102C0000FF4F11821082DE01DF9611965C934E9386
:102C1000FE01EB5BFF4F10822223A9F022502230ED
:102C200050F4CD0165EC75E0A7012D2D0E9489219E
:102C3000882389F408C0CD01B501A7012D2D0E947C
:102C40008921882329F48C2D992D0E940D1382C08F
:102C5000C5010E94351CF6E0DF2259F0FE01ED5A55
:102C6000FF4F4081518162817381CE01CF960E94D6
:102C7000251B9E01235A3F4FFE01EF5BFF4F8081D2
:102C80009181F901938382838EEA92E0918380831C
:102C9000FE01ED5BFF4F8081F9018483FE01EC5B57
:102CA000FF4F8081F9018583FE01EB5BFF4F80813F
:102CB000F9018683FE01EA5BFF4F80819181A28149
:102CC000B381F90187839087A187B287FE01E65B14
:102CD000FF4F80819181A281B381F901838794871D
:102CE000A587B687FE01E25BFF4F80819181A281BB
:102CF000B381F9018787908BA18BB28BFE01EE5ACD
:102D0000FF4F8081F901838BFE01ED5AFF4F8081D7
:102D10009181A281B381F901848B958BA68BB78BAE
:102D2000FE01E95AFF4F80819181A281B381F901AF
:102D3000808F918FA28FB38FFE01E55AFF4F808164
:102D40009181F901958F848F8C2D992DB901A7015F
:102D50000E940F148C2D992DC658DF4F0FB6F89492
:102D6000DEBF0FBECDBFCF91DF911F910F91FF90BE
:102D7000EF90DF90CF90BF90AF909F900895CF924B
:102D8000DF92EF920F93CF93DF93EC01362F542F06
:102D9000722FE02E6CE3C62ED12CC80ED91EC601B0
:102DA00061E0432F252F072F0E94AD198823D1F012
:102DB0000C2FED2ECE01B60141E00E942A2388237C
:102DC00039F4CE01B60140E00E942A23882351F055
:102DD000CE014E96602F7E2D0E946B1E882319F027
:102DE00081E001C080E0DF91CF910F91EF90DF9003
:102DF000CF900895382F8091F2058F3F29F43EBD82
:102E00000DB407FEFDCF0895F894A091F305B0919D
:102E1000F4055091F505252F2095E091F605F091E8
:102E2000F7054091F805642F609590E08C9182231E
:102E30008C9337FF03C08081842B02C0808186235E
:102E400080838C91852B8C939F5F983011F0330F8A
:102E5000EDCF00000000000000008C9128232C938F
:102E6000789408958091F2058F3F21F40E94FA161C
:102E70002EB530C0F894E091F605F091F705808109
:102E80009091F805892B8083E091F305F091F4058A
:102E90006091F505A091F905B091FA058091FB05C7
:102EA000482F50E0762F709520E030E08081862B0F
:102EB0008083220F8C9190E084239523892B09F045
:102EC0002160808187238083000000003F5F3830CD
:102ED00069F77894822F0895FC01673020F086E12D
:102EE000858380E00895262F30E060FD02C06630C3
:102EF00019F48DB58E7F02C08DB581608DBD8CB506
:102F00008C7F8CBD4CB522FD02C090E001C092E0E8
:102F100036952795822F8170842B892B8CBD81E07B
:102F200008950F931F93CF93DF938B010E94A00806
:102F3000EB010E9432178F3F11F481E008C00E941C
:102F4000A0086C1B7D0B6017710798F380E0DF9180
:102F5000CF911F910F910895FC01848160E00E9440
:102F60001C0A0895FC01848161E00E941C0A0895F6
:102F7000CF92DF92EF92FF920F931F93CF93DF9345
:102F80007C016A01FC018485882319F40FEF1FEF8F
:102F900030C000E010E040E050E0212F332727FD53
:102FA0003A95F601E40FF51F808190E02827392734
:102FB0003070C901F4E095958795FA95E1F782277D
:102FC0009327102F0027082719279C01322F22272B
:102FD0003295307F0227132725E0880F991F2A9505
:102FE000E1F7082719274F5F5F4FF2E040305F0796
:102FF000A1F6862F0E94FA16C0E0D0E0F601EC0F91
:10300000FD1F80810E94FA16219682E0C030D80709
:10301000A9F7812F992787FD9A950E94FA16802F8C
:103020000E94FA160E943217F70182878F7185304D
:1030300011F481E007C081E1F7018583C7010E9497
:10304000B21780E0DF91CF911F910F91FF90EF9029
:10305000DF90CF9008950F931F93CF93DF93EC01F0
:103060000E94A0088B0109C00E94A008601B710B80
:103070006D52714010F08FE00AC00E9432178A87AB
:103080008F3F91F38E3F11F481E006C08DE08D8378
:10309000CE010E94B21780E0DF91CF911F910F9176
:1030A0000895CF93DF93EC018E81882319F40FC02C
:1030B0000E9432178F819885019698878F83019798
:1030C00082509240A8F3CE010E94B2171E82DF9177
:1030D000CF910895DF92EF92FF920F931F93CF93BA
:1030E000DF93EC01D62E79018A010E945118CE019E
:1030F0000E94AC17CE016CE271E00E9491178D2DF9
:1031000080640E94FA16812F9927AA27BB270E9464
:10311000FA16C801AA27BB270E94FA16BB27A12FBF
:10312000902F8F2D0E94FA168E2D0E94FA16DD2008
:1031300011F485E906C088E0D81611F487E801C0CB
:103140008FEF0E94FA1610E00E9432178A8787FFDD
:1031500002C01150C9F7DF91CF911F910F91FF90DD
:10316000EF90DF900895CF92DF92EF92FF920F934E
:103170001F93CF93DF93EC017A018B016901411515
:1031800051056105710511F482E133C08B858330EF
:1031900039F039E0EE0CFF1C001F111F3A95D1F7F2
:1031A000CE0168E1A80197010E946A18882311F0F6
:1031B00084E01FC0CE016EEFA6010E94B8178823DD
:1031C000C9F0CE0168E572E00E949117882311F4DE
:1031D00085E10FC0CE016DE020E030E040E050E03E
:1031E0000E946A18882321F40E943217882379F0FC
:1031F00084E18D83CE010E94B21780E0DF91CF91F0
:103200001F910F91FF90EF90DF90CF900895CE0126
:103210000E94B21781E0F2CF6F927F928F929F92BD
:10322000AF92BF92CF92DF92EF92FF920F931F93D4
:10323000CF93DF93EC015A016B013901480101156D
:10324000110509F46AC0C801820F931F8150924092
:1032500008F05EC08E81882371F088819981AA81EF
:10326000BB81481759076A077B0729F48F81988526
:103270006816790650F5A882B982CA82DB828B85EE
:10328000833039F0E9E0AA0CBB1CCC1CDD1CEA95AC
:10329000D1F7CE0161E1A60195010E946A18882349
:1032A00019F083E08D8334C0CE010E942B1888234F
:1032B00079F118861F8281E08E8307C00E94321741
:1032C0008F819885019698878F838F819885861541
:1032D0009705A0F300E010E008C00E943217F70144
:1032E000E00FF11F80830F5F1F4F08151905A8F32A
:1032F0002F813885280D391D38872F8389858823AC
:1033000019F02050324048F0CE010E94511805C0FB
:10331000CE010E94B21780E001C081E0DF91CF9121
:103320001F910F91FF90EF90DF90CF90BF90AF90E3
:103330009F908F907F906F900895EF92FF920F93E0
:103340001F93790120E030E000E012E00E940C19A8
:103350001F910F91FF90EF900895BF92CF92DF924F
:10336000EF92FF920F931F93CF93DF93EC01B62E52
:103370001E2D1B8619861E821D821C864C8320935F
:10338000FC050093FD05E092F2050E94A0086B0188
:103390008C8161E00E946909CE010E94B2171F3F33
:1033A00009F461C08091FD0560E00E946909809187
:1033B000FC0561E00E9469098091F20561E00E94CC
:1033C0006909E091F2052E2F332727FD3095F90189
:1033D000EE5CFE4FE491F0E0EE0FFF1FE250FF4F76
:1033E000859194919093F4058093F30528583E4F6E
:1033F000F90184918093F505E091FC052E2F332788
:1034000027FD3095F901EE5CFE4FE491F0E0EE0F00
:10341000FF1FE250FF4F859194919093F7058093A1
:10342000F60528583E4FF90184918093F805E09104
:10343000FD052E2F332727FD3095F901EE5CFE4F59
:10344000E491F0E0EE0FFF1FE85EFE4F859194914E
:103450009093FA058093F90528583E4FF90184911D
:103460008093FB0519C082E360E00E94690983E351
:1034700061E00E94690984E361E00E94690985E3D3
:1034800061E00E94690985E361E00E941C0A83E50E
:103490008CBD8DB58E7F8DBD10E08FEF0E94FA162A
:1034A0001F5F1A30D1F7CE010E94AC1709C00E94ED
:1034B000A0086C197D09615D774010F081E05AC069
:1034C000CE0160E020E030E040E050E00E946A1869
:1034D000182F8A87813059F7CE0168E02AEA31E057
:1034E00040E050E00E946A1882FF02C01B870DC0B6
:1034F00010E00E9432178A871F5F1430D1F78A3A92
:1035000011F082E037C082E08B878B85823021F01A
:10351000EE24FF2487010FC0E12CF12C012DB0E433
:103520001B2F09C00E94A0086C197D09615D7740BE
:1035300010F088E01FC0CE0167E320E030E040E0FB
:1035400050E00E946A18CE0169E2A80197010E942A
:103550006A188A87882331F78B858230F1F4CE018F
:103560006AE320E030E040E050E00E946A188823DF
:1035700039F086E08D83CE010E94B21780E01AC038
:103580000E943217807C803C11F483E08B870E947C
:1035900032170E9432170E943217CE010E94B217D2
:1035A0008091F2058F3F11F081E004C0CE016B2DB8
:1035B0000E946C17DF91CF911F910F91FF90EF90B8
:1035C000DF90CF90BF900895CF93DF93EC01DB01A4
:1035D00080E090E020E2FD01E80FF91F20830196D2
:1035E0008B309105C1F757E040E021C02E3219F031
:1035F0008BEE92E007C05A3019F15AE048E017C04C
:103600003217F1F0FC01019634913323C9F75417B6
:10361000B8F02132A8F02F3798F4822F81568A31E2
:1036200008F42052FD01E40FF11D20834F5F299122
:103630002223E1F690E08C91803219F091E001C0F4
:1036400090E0892FDF91CF9108956F927F928F92B2
:103650009F92AF92BF92CF92DF92EF92FF920F9321
:103660001F93CF93DF93EC017A018B012E812223EC
:1036700009F480C08C899D89AE89BF89841795071C
:10368000A607B70708F476C085C0E114F104010568
:10369000110549F41F82188619861A861B861C8616
:1036A0001D861E8665C02B853C854D855E85EC8D0F
:1036B000FD8D858590E00996215030404040504076
:1036C00039014A01082E04C0969487947794679430
:1036D0000A94D2F72F5F3F4F4F4F5F4F0894E10896
:1036E000F108010911095701680104C0D694C79473
:1036F000B794A7948A95D2F70894E11CF11C011D98
:10370000111DA614B704C804D90428F021153105E9
:103710004105510549F4888D998DAA8DBB8D8F8304
:103720009887A987BA8716C0A618B708C808D90805
:1037300011C04F81588569857A858C8D9D8D940146
:103740000E940B250894A108B108C108D10888235C
:1037500031F410C087E0882E912C8C0E9D1EA11490
:10376000B104C104D10429F7EB86FC860D871E87BE
:1037700081E001C080E0DF91CF911F910F91FF9018
:10378000EF90DF90CF90BF90AF909F908F907F9001
:103790006F900895223009F078CFE6CFCF93DF9372
:1037A000EC01462F6F85788989899A890E94EF22DA
:1037B000882319F420E030E00AC08B89282F30E0FC
:1037C00095E0220F331F9A95E1F720503A4FC90137
:1037D000DF91CF9108950F931F93CF93DF938C01C7
:1037E000FC0186818823D9F1858187FF35C0C80116
:1037F00061E00E94CE1BEC01009789F1F8018681FF
:10380000823040F484899589A689B7898C8F9D8FF1
:10381000AE8FBF8FF801808D918D9B8F8A8F808DA9
:10382000918DA28DB38DCD01AA27BB279D8B8C8B4B
:10383000E091FE05F091FF05309751F0BE016A5E00
:103840007F4FCE0148961995888D998D9B8B8A8BD9
:10385000F80185818F7785830E94902201C080E0E6
:10386000DF91CF911F910F910895CF93DF93EC01DA
:103870000E94EB1B882311F01E8281E0DF91CF9123
:1038800008956F927F928F929F92AF92BF92CF9244
:10389000DF92EF92FF920F931F93DF93CF9300D0AD
:1038A0000F92CDB7DEB77C015A016B01DC01169691
:1038B0008C911697813009F08FC015968C9181FFFD
:1038C0008BC09EC00097A105B10511F481E085C0B1
:1038D000F7016384748485849684C701B601A501C9
:1038E0000E94251B882309F477C0D7015C968D912F
:1038F0009C915D97A114B104C104D10489F4589638
:103900004D915D916D917C915B970E947E258823FE
:1039100009F462C0F701108E118E128E138E3DC015
:10392000D70117964D915D916D917C911A979E01EB
:103930002F5F3F4F0E940B25882309F44DC0D7010C
:103940005C96ED91FC915D9749815A816B817C81F8
:103950008789803129F088EF9FEFAFEFBFE004C087
:1039600088EF9FEFA0E0B0E0481759076A077B0790
:10397000A0F4CF010E947E25882371F1F7014781D1
:10398000508561857285848D958D0FEF1FEF2FEF28
:103990003FE00E946F248823F9F0D7015496AD923E
:1039A000BD92CD92DC92579715968C9115978068B1
:1039B00015968C93C7010E94EB1B882369F0B60112
:1039C000A5016A147B048C049D0410F4B401A301C6
:1039D000C7010E94251B01C080E00F900F900F903F
:1039E0000F90CF91DF911F910F91FF90EF90DF909B
:1039F000CF90BF90AF909F908F907F906F900895E1
:103A0000F70184899589A689B78984179507A60740
:103A1000B70708F057CFE0CF2F923F924F925F92B7
:103A20006F927F928F929F92AF92BF92CF92DF92CE
:103A3000EF92FF920F931F93CF93DF93EC012A0134
:103A40008E81882309F4C6C08D8180FFC3C0D8C091
:103A500025014E185F084B0177E0272E312C2C0EE4
:103A60003D1E3201B1C02B853C854D855E856FEFD3
:103A7000A62E61E0B62EA222B3228E8179018A01A0
:103A800099E016950795F794E7949A95D1F7EC8D00
:103A9000FD8D823049F4428D538D648D758D4E0DB0
:103AA0005F1D601F711F3FC0D480DA94DE20A11417
:103AB000B104D9F4DD20C9F42115310541055105C2
:103AC00049F4888D998DAA8DBB8D8F839887A9879E
:103AD000BA870BC04F81588569857A85CF019101DE
:103AE0000E940B25882309F475C0EC8DFD8D4F8154
:103AF000588569857A854250504060407040058401
:103B000004C0440F551F661F771F0A94D2F786859D
:103B10009785A089B189480F591F6A1F7B1F4D0DDA
:103B2000511D611D711D80E092E08A199B0963019E
:103B30008615970508F46C018D8186FD06C080E02E
:103B4000C81682E0D80609F073C080916C0290918B
:103B50006D02A0916E02B0916F02481759076A0773
:103B60007B0709F465C080910008909101089501D8
:103B7000860174010E940C19882361F18C0C9D1C34
:103B800012C0950120503A4FA9014C0D5D1DD40182
:103B9000F90102C081918D93E417F507D9F7E21B73
:103BA000F30B8E0E9F1E960140E050E08B859C85A6
:103BB000AD85BE85820F931FA41FB51F8B879C8781
:103BC000AD87BE876C187D086114710409F04BCF76
:103BD000A20102C04FEF5FEFCA01DF91CF911F91A9
:103BE0000F91FF90EF90DF90CF90BF90AF909F909C
:103BF0008F907F906F905F904F903F902F9008959F
:103C0000AC88BD88CE88DF88EB84FC840D851E855A
:103C10009A0140E050E0D601C5018E199F09A00B22
:103C2000B10B82179307A407B50708F411CF13CF80
:103C3000CB01BA0140E00E94EF22882309F0A1CF16
:103C4000C9CFCF92DF92EF92FF920F931F93DF9332
:103C5000CF930F92CDB7DEB76C01FC018681823025
:103C600070F0E384F48405851685C601BE016F5F9C
:103C70007F4F41E050E00E940C1D019769F020E069
:103C800030E0C9010F90CF91DF911F910F91FF900C
:103C9000EF90DF90CF900895F60183859485A585F8
:103CA000B6854F96A11DB11D83879487A587B687DA
:103CB000F5E016950795F794E794FA95D1F78E2DD0
:103CC0008F70282F30E0E5E0220F331FEA95E1F7EF
:103CD00020503A4FD6CF0F931F93CF93DF93EC0131
:103CE0008B018E81882309F041C0FB0187898031D7
:103CF000B1F482E08E83188E198E1A8E1B8E808D01
:103D0000918DA0E0B0E045E0880F991FAA1FBB1F6E
:103D10004A95D1F78C8B9D8BAE8BBF8B15C08032B3
:103D200029F583E08E83FB01428D538D648D758D63
:103D3000488F598F6A8F7B8F9E012C5E3F4FC80141
:103D40000E94D725882391F01D8F0C8F81E08D83F1
:103D50001F82188619861A861B861C861D861E865B
:103D60001F86188A198A1A8A1B8A01C080E0DF918F
:103D7000CF911F910F9108951F93CF93DF93EC0183
:103D8000142FE62FF0E075E0EE0FFF1F7A95E1F7B4
:103D9000E050FA4F8385817121F0842F827409F0FD
:103DA00054C06B8B80916C0290916D02A0916E0259
:103DB000B0916F028F87988BA98BBA8B8489958974
:103DC000A0E0B0E0BC0155274427828D938DA0E090
:103DD000B0E0482B592B6A2B7B2B488F598F6A8F69
:103DE0007B8F838590E088719070009751F4848D6B
:103DF000958DA68DB78D8C8B9D8BAE8BBF8B81E007
:103E00000CC0409711F59E012C5E3F4F8C8D9D8D0F
:103E10000E94D7258823C9F084E08E83812F8F707C
:103E20008D831F82188619861A861B861C861D861E
:103E30001E8616FD02C081E009C0CE0140E050E0C0
:103E400060E070E00E94411C01C080E0DF91CF91F2
:103E50001F910895CF93DF93EC019C01295F3F4FA1
:103E60008C8D9D8D41E050E060E070E00E94462620
:103E70008823A1F0888D998DAA8DBB8D0097A1050F
:103E8000B10559F48F819885A985BA85888F998F56
:103E9000AA8FBB8F8D8180688D8381E0DF91CF9168
:103EA00008952F923F924F925F927F928F929F92AE
:103EB000AF92BF92CF92DF92EF92FF920F931F9338
:103EC000DF93CF9300D000D0CDB7DEB76C01162FB3
:103ED000072F5E834D83DC0116968C9116978130F7
:103EE00009F072C115968C9181FF6EC18FC1F601E8
:103EF000448955896689778983859485A585B685A2
:103F000084179507A607B70731F0C6010E94251B45
:103F1000882309F459C1812F902F9C0129012D80FC
:103F20003E8019C1D6015C96ED91FC915D97DA0156
:103F3000C90119E0B695A795979587951A95D1F778
:103F400074807A9478227FEF872E71E0972E8222F8
:103F50009322772009F050C08114910409F04CC0DD
:103F6000D60117964D915D916D917C911A974115EF
:103F700051056105710581F458968D919D910D90C3
:103F8000BC91A02D0097A105B10559F1F6018783D9
:103F90009087A187B28730C0CF019E012F5F3F4F2E
:103FA0000E940B25882319F41E821D8215C12981C8
:103FB0003A814B815C81D6015C96ED91FC915D97D5
:103FC0008789803129F088EF9FEFAFEFBFE004C011
:103FD00088EF9FEFA0E0B0E0281739074A075B079A
:103FE00030F0C6010E942A1F882331F4EDC0F6018B
:103FF000278330874187528780E092E088199909AA
:1040000051018215930508F45C01D6015C96ED918F
:10401000FC915D971796ED90FD900D911C911A976C
:104020008EEF9FEFAFEFBFEFE80EF91E0A1F1B1FC9
:10403000058404C0EE0CFF1C001F111F0A94D2F768
:1040400086859785A089B189E80EF91E0A1F1B1F76
:10405000E70CF11C011D111D90E0A91692E0B906B4
:1040600051F580916C0290916D02A0916E02B09119
:104070006F028E159F05A007B10761F48FEF9FEFC8
:10408000AFEFBFEF80936C0290936D02A0936E022E
:10409000B0936F028091000890910108B801A701C8
:1040A00092010E94B318882309F48EC0A0E0B2E008
:1040B0004A0E5B1E3EC08114910409F5F60123856A
:1040C00034854585568584899589A689B7892817B9
:1040D00039074A075B0798F00E949022882309F469
:1040E00073C0E0926C02F0926D0200936E02109326
:1040F0006F028091020881608093020808C0C801A5
:10410000B70141E00E94EF22882309F45DC09401C9
:1041100020503A4FA9014A0D5B1DD201F90102C09E
:104120008D918193E417F507D9F7E21BF30B4E0E3F
:104130005F1E2A183B08950140E050E0F601838598
:104140009485A585B685820F931FA41FB51F83870D
:104150009487A587B687D6011B962D913D914D91E9
:104160005C911E972114310409F0DCCE54968D9198
:104170009D910D90BC91A02D82179307A407B507C0
:1041800048F4F601248B358B468B578B85818068EC
:10419000858311C08091FE059091FF05892B59F010
:1041A0008D819E81892B39F0D60115968C911597BA
:1041B000806815968C93F601858183FF0DC0C6013A
:1041C0000E94EB1B882341F481E0D60114968C9366
:1041D000EFEFFFEFFE83ED838D819E8126960FB674
:1041E000F894DEBF0FBECDBFCF91DF911F910F912D
:1041F000FF90EF90DF90CF90BF90AF909F908F9007
:104200007F905F904F903F902F90089582FD6FCEEA
:1042100082CEDB010D900020E9F71197A61BB70BAA
:10422000AD010E94511F0895DF93CF930F92CDB738
:10423000DEB76983BE016F5F7F4F41E050E00E94AF
:10424000511F0F90CF91DF910895DF92EF92FF926F
:104250000F931F93CF93DF93EC010E942A1F8823B3
:1042600009F44EC0EC8DFD8DEF80F88409851A8528
:104270008EEF9FEFAFEFBFEFE80EF91E0A1F1B1F77
:10428000058404C0EE0CFF1C001F111F0A94D2F716
:1042900086859785A089B189E80EF91E0A1F1B1F24
:1042A000D4800894E108F108010911090BC0C80184
:1042B000B7016D0D711D811D911D0E94CB228823B8
:1042C000F9F0DA94DD2099F7EC8DFD8D20E032E0F5
:1042D00040E050E0058404C0220F331F441F551FE7
:1042E0000A94D2F78C899D89AE89BF89820F931F6A
:1042F000A41FB51F8C8B9D8BAE8BBF8B81E001C043
:1043000080E0DF91CF911F910F91FF90EF90DF90B0
:1043100008956F927F928F929F92AF92BF92CF92A9
:10432000DF92EF92FF920F931F93DF93CF93CDB75E
:10433000DEB72B970FB6F894DEBF0FBECDBF5C0182
:104340006B01822EDC0116968C91882309F0D2C075
:10435000CA018E010F5F1F4FB8010E94E41A882323
:1043600009F4C8C0F601848D958DD5015D969C93A6
:104370008E935C971782108611861286D6011B9643
:104380001D921D921D921C921E979924380141C0C6
:10439000C6010E94211EFC01009709F4ABC085E014
:1043A00016950795F794E7948A95D1F71E2D1F70FF
:1043B0008081882311F0853ED1F4992091F4D501B4
:1043C00053961C93539720916C0230916D0240914B
:1043D0006E0250916F021F962D933D934D935C9307
:1043E00052978081882399F49924939421C0C30122
:1043F000BF014BE050E00E94B92B009751F4882D8B
:104400008073803309F476C0C501612F6FC0992491
:104410009394F601E384F48405851685848995894F
:10442000A689B789E816F9060A071B0708F4B0CF72
:10443000882D8271823109F05DC0992041F0C5015B
:1044400061E00E94CE1B8C01009789F453C0D60115
:1044500016968C91823009F44DC0C6010E94252128
:10446000882309F447C0F501138A00E016E080E2D2
:10447000D8011D928A95E9F7D801FE0131968BE0AB
:1044800001900D928150E1F7E091FE05F091FF055A
:10449000309739F0B801625F7F4FC8014096199597
:1044A00009C081E298E2F801918B808B80E098E06E
:1044B00097878687D80150968D919C9151975396F6
:1044C0009C938E93529759969C938E9358971E96D1
:1044D0008D919C911F9757969C938E9356970E940F
:1044E0009022882339F0C501F5016389482D0E9487
:1044F000BC1E01C080E02B960FB6F894DEBF0FBE45
:10450000CDBFCF91DF911F910F91FF90EF90DF9082
:10451000CF90BF90AF909F908F907F906F900895B5
:1045200080910208882399F140916C0250916D02AC
:1045300060916E0270916F02809100089091010865
:1045400020E036E00E94B318882319F14091030857
:1045500050910408609105087091060841155105B5
:104560006105710591F0809100089091010820E0AB
:1045700036E00E94B318882361F01092030810926D
:10458000040810920508109206081092020881E0B3
:10459000089580E00895EF92FF920F931F937B019F
:1045A0008C010E9490228823A9F0E0E0F6E01192AD
:1045B00088E0E030F807D9F7E0926C02F0926D02E3
:1045C00000936E0210936F028091020881608093C5
:1045D000020881E01F910F91FF90EF900895DF9204
:1045E000EF92FF920F931F937B018C01D42E809149
:1045F0006C0290916D02A0916E02B0916F028E15C7
:104600009F05A007B107C1F00E9490228823D9F02E
:104610008091000890910108B801A70120E036E0E0
:104620000E949D19882379F0E0926C02F0926D024D
:1046300000936E0210936F02809102088D2980937F
:10464000020881E001C080E01F910F91FF90EF9080
:10465000DF9008958F929F92AF92BF92CF92DF9298
:10466000EF92FF920F931F93CF93DF936C01142F60
:104670007093010860930008442321F4882499244E
:10468000540140C0453008F01CC160E070E080E09B
:1046900090E040E00E94EF22882309F412C1C12F6C
:1046A000D0E02197FE0174E0EE0FFF1F7A95E1F74D
:1046B000E050FA4FE254FE4F8081EE5BF14090E013
:1046C0008F779070892B09F0FCC0E653FE4F8081F4
:1046D0009181A281B38184369105A105B10508F4C9
:1046E000F0C064E0CC0FDD1F6A95E1F7CA53D84FE4
:1046F00088809980AA80BB8081149104A104B104B0
:1047000009F4DFC0C501B40140E00E94EF22882314
:1047100009F4D7C080910B0690910C06805092400E
:1047200009F0CFC020911006222309F4CAC080915D
:104730000E0690910F06892B09F4C3C080910D06D7
:10474000882309F4BEC0F601228B80910D06848374
:10475000158661E070E007C04F5FF6014587415064
:10476000483008F0AEC0F6014585848190E09B0199
:10477000042E02C0220F331F0A94E2F78217930718
:1047800059F720911606309117062115310519F0B9
:1047900040E050E008C02091240630912506409169
:1047A000260650912706F6012583368347835087D6
:1047B000E0900E06F0900F0600E010E0E80CF91C07
:1047C0000A1D1B1DE38AF48A058B168B8091110646
:1047D00090911206918F808F6091100670E080E0BA
:1047E00090E00E94E02B6E0D7F1D801F911FF6014F
:1047F000628F738F848F958F2091110630911206EE
:1048000055E0220F331F5A95E1F721503E4F232FD9
:104810003327269540E050E0260F371F481F591FC9
:1048200026873787408B518B809113069091140611
:10483000009719F0A0E0B0E008C0809120069091A8
:104840002106A0912206B091230685017401E21A87
:10485000F30A040B150BA8019701280F391F4A1FF3
:104860005B1FF601058404C056954795379527953B
:104870000A94D2F72187328743875487253FFFE088
:104880003F07F0E04F07F0E05F0710F48CE006C050
:10489000255F3F4F4040504028F480E1F601878B70
:1048A00081E010C080912C0690912D06A0912E06DB
:1048B000B0912F06F601828F938FA48FB58F80E27F
:1048C000EECF80E0DF91CF911F910F91FF90EF909D
:1048D000DF90CF90BF90AF909F908F9008954F92B0
:1048E0005F926F927F928F929F92AF92BF92CF9280
:1048F000DF92EF92FF920F931F93CF93DF93EC0120
:104900006A017B01280139014230510561057105B9
:1049100008F46FC089859A85AB85BC850196A11D79
:10492000B11D84179507A607B70708F462C02B8945
:104930003C894D895E898F89803129F499278F2D93
:104940007E2D6D2D09C0C701B60117E0969587959C
:10495000779567951A95D1F74B015C01820E931EEE
:10496000A41EB51E80916C0290916D02A0916E0202
:10497000B0916F0288169906AA06BB0639F0C501E8
:10498000B40140E00E94EF22882399F18F898031A1
:1049900049F4F601F070EE0FFF1FE050FA4F51821C
:1049A00040820DC0F601EF77F070EE0FFF1FEE0FA3
:1049B000FF1FE050FA4F40825182628273828091E1
:1049C00002088160809302088A89823080F08D819C
:1049D0009E81AF81B885880E991EAA1EBB1E80924B
:1049E000030890920408A0920508B092060881E09E
:1049F00001C080E0DF91CF911F910F91FF90EF9068
:104A0000DF90CF90BF90AF909F908F907F906F90EE
:104A10005F904F900895CF92DF92EF92FF920F93A5
:104A20001F93CF93DF93EC017A018B016901898594
:104A30009A85AB85BC850196A11DB11D841795078C
:104A4000A607B70708F450C02B893C894D895E89B9
:104A50008F89803129F49927812F702F6F2D09C0FC
:104A6000C801B701E7E09695879577956795EA9530
:104A7000D1F7260F371F481F591F80916C02909164
:104A80006D02A0916E02B0916F02281739074A0794
:104A90005B0739F0CA01B90140E00E94EF22882388
:104AA00019F18F89803159F4F701F070EE0FFF1F73
:104AB000E050FA4F80819181A0E0B0E00EC0F70194
:104AC000EF77F070EE0FFF1FEE0FFF1FE050FA4F71
:104AD00080819181A281B381BF70F601808391832F
:104AE000A283B38381E001C080E0DF91CF911F9169
:104AF0000F91FF90EF90DF90CF900895AF92BF920B
:104B0000CF92DF92EF92FF920F931F93DF93CF9399
:104B100000D00F92CDB7DEB76C017A018B0182E035
:104B200090E0A0E0B0E0F60180839183A283B3839C
:104B30005E010894A11CB11CC601B801A701950132
:104B40000E940B25882319F1C601B801A70100E0D6
:104B500010E020E030E00E946F248823C1F0E9805B
:104B6000FA800B811C81F6018789803129F088EF5A
:104B70009FEFAFEFBFE004C088EF9FEFA0E0B0E091
:104B8000E816F9060A071B07B8F281E001C080E0C9
:104B90000F900F900F900F90CF91DF911F910F9179
:104BA000FF90EF90DF90CF90BF90AF9008954F921D
:104BB0005F926F927F928F929F92AF92BF92CF92AD
:104BC000DF92EF92FF920F931F93DF93CF9300D06A
:104BD0000F92CDB7DEB76C0149835A836B837C8318
:104BE0003901EE24FF2487012E010894411C511C39
:104BF000812CA2E09A2EA12CB12C49815A816B8183
:104C00007C81C60192010E940B25882351F1D501B8
:104C1000C401F601058404C0880F991FAA1FBB1F99
:104C20000A94D2F7E80EF91E0A1F1B1F29813A8148
:104C30004B815C818789803129F088EF9FEFAFEF4E
:104C4000BFE004C088EF9FEFA0E0B0E0281739076D
:104C50004A075B0790F2F301E082F182028313833B
:104C600081E00F900F900F900F90CF91DF911F91E7
:104C70000F91FF90EF90DF90CF90BF90AF909F90FB
:104C80008F907F906F905F904F9008952F923F92FA
:104C90004F925F926F927F928F929F92AF92BF924C
:104CA000CF92DF92EF92FF920F931F93DF93CF93F8
:104CB000CDB7DEB72F970FB6F894DEBF0FBECDBFCE
:104CC0001C014A875B876C877D873F872E87D901C8
:104CD0000D911D912D913C91011511052105310575
:104CE00049F0480159010894811C911CA11CB11C78
:104CF000198610C0FC0180809180A280B380198643
:104D00008A859B85AC85BD850197A105B10511F408
:104D100091E09987D10119968D919D910D90BC914B
:104D2000A02D0196A11DB11D8D839E83AF83B887F1
:104D3000750164014424552432018E010F5F1F4F19
:104D4000F10181859285A385B485481659066A06C6
:104D50007B0608F090C08D819E81AF81B8858C154F
:104D60009D05AE05BF0550F482E0882E912CA12C44
:104D7000B12CB2E0CB2ED12CE12CF12CC101B7012A
:104D8000A60198010E940B25882309F474C089812B
:104D90009A81AB81BC81A70196012F5F3F4F4F4F96
:104DA0005F4F0097A105B10519F049015A010DC0E7
:104DB000281939094A095B098A859B85AC85BD8517
:104DC000281739074A075B0759F00894411C511C02
:104DD000611C711C0894C11CD11CE11CF11CB0CFDA
:104DE000C101A601B7010FEF1FEF2FEF3FE00E94B7
:104DF0006F24882399F43FC02601370108944108A5
:104E0000510861087108C101B301A201970186012F
:104E10000E946F24882379F1730162018C149D0430
:104E2000AE04BF0448F3AE85BF854D915D916D9191
:104E30007C91411551056105710539F0C10195015C
:104E400084010E946F248823B1F0EE85FF85808263
:104E50009182A282B382F985FF2359F00894811CC4
:104E6000911CA11CB11CD1018D929D92AD92BC925E
:104E7000139781E001C080E02F960FB6F894DEBF53
:104E80000FBECDBFCF91DF911F910F91FF90EF909B
:104E9000DF90CF90BF90AF909F908F907F906F905A
:104EA0005F904F903F902F900895882319F48CB510
:104EB000806202C08CB58F7D8CBD08959CB5937FB8
:104EC000982B9CBD08952CB5382F33702C7F322B36
:104ED0003CBD2DB590E0959587959595879581700A
:104EE0002E7F822B8DBD089584E361E00E946909C5
:104EF00083E361E00E94690985E361E00E9469093A
:104F000084E360E00E941C0A83E360E00E941C0AC4
:104F100085E361E00E941C0A8CB580618CBD8CB574
:104F200080648CBD0895FC011382128286EB92E0AE
:104F300091838083758364835783468371876087F9
:104F400053874287158A158614861786168621E0B0
:104F5000248B8FEF9FEF938B828B918B808B268B93
:104F600008952F923F924F925F926F927F928F920D
:104F70009F92AF92BF92CF92DF92EF92FF920F93E8
:104F80001F93DF93CF9300D00F92CDB7DEB73C01D4
:104F90007C836B836A015901FA82E98222243324DB
:104FA0009801241B350B37FF03C0309521953F4FE7
:104FB000C5014B815C81841B950B97FF03C09095C5
:104FC00081959F4F821793075CF481E0282E312C46
:104FD000C601CB80DC809C838B83C80185015C018A
:104FE0008B819C81A816B90644F4C501AB80BC80B6
:104FF0009C838B83C80186016C012501AB81BC8138
:105000004A1A5B0A7801EC18FD08F7FE04C0F09418
:10501000E194F108F394C016D10624F088248A9410
:10502000982C03C0B1E08B2E912CC20162E070E09D
:105030000E94132C8B0125C0D301ED91FC9121140A
:10504000310441F00480F581E02DC301B6014B81AC
:105050005C8107C00480F581E02DC3016B817C81F8
:10506000A60129813A8119950E191F0917FF04C05D
:10507000C80CD91C040D151DEB81FC813196FC83F5
:10508000EB834B815C81A416B506B4F60F900F90AC
:105090000F900F90CF91DF911F910F91FF90EF90A4
:1050A000DF90CF90BF90AF909F908F907F906F9048
:1050B0005F904F903F902F9008954F925F926F9224
:1050C0007F928F929F92AF92BF92CF92DF92EF9298
:1050D000FF920F931F936C015B014A013901280174
:1050E000DC01ED91FC910284F385E02D8701199597
:1050F000D601ED91FC91A40141505040440D551D45
:105100000284F385E02DC601B50193011995D601FE
:10511000ED91FC910084F185E02DC601B501A4015B
:1051200092011995D601ED91FC910894A108B1085E
:10513000A60CB71C0084F185E02DC601B501A401C1
:10514000920119951F910F91FF90EF90DF90CF90F2
:10515000BF90AF909F908F907F906F905F904F9097
:105160000895CF92DF92EF92FF920F931F93DC018D
:105170006B017801ED91FC918A0101501040020F02
:10518000131F0680F781E02D960119951F910F914D
:10519000FF90EF90DF90CF900895CF92DF92EF9243
:1051A000FF920F931F93DC016A01C9017801ED9111
:1051B000FC9111979B0121503040280F391F068028
:1051C000F781E02DCD01860119951F910F91FF9078
:1051D000EF90DF90CF9008956F927F928F929F9281
:1051E000AF92BF92CF92DF92EF92FF920F931F93F5
:1051F000CF93DF935C013A0169014801EB01C60ED0
:10520000D71E0DC0D501ED91FC910084F185E02DF4
:10521000C501BE01A3019401870119952196CC1502
:10522000DD0584F3DF91CF911F910F91FF90EF90F7
:10523000DF90CF90BF90AF909F908F907F906F90B6
:105240000895EF92FF920F931F93FC017B01A081C1
:10525000B18120853185028513851E960D90BC9104
:10526000A02D60E070E040E050E0FD0119951F9135
:105270000F91FF90EF9008952F923F924F925F927F
:105280006F927F928F929F92AF92BF92CF92DF9256
:10529000EF92FF920F931F93DF93CF93CDB7DEB7BB
:1052A0002F970FB6F894DEBF0FBECDBF5C015E83B3
:1052B0004D8318870F83FA86E986CB86DC01189622
:1052C0008D919C911997681779070CF0A4C01A96D4
:1052D0008D919C911B97481759070CF09CC0EC2DA1
:1052E000F0E0FF87EE87CF01880F991F8E0F9F1F79
:1052F000880F991F860F971F181619060CF08BC080
:10530000CF01F3E0880F991FFA95E1F7840F951FFD
:10531000181619060CF07FC085E0289FA001112403
:105320005A8349832B011B011C825C81553011F487
:1053300080E005C0E981FA81E550FD4F84912C861B
:105340003D866D807E8043011B82C82EDD2480FF58
:105350001CC0D501ED91FC91BB85B13049F40480AE
:10536000F581E02DC501B201A3012F81388522C04E
:105370000684F785E02DC5016C857D85A4012E8509
:105380003F858901EF80F88423C0E985FA852F8164
:105390003885E217F307E9F0D501ED91FC91BB8563
:1053A000B13051F40480F581E02DC501B201A301B3
:1053B00029853A8519950DC00684F785E02DC5012C
:1053C0006C857D85A4012E853F858901E984FA8459
:1053D0001995EB81EF5FEB832E853F85820E931E3F
:1053E0000894611C711CE83021F0D594C7948C2D71
:1053F000ACCF3C813F5F3C834E855F85240E351EDC
:105400000894411C511C89819A8101969A83898351
:10541000363009F08ACF2F960FB6F894DEBF0FBE54
:10542000CDBFCF91DF911F910F91FF90EF90DF9053
:10543000CF90BF90AF909F908F907F906F905F9034
:105440004F903F902F900895CF92EF92FF920F933D
:105450001F93CF93DF93EC01262F6A3061F42C89E0
:1054600030E003E0220F331F0A95E1F78E859F8518
:10547000820F931F37C06D30C9F16C857D854E85D5
:105480005F8508891989EA88FB88CC880E943C29B5
:105490002C8986E0289FB00111248C859D85680F9A
:1054A000791F7D876C878E89882301F1422F50E018
:1054B0008AEF9FEF9C01429FC001439F900D529F36
:1054C000900D112428853985820F931F8617970721
:1054D0006CF413E0440F551F1A95E1F78E859F85F4
:1054E000840F951F9F878E871D861C8681E090E024
:1054F000DF91CF911F910F91FF90EF90CF90089582
:1055000008950F931F93CF93DF93BC0182309105D1
:1055100010F462E070E0E0910908F0910A08A0E060
:10552000B0E040E050E024C0808191818617970769
:10553000D0F08617970771F482819381109729F034
:1055400013969C938E9312972CC090930A08809385
:10555000090827C04115510519F08417950718F45B
:10556000EF018D01AC01DF01828193819C01F90182
:105570003097D1F641155105F9F0CA01861B970BFA
:105580008430910580F48A819B810115110521F0F9
:10559000F8019383828304C090930A0880930908DA
:1055A000FE01329645C0FE01E80FF91F6193719329
:1055B0000297998388833CC08091070890910808DE
:1055C000892B41F48091590290915A0290930808D6
:1055D0008093070840915B0250915C024115510590
:1055E00041F44DB75EB78091570290915802481B25
:1055F000590B209107083091080824173507B0F49B
:10560000CA01821B930B8617970780F0AB014E5F90
:105610005F4F8417950750F0420F531F50930808AF
:1056200040930708F9016193719302C0E0E0F0E054
:10563000CF01DF91CF911F910F910895CF93DF9309
:105640009C01009709F48FC0EC0122971B821A82FB
:105650006091090870910A086115710581F48881CB
:105660009981820F931F209107083091080828170D
:10567000390739F5D0930808C093070874C0DB01D7
:1056800040E050E0AC17BD0708F1BB83AA83FE01E0
:1056900021913191E20FF31FAE17BF0779F48D917D
:1056A0009C911197280F391F2E5F3F4F3983288314
:1056B00012968D919C9113979B838A834115510576
:1056C00071F4D0930A08C09309084DC012968D91C9
:1056D0009C911397AD01009711F0DC01D3CFDA0153
:1056E0001396DC93CE931297FA0121913191E20F38
:1056F000F31FCE17DF0769F488819981280F391FBE
:105700002E5F3F4FFA01318320838A819B819383EF
:105710008283E0E0F0E0DB0112968D919C9113977B
:10572000009719F0BC01FD01F6CFAB014E5F5F4F52
:10573000DB018D919C91840F951F2091070830917A
:1057400008082817390779F4309729F410920A08C5
:105750001092090802C013821282425050405093A6
:10576000080840930708DF91CF910895F8940C94AE
:105770004E2CFB01DC0104C08D910190801921F4B5
:1057800041505040C8F7881B990B0895FC01819146
:10579000861721F08823D9F7992708953197CF01EB
:1057A0000895FB01DC014150504048F001900D92FA
:1057B0000020C9F701C01D9241505040E0F7089504
:1057C000629FD001739FF001829FE00DF11D649FE5
:1057D000E00DF11D929FF00D839FF00D749FF00D71
:1057E000659FF00D9927729FB00DE11DF91F639F12
:1057F000B00DE11DF91FBD01CF0111240895AA1BB1
:10580000BB1B51E107C0AA1FBB1FA617B70710F0AB
:10581000A61BB70B881F991F5A95A9F780959095DD
:10582000BC01CD01089597FB092E07260AD077FD0C
:1058300004D0E5DF06D000201AF4709561957F4F03
:105840000895F6F7909581959F4F0895A1E21A2E3D
:10585000AA1BBB1BFD010DC0AA1FBB1FEE1FFF1F14
:10586000A217B307E407F50720F0A21BB30BE40B64
:10587000F50B661F771F881F991F1A9469F76095AB
:105880007095809590959B01AC01BD01CF01089565
:10589000EE0FFF1F0590F491E02D1994F894FFCFBF
:1058A00046696C65206E6F7420666F756E643A276A
:1058B0000053442043617264205265616420457244
:1058C000726F722100496E697469616C697A696EE0
:1058D0006720534420636172642E2E2E0066616936
:1058E0006C656421004F4B21007965672D62696703
:1058F0002E6C6364002F0020000B08000040005055
:10590000005802A80249020008000801FFFFFFFF3B
:10591000000000004D0DA50EE10C120DF20C3B0D28
:1059200000000000242AA50E3610B1277410C610FE
:105930005D2833111811AB11000000002613F51378
:1059400039139B13B91386130214000000001421AD
:10595000A50E00000000242AA50EA40EB127B12830
:0A596000CD285D28EC282129802ABB
:00000001FF
