:100000000C9403010C942F010C942F010C942F01DC
:100010000C942F010C942F010C942F010C942F01A0
:100020000C942F010C942F010C942F010C942F0190
:100030000C942F010C942F010C942F010C942F0180
:100040000C942F010C942F010C942F010C942F0170
:100050000C942F010C942F010C942F010C94110679
:100060000C942F010C9439080C9419090C942F014D
:100070000C942F010C942F010C942F010C942F0140
:100080000C942F010C942F010C942F010C942F0130
:100090000C9471080C9458090C942F010C942F01A6
:1000A0000C942F010C942F010C942F010C942F0110
:1000B0000C942F010C942F010C942F010C942F0100
:1000C0000C942F010C942F010C942F010C94A9086F
:1000D0000C9497090C942F010C94E1080C94D60908
:1000E0000C942F0100002100240027002A002D007D
:1000F0003000330001010000040107010A01000083
:100100002200250028002B002E00310034000201BF
:100110000000050108010B0100002000230026005B
:1001200029002C002F00320000010000030106010D
:10013000090105050505070508080808020202026D
:100140000A0A080804040404010101010101010173
:100150000303030303030303040707070C0C0C0C3E
:100160000C0C0C0C02020202060606060606060627
:100170000B0B0B0B0B0B0B0B0102102020080810B4
:100180002040102040800201020108040201010207
:1001900004081020408080402010080402018004E0
:1001A000020180402010080402010804020101023B
:1001B0000408102040800102040810204080000044
:1001C000090A02080B0C0D070603040100000000D9
:1001D000000000000000000000000000000000001F
:1001E0000000000000000000000011100F000000DF
:1001F00000000000000000000000000000000000FF
:1002000000000000400B11241FBECFEFD1E2DEBF83
:10021000CDBF00E00CBF14E0A0E0B2E0E8E1FCE1FB
:1002200000E00BBF02C007900D92A639B107D9F7C5
:1002300017E0A6E9B4E001C01D92AB33B107E1F7C6
:1002400012E0C6E0D2E004C02297FE010E94060E32
:10025000C430D107C9F70E9474050C94C00D0C94EA
:1002600000002F923F924F925F926F927F928F92F7
:100270009F92AF92BF92CF92DF92EF92FF920F9335
:100280001F933B014C0117012801CA01B901A801C4
:1002900097010E94E20DAC01CB01DA015C016D0116
:1002A000EE24FF24870127C0C30181709070892B41
:1002B00079F0EA0CFB1C0C1D1D1DC801B701A20141
:1002C00091010E94E20DAC01CB01DA017C018D01AC
:1002D000AA0CBB1CCC1CDD1CC601B501A2019101FE
:1002E0000E94E20DAC01CB01DA015C016D01969434
:1002F0008794779467946114710481049104A1F642
:10030000B701C8011F910F91FF90EF90DF90CF9040
:10031000BF90AF909F908F907F906F905F904F9025
:100320003F902F9008952F923F924F925F926F923D
:100330007F928F929F92AF92BF92CF92DF92EF9275
:10034000FF920F931F9339014A012FEF3FEF4FEFB9
:100350005FE70E94E20D1B012C01B1E0AB2EB12C36
:10036000C12CD12C26C060FE10C0C601B501910180
:10037000A201AFEFEA2EAFEFFA2EAFEF0A2FAFE7F1
:100380001A2F0E9431015B016C0196948794779437
:100390006794B101C2019101A201EFEFEE2EEFEFE0
:1003A000FE2EEFEF0E2FEFE71E2F0E9431011B01F3
:1003B0002C016114710481049104A9F6B501C601F0
:1003C0001F910F91FF90EF90DF90CF90BF90AF9073
:1003D0009F908F907F906F905F904F903F902F9065
:1003E00008954F925F926F927F928F929F92AF92F9
:1003F000BF92CF92DF92EF92FF920F931F935CE137
:10040000452E57E0552EC2010E94CC0A3C01C20184
:100410000E94CC0A7C01C2010E94CC0A5C01C2018C
:100420000E94CC0A0027F7FC0095102F102F0F2DEB
:10043000FE2CEE24CC24B7FCC094DC2C6501BB243C
:10044000AA24EA28FB280C291D29882477FC8094FB
:10045000982CE628F72808291929AA2797FDA0959E
:10046000BA2FB82FAA2799278827E82AF92A0A2B12
:100470001B2BB701C8011F910F91FF90EF90DF90E8
:10048000CF90BF90AF909F908F907F906F905F9034
:100490004F9008959F92AF92BF92CF92DF92EF92CA
:1004A000FF920F931F93162F072FF82EE92E8FEB35
:1004B00096E06FE972E00E94AA0D212F302F4F2D98
:1004C0005E2DC901DA015C016D018CE197E00E94AB
:1004D0009B0A892BD1F38CE197E00E94CC0A982EDD
:1004E0009A24C601B501807090702FE83CEB40E083
:1004F00050E00E94C30D7B018C01B601882799272B
:100500000E94C30D5B016C01FFE0D694C794B794C1
:10051000A794FA95D1F7AE0CBF1CC01ED11E7F77F1
:1005200080709070CB0177276627A60EB71EC81E75
:10053000D91ED7FE08C081E090E0A0E0B0E8A80E88
:10054000B91ECA1EDB1E992071F48FEB96E00E9443
:10055000900C1F910F91FF90EF90DF90CF90BF9084
:10056000AF909F9008958FEB96E0692D0E94880CC4
:100570008CE197E00E949B0A892BD1F3A6CFCF9202
:10058000DF92EF92FF920F931F937B018C012CE17E
:10059000C22E27E0D22EC6016E2D0E94070B5527D2
:1005A000412F302F2F2DC601622F0E94070B98017B
:1005B00044275527C601622F0E94070BE12EFF2416
:1005C00000271127C6016E2D0E94070B1F910F9166
:1005D000FF90EF90DF90CF9008958DE00E94090882
:1005E00020E0019709F421E0822F08958F929F92D5
:1005F000AF92BF92CF92DF92EF92FF921F93CF9371
:10060000DF93182F4A015B010E9459066B017C01A0
:10061000C80CD91CEA1CFB1CC12FD0E08CE197E070
:100620000E949B0A8C179D0784F4B7FC07C00E94A8
:1006300059066C157D058E059F0538F461E070E064
:1006400080E090E00E946706E9CF8CE197E00E948D
:100650009B0A20E08C179D070CF021E0822FDF9190
:10066000CF911F91FF90EF90DF90CF90BF90AF9010
:100670009F908F900895AF92BF92CF92DF92EF92AA
:10068000FF920F931F93CF93DF937B018C0159014E
:100690006A018FEB96E063EF72E00E94AD0D03C03C
:1006A000C1E0D0E011C085E048EE53E060E070E0CA
:1006B0000E94F6028823B9F38CE197E00E94CC0AED
:1006C0008334910581F7ECCFC130D105E1F40E946C
:1006D000F1017B018C018FEB96E06DE073E00E94ED
:1006E000AA0D8FEB96E0A701B8012AE030E00E9446
:1006F000370D8CE197E061E40E94070BC601B5015C
:100700000E94BF0226C0C330D10571F48CE197E08E
:100710000E94CC0A813419F4C4E0D0E0D5CF8334F0
:1007200099F6C2E0D0E0D0CFC230D105A9F40E9442
:10073000F1017B018C018FEB96E06DE073E00E948C
:10074000AA0D8FEB96E0A701B8012AE030E00E94E5
:10075000370DC3E0D0E0B8CF249709F0A4CF8FEBDA
:1007600096E063E273E00E94AD0DB701C801DF912E
:10077000CF911F910F91FF90EF90DF90CF90BF909E
:10078000AF900895AF92BF92CF92DF92EF92FF9217
:100790000F931F937B018C0159016A0180E090E067
:1007A0000097F1F48CE197E063E40E94070BC80125
:1007B000B7010E94BF028FEB96E061E473E00E94F4
:1007C000AA0D8FEB96E063E40E94880C8FEB96E015
:1007D000B801A7012AE030E00E94370D81E090E0E7
:1007E0008130910551F585E048EE53E060E070E01E
:1007F0000E94F6028823B1F28CE197E00E94CC0AB5
:100800008134910579F60E94F1015B016C018FEB57
:1008100096E06CE473E00E94AA0D8FEB96E0A501D0
:10082000B6012AE030E00E94370D8CE197E061E4E8
:100830000E94070B82E090E0D3CF8230910509F04F
:10084000AFCFB501C6011F910F91FF90EF90DF90E0
:10085000CF90BF90AF900895EF92FF920F931F93A8
:10086000CF93DF938FEB96E062E673E00E94AD0DCD
:10087000EE24FF248701C0E0D0E080E00E94220740
:10088000A8019701220F331F441F551F7C01002729
:10089000F7FC0095102F81E090E0A0E0B0E0E822A6
:1008A000F9220A231B23E20EF31E041F151F64E620
:1008B00070E080E090E00E9467062196C032D1058A
:1008C000E1F68FEB96E06FE773E00E94AD0DB701A4
:1008D000C801DF91CF911F910F91FF90EF90089584
:1008E000FF920F931F93CF93DF93EC01198218822D
:1008F00000E010E08FEB96E00E949B0A892BD1F379
:100900008FEB96E00E949B0A181619069CF781E06F
:10091000043F180719F4CC50DE4F0DC08FEB96E062
:100920000E94CC0AF82E8DE0F81619F08AE0F8162D
:1009300071F4C00FD11F18828FEB96E00E94900CCB
:10094000C801DF91CF911F910F91FF9008958FEB18
:1009500096E06F2D0E94880CFE01E00FF11FF082DF
:100960000F5F1F4FC7CF2F923F924F925F926F92B0
:100970007F928F929F92AF92BF92CF92DF92EF922F
:10098000FF920F931F93DF93CF9300D000D0CDB78A
:10099000DEB71C014B835C836D837E832DB73EB72E
:1009A0003A8329838FEB96E064E074E00E94AA0DFD
:1009B000C1010E9470043C010196ADB7BEB7A81BEF
:1009C000B90B0FB6F894BEBF0FBEADBF4DB65EB645
:1009D0000894411C511C2B813C814D815E81C901D1
:1009E000DA015C016D01882499243EC0D201A80D72
:1009F000B91DF101E80DF91D80818A258C93C6018E
:100A0000B501807090702FE83CEB40E050E00E9410
:100A1000C30D7B018C01B601882799270E94C30D65
:100A20005B016C01FFE0D694C794B794A794FA9544
:100A3000D1F7AE0CBF1CC01ED11E7F7780709070A6
:100A4000CB0177276627A60EB71EC81ED91ED7FE74
:100A500008C081E090E0A0E0B0E8A80EB91ECA1E70
:100A6000DB1E0894811C911C681479040CF0BECF25
:100A7000A3014F5F5F4F8CE197E0B2010E945E0CD3
:100A80008C018FEB96E06DE074E00E94AA0D8FEB75
:100A900096E0B8014AE050E00E948B0D94EF691691
:100AA00091E0790609F47ECFA981BA810FB6F89456
:100AB000BEBF0FBEADBF26960FB6F894DEBF0FBE09
:100AC000CDBFCF91DF911F910F91FF90EF90DF90FD
:100AD000CF90BF90AF909F908F907F906F905F90DE
:100AE0004F903F902F900895AF92BF92CF92DF9298
:100AF000EF92FF920F931F93DF93CF93CDB7DEB7A3
:100B0000C55FD1400FB6F894DEBF0FBECDBF0E94C7
:100B1000C0068DE060E00E9456078FEB96E040E84B
:100B200055E260E070E00E94150A8CE197E040E831
:100B300055E260E070E00E94150A0E942C045B01FF
:100B40006C010E94ED02882349F18FEB96E06AE187
:100B500074E00E94AD0D67EA71E480E090E0A601C8
:100B600095011FEFE12E1FEFF12E1FEF012F1FE761
:100B7000112F0E9493019B01AC0160E070E080E0C6
:100B800090E00E943B03A60195010E9493017B0126
:100B90008C018FEB96E06CE274E026C08FEB96E060
:100BA0006FE474E00E94AD0D67EA71E480E090E0CC
:100BB000A6019501BFEFEB2EBFEFFB2EBFEF0B2F72
:100BC000BFE71B2F0E94930120E030E040E050E09F
:100BD0000E94C203A60195010E9493017B018C0132
:100BE0008FEB96E061E674E00E94AD0D6E01089413
:100BF000C11CD11C8CE197E00E949B0A892B29F033
:100C0000C801B7010E944A02F5CF8FEB96E00E941F
:100C10009B0A892B79F3C601B801A7010E94B3048E
:100C2000E9CF1F920F920FB60F9211242F933F938B
:100C30008F939F93AF93BF9380919A0490919B045D
:100C4000A0919C04B0919D0430919E040196A11D39
:100C5000B11D232F2D5F2D3720F02D570196A11D9B
:100C6000B11D20939E0480939A0490939B04A093BB
:100C70009C04B0939D048091960490919704A09158
:100C80009804B09199040196A11DB11D809396041A
:100C900090939704A0939804B0939904BF91AF9157
:100CA0009F918F913F912F910F900FBE0F901F90AA
:100CB00018958FB7F89420919A0430919B04409135
:100CC0009C0450919D048FBFB901CA0108959B01F6
:100CD000AC017FB7F8948091960490919704A0910D
:100CE0009804B091990466B5A89B05C06F3F19F0B0
:100CF0000196A11DB11D7FBFBA2FA92F982F88275C
:100D0000860F911DA11DB11D62E0880F991FAA1FBA
:100D1000BB1F6A95D1F7BC012DC0FFB7F894809135
:100D2000960490919704A0919804B0919904E6B527
:100D3000A89B05C0EF3F19F00196A11DB11DFFBF93
:100D4000BA2FA92F982F88278E0F911DA11DB11D95
:100D5000E2E0880F991FAA1FBB1FEA95D1F7861BF7
:100D6000970B885E9340C8F221503040404050407D
:100D700068517C4F211531054105510571F60895E3
:100D8000789484B5826084BD84B5816084BD85B566
:100D9000826085BD85B5816085BDEEE6F0E080812D
:100DA00081608083E1E8F0E010828081826080834E
:100DB000808181608083E0E8F0E0808181608083D1
:100DC000E1EBF0E0808184608083E0EBF0E0808103
:100DD00081608083E1E9F0E08081826080838081AE
:100DE00081608083E0E9F0E0808181608083E1EAD6
:100DF000F0E0808182608083808181608083E0EA8E
:100E0000F0E0808181608083E1E2F1E080818260B6
:100E10008083808181608083E0E2F1E08081816075
:100E20008083EAE7F0E08081846080838081826053
:100E3000808380818160808380818068808310923C
:100E4000C1000895382F863308F0365320917B0077
:100E5000832F86958695869590E08170907043E00B
:100E6000880F991F4A95E1F7277F282B20937B0055
:100E70003770809184048295880F880F807C832B43
:100E800080937C0080917A00806480937A008091C6
:100E90007A0086FDFCCF2091780040917900942F54
:100EA00080E030E0282B392BC9010895CF93DF93E0
:100EB000482F50E0CA0188589E4FFC0134914E5C87
:100EC0005E4FFA018491882369F190E0880F991FA1
:100ED000FC01EC51FF4FA591B491FC01E250FF4F92
:100EE000C591D491662351F42FB7F8948C91932F28
:100EF000909589238C93888189230BC0623061F49B
:100F00002FB7F8948C91932F909589238C93888197
:100F1000832B88832FBF06C09FB7F8948C91832BB7
:100F20008C939FBFDF91CF910895893009F449C018
:100F30008A30A0F4843051F1853040F4823079F168
:100F4000833000F5813009F063C026C0873079F125
:100F5000883098F5863009F05BC025C08D3009F4E3
:100F600042C08E3028F48B30B1F18C30C0F52DC0EA
:100F7000803109F442C0813109F445C08F3009F055
:100F800047C037C0809180008F7703C08091800078
:100F90008F7D80938000089584B58F7702C084B5DB
:100FA0008F7D84BD08958091B0008F7703C08091BC
:100FB000B0008F7D8093B0000895809190008F776E
:100FC00007C0809190008F7D03C080919000877F43
:100FD0008093900008958091A0008F7707C0809142
:100FE000A0008F7D03C08091A000877F8093A00028
:100FF0000895809120018F7703C0809120018F7D1B
:1010000080932001089580912001877F80932001A3
:1010100008950F931F93482F50E0CA0182549E4FAA
:10102000FC012491CA0188589E4FFC0104914E5C3A
:101030005E4FFA011491112319F420E030E015C03D
:10104000222319F0822F0E949507812F90E0880FAC
:10105000991F885E9E4FFC01A591B4918C9120E070
:1010600030E0802311F021E030E0C9011F910F91A1
:1010700008951F920F920FB60F920BB60F92112484
:101080002F933F934F938F939F93EF93FF934091B1
:10109000C6002091DF043091E0042F5F3F4F2F7393
:1010A00030708091E1049091E2042817390759F0DB
:1010B000E091DF04F091E004E156FB4F4083309370
:1010C000E0042093DF04FF91EF919F918F914F9166
:1010D0003F912F910F900BBE0F900FBE0F901F905E
:1010E00018951F920F920FB60F920BB60F92112404
:1010F0002F933F934F938F939F93EF93FF93409141
:10110000CE0020916705309168052F5F3F4F2F7308
:1011100030708091690590916A052817390759F058
:10112000E0916705F0916805E95DFA4F40833093DF
:10113000680520936705FF91EF919F918F914F91E3
:101140003F912F910F900BBE0F900FBE0F901F90ED
:1011500018951F920F920FB60F920BB60F92112493
:101160002F933F934F938F939F93EF93FF934091D0
:10117000D6002091EF053091F0052F5F3F4F2F7380
:1011800030708091F1059091F2052817390759F0D8
:10119000E091EF05F091F005E155FA4F408330936F
:1011A000F0052093EF05FF91EF919F918F914F9163
:1011B0003F912F910F900BBE0F900FBE0F901F907D
:1011C00018951F920F920FB60F920BB60F92112423
:1011D0002F933F934F938F939F93EF93FF93409160
:1011E000360120917706309178062F5F3F4F2F739D
:1011F00030708091790690917A062817390759F056
:10120000E0917706F0917806E95CF94F40833093DE
:10121000780620937706FF91EF919F918F914F91E0
:101220003F912F910F900BBE0F900FBE0F901F900C
:1012300018951F920F920FB60F920BB60F921124B2
:101240002F933F938F939F93EF93FF9320912305C9
:10125000309124058091250590912605281739079E
:1012600031F48091C1008F7D8093C10014C0E09162
:101270002505F0912605ED51FB4F20818091250534
:101280009091260501968F73907090932605809318
:1012900025052093C600FF91EF919F918F913F917B
:1012A0002F910F900BBE0F900FBE0F901F901895AF
:1012B0001F920F920FB60F920BB60F9211242F931D
:1012C0003F938F939F93EF93FF932091AB053091C2
:1012D000AC058091AD059091AE052817390731F422
:1012E0008091C9008F7D8093C90014C0E091AD0545
:1012F000F091AE05E559FA4F20818091AD059091AE
:10130000AE0501968F7390709093AE058093AD05F6
:101310002093CE00FF91EF919F918F913F912F915C
:101320000F900BBE0F900FBE0F901F9018951F923D
:101330000F920FB60F920BB60F9211242F933F937B
:101340008F939F93EF93FF93209133063091340650
:1013500080913506909136062817390731F480912F
:10136000D1008F7D8093D10014C0E0913506F091BB
:101370003606ED50FA4F2081809135069091360661
:1013800001968F7390709093360680933506209364
:10139000D600FF91EF919F918F913F912F910F90E8
:1013A0000BBE0F900FBE0F901F9018951F920F92BB
:1013B0000FB60F920BB60F9211242F933F938F937A
:1013C0009F93EF93FF932091BB063091BC068091D1
:1013D000BD069091BE062817390731F4809131017E
:1013E0008F7D8093310114C0E091BD06F091BE065F
:1013F000E558F94F20818091BD069091BE06019677
:101400008F7390709093BE068093BD062093360133
:10141000FF91EF919F918F913F912F910F900BBE74
:101420000F900FBE0F901F901895AF92BF92DF9252
:10143000EF92FF920F931F93CF93DF93EC017A010A
:101440008B01DD24403081EE580780E0680780E0A2
:10145000780711F0DD24D39491E0A92EB12CEC890A
:10146000FD89DD2069F0C5010E8C02C0880F991F2F
:101470000A94E2F7808360E079E08DE390E005C0B4
:10148000108260E874E88EE190E0A80197010E9464
:10149000E20D2150304040405040569547953795D9
:1014A000279580E12030380720F0DD2011F0DD2481
:1014B000D6CFE889F9893083EA89FB892083EE89D0
:1014C000FF89408121E030E0C9010A8C02C0880F09
:1014D000991F0A94E2F7482B4083EE89FF894081E7
:1014E000C9010B8C02C0880F991F0A94E2F7482BA0
:1014F0004083EE89FF894081C9010C8C02C0880FAE
:10150000991F0A94E2F7482B4083EE89FF89808176
:101510000D8C02C0220F331F0A94E2F72095282376
:101520002083DF91CF911F910F91FF90EF90DF907B
:10153000BF90AF900895DC011C96ED91FC911D9732
:10154000E05CFF4F2191319180819181281B390B03
:101550002F733070C9010895DC011C96ED91FC9148
:101560001D97E05CFF4F20813181E054F040DF01A6
:10157000AE5BBF4F8D919C9111972817390719F4D5
:101580002FEF3FEF07C08D919C91E80FF91F8081ED
:10159000282F30E0C9010895DC011C96ED91FC91E3
:1015A0001D97E05CFF4F20813181E054F040DF0166
:1015B000AE5BBF4F8D919C9111972817390719F495
:1015C0002FEF3FEF10C08D919C911197E80FF91FFD
:1015D00020818D919C91119701968F739070119637
:1015E0009C938E9330E0C9010895FC018685978510
:1015F000DC01A05CBF4FFC01EE5BFF4F2D913C91E5
:1016000011978081918128173907C1F70895CF93E9
:10161000DF93EC01EE85FF85E05CFF4F2081318197
:10162000E054F0402F5F3F4F2F733070DF01AE5B0F
:10163000BF4F8D919C91119728173907D1F3E05C2A
:10164000FF4F80819181E054F040E80FF91F6083E3
:10165000EE85FF85E05CFF4F31832083EE89FF89B3
:10166000208181E090E00D8C02C0880F991F0A94C0
:10167000E2F7282B208381E090E0DF91CF9108955D
:101680001F931092C2061092C10628EE33E040E08C
:1016900050E02093C3063093C4064093C506509390
:1016A000C60669E874E07093C0066093BF068FE9D0
:1016B00094E09093CC068093CB0683EE94E09093D5
:1016C000CE068093CD0685EC90E09093D006809373
:1016D000CF0684EC90E09093D2068093D10680EC04
:1016E00090E09093D4068093D30681EC90E09093A1
:1016F000D6068093D50686EC90E09093D80680932A
:10170000D70614E01093D906B3E0B093DA06A7E049
:10171000A093DB06F5E0F093DC06E1E0E093DD0664
:101720001092E1061092E0062093E2063093E30661
:101730004093E4065093E5067093DF066093DE065F
:1017400087E295E09093EB068093EA068BE695E0BE
:101750009093ED068093EC068DEC90E09093EF066D
:101760008093EE068CEC90E09093F1068093F00667
:1017700088EC90E09093F3068093F20689EC90E079
:101780009093F5068093F4068EEC90E09093F70624
:101790008093F6061093F806B093F906A093FA0624
:1017A000F093FB06E093FC06109200071092FF06F0
:1017B00020930107309302074093030750930407D7
:1017C0007093FE066093FD068FEA95E090930A07FA
:1017D0008093090783EF95E090930C0780930B07A4
:1017E00085ED90E090930E0780930D0784ED90E0D7
:1017F0009093100780930F0780ED90E0909312076D
:101800008093110781ED90E0909314078093130764
:1018100086ED90E0909316078093150710931707B5
:10182000B0931807A0931907F0931A07E0931B07CA
:1018300010921F0710921E07209320073093210754
:10184000409322075093230770931D0760931C0752
:1018500087E396E090932907809328078BE796E02B
:1018600090932B0780932A0785E391E090932D07AF
:1018700080932C0784E391E090932F0780932E07A9
:1018800080E391E0909331078093300781E391E00A
:10189000909333078093320786E391E09093350766
:1018A0008093340710933607B0933707A093380717
:1018B000F0933907E0933A071F910895CF92DF9292
:1018C000EF92FF920F931F93CF93DF937C016B01F5
:1018D0008A01C0E0D0E00FC0D6016D916D01D70143
:1018E000ED91FC910190F081E02DC7011995C80F91
:1018F000D91F015010400115110571F7CE01DF917C
:10190000CF911F910F91FF90EF90DF90CF900895AE
:10191000DC01ED91FC910190F081E02D1995089585
:10192000EF92FF920F931F938C01DC01ED91FC91DC
:101930000190F081E02D6DE019957C01D801ED91C9
:10194000FC910190F081E02DC8016AE019959C019D
:101950002E0D3F1DC9011F910F91FF90EF9008952B
:10196000CF93DF93DB010D900020E9F71197A61BC1
:10197000B70BEC01E881F9810280F381E02DAD0124
:101980001995DF91CF9108954F925F927F928F9238
:101990009F92AF92BF92CF92DF92EF92FF920F93FE
:1019A0001F93DF93CF93CDB7DEB7A1970FB6F8940F
:1019B000DEBF0FBECDBF2C01742ECB01223008F448
:1019C0002AE019A231E2C32ED12CCC0EDD1E822ECC
:1019D0009924AA24BB24672D752FA50194010E9488
:1019E000E20D79018A01C801B701A50194010E94A5
:1019F000C30D472D461B0894C108D1084A3014F482
:101A0000405D01C0495CF6014083E114F104010529
:101A1000110521F07E2C5F2DC801DDCFC201B6017A
:101A20000E94B00CA1960FB6F894DEBF0FBECDBFDA
:101A3000CF91DF911F910F91FF90EF90DF90CF90AA
:101A4000BF90AF909F908F907F905F904F90089540
:101A5000DC012115310541F4ED91FC910190F081FB
:101A6000E02D642F199508950E94C40C0895EF92FB
:101A7000FF920F931F937C010E94280D8C01C701D8
:101A80000E94900C9C01200F311FC9011F910F91E2
:101A9000FF90EF900895CF92DF92EF92FF920F9315
:101AA0001F93CF93DF93EC016A017B012115310570
:101AB00041F4E881F9810190F081E02D642F1995BE
:101AC0001FC02A303105D1F477FF17C0E881F981B2
:101AD0000190F081E02D6DE219958C014427552786
:101AE000BA014C195D096E097F09CE012AE00E94F6
:101AF000C40C9801280F391F04C02AE00E94C40CAE
:101B00009C01C901DF91CF911F910F91FF90EF9040
:101B1000DF90CF900895CF92DF92EF92FF920F93D4
:101B20001F936C017B019A010027F7FC0095102F91
:101B3000B801A7010E944B0D8C01C6010E94900CB8
:101B4000080F191FC8011F910F91FF90EF90DF90B0
:101B5000CF9008950E94B00C0895EF92FF920F93DA
:101B60001F937C010E94B00C8C01C7010E94900C55
:101B7000080F191FC8011F910F91FF90EF90089552
:101B8000F8940C940A0E629FD001739FF001829F1B
:101B9000E00DF11D649FE00DF11D929FF00D839FFC
:101BA000F00D749FF00D659FF00D9927729FB00D99
:101BB000E11DF91F639FB00DE11DF91FBD01CF01AC
:101BC00011240895A1E21A2EAA1BBB1BFD010DC012
:101BD000AA1FBB1FEE1FFF1FA217B307E407F507DD
:101BE00020F0A21BB30BE40BF50B661F771F881FB9
:101BF000991F1A9469F760957095809590959B014F
:101C0000AC01BD01CF010895EE0FFF1F0590F491C7
:081C1000E02D1994F894FFCFB8
:101C1800496E7075743A20002000596F75722072F1
:101C28006573756C743A20006578706563746174C7
:101C3800696F6E20726573756C743A20004641496D
:101C48004C2121003D3D3D3D3D3D3D3D3D3D3D3D22
:101C58003D3D3D3D3D3D3D3D3D3D3D3D3D3D3D3DAC
:101C68003D3D3D3D3D3D3D3D3D3D3D3D3D3D3D3D9C
:101C78003D00746573745F6C6F6E676D756C6D6F26
:101C880064207465737420636F6D706C6574652E61
:101C980000746573745F6C6F6E67706F776D6F64D7
:101CA800207465737420636F6D706C657465005083
:101CB80061756C3A2000746573745F69735365725B
:101CC80076657220746573742070617373212100C6
:101CD8004641494C206F6E20746573745F69735375
:101CE80065727665722000746573745F69735365F5
:101CF80072766572207465737420636F6D706C659D
:101D08007465003E3E204C697374656E696E672089
:101D1800746F20636C69656E742E2E2E0063507587
:101D2800626C69634B65792072657665697665646E
:101D38003A20003E3E2064617461206578636861E2
:101D48006E67652065737461626C69736865642E7B
:101D5800006D73672073656E743A20007350756266
:101D68006C69634B65792072656365697665643A69
:101D780020003E3E2047656E65726174696E67207B
:101D880070726976617465206B65792E2E2E003E1F
:101D98003E2050726976617465206B6579206765AD
:101DA8006E6572617465642E00746573745F67652F
:101DB8006E507269766174654B65792074657374C9
:101DC80020636F6D706C65746500746573745F670C
:101DD8006574496E70757420746573743A20506C1C
:101DE8006561736520656E74657220612073656E28
:101DF80074656E63653A0053657269616C2E707222
:101E0800696E746C6E207465737420636F6D706C8A
:101E1800657465004A6F616E6E653A200042797498
:101E280065732073656E743A20003E3E2049206138
:101E38006D2061207365727665722E003E3E2053D8
:101E480065727665722069732072656164792074A1
:101E58006F20636F6D6D756E69636174652E003EEA
:101E68003E204920616D206120636C69656E742E87
:101E7800003E3E20436C69656E742069732072656C
:101E880061647920746F20636F6D6D756E6963612D
:101E980074652E000100000000070B5E0C9B0ACC45
:061EA8000AAC0AF50A0075
:00000001FF
