:100000000C9403010C942F010C942F010C942F01DC
:100010000C942F010C942F010C942F010C942F01A0
:100020000C942F010C942F010C942F010C942F0190
:100030000C942F010C942F010C942F010C942F0180
:100040000C942F010C942F010C942F010C942F0170
:100050000C942F010C942F010C942F010C94D006BA
:100060000C942F010C94B9080C9499090C942F014D
:100070000C942F010C942F010C942F010C942F0140
:100080000C942F010C942F010C942F010C942F0130
:100090000C94F1080C94D8090C942F010C942F01A6
:1000A0000C942F010C942F010C942F010C942F0110
:1000B0000C942F010C942F010C942F010C942F0100
:1000C0000C942F010C942F010C942F010C942909EE
:1000D0000C94170A0C942F010C9461090C94560A85
:1000E0000C942F0100002100240027002A002D007D
:1000F0003000330001010000040107010A01000083
:100100002200250028002B002E00310034000201BF
:100110000000050108010B0100002000230026005B
:1001200029002C002F00320000010000030106010D
:10013000090105050505070508080808020202026D
:100140000A0A080804040404010101010101010173
:100150000303030303030303040707070C0C0C0C3E
:100160000C0C0C0C02020202060606060606060627
:100170000B0B0B0B0B0B0B0B0102102020080810B4
:100180002040102040800201020108040201010207
:1001900004081020408080402010080402018004E0
:1001A000020180402010080402010804020101023B
:1001B0000408102040800102040810204080000044
:1001C000090A02080B0C0D070603040100000000D9
:1001D000000000000000000000000000000000001F
:1001E0000000000000000000000011100F000000DF
:1001F00000000000000000000000000000000000FF
:1002000000000000C00B11241FBECFEFD1E2DEBF03
:10021000CDBF00E00CBF14E0A0E0B2E0E8E1FDE1FA
:1002200000E00BBF02C007900D92A43FB107D9F7C1
:1002300017E0A4EFB4E001C01D92A939B107E1F7BE
:1002400012E0C6E0D2E004C02297FE010E94860EB2
:10025000C430D107C9F70E9474050C94400E0C9469
:1002600000002F923F924F925F926F927F928F92F7
:100270009F92AF92BF92CF92DF92EF92FF920F9335
:100280001F933B014C0117012801CA01B901A801C4
:1002900097010E94620EAC01CB01DA015C016D0195
:1002A000EE24FF24870127C0C30181709070892B41
:1002B00079F0EA0CFB1C0C1D1D1DC801B701A20141
:1002C00091010E94620EAC01CB01DA017C018D012B
:1002D000AA0CBB1CCC1CDD1CC601B501A2019101FE
:1002E0000E94620EAC01CB01DA015C016D019694B3
:1002F0008794779467946114710481049104A1F642
:10030000B701C8011F910F91FF90EF90DF90CF9040
:10031000BF90AF909F908F907F906F905F904F9025
:100320003F902F9008952F923F924F925F926F923D
:100330007F928F929F92AF92BF92CF92DF92EF9275
:10034000FF920F931F9339014A012FEF3FEF4FEFB9
:100350005FE70E94620E1B012C01B1E0AB2EB12CB5
:10036000C12CD12C26C060FE10C0C601B501910180
:10037000A201AFEFEA2EAFEFFA2EAFEF0A2FAFE7F1
:100380001A2F0E9431015B016C0196948794779437
:100390006794B101C2019101A201EFEFEE2EEFEFE0
:1003A000FE2EEFEF0E2FEFE71E2F0E9431011B01F3
:1003B0002C016114710481049104A9F6B501C601F0
:1003C0001F910F91FF90EF90DF90CF90BF90AF9073
:1003D0009F908F907F906F905F904F903F902F9065
:1003E00008954F925F926F927F928F929F92AF92F9
:1003F000BF92CF92DF92EF92FF920F931F935AE733
:10040000452E57E0552EC2010E944C0B3C01C20103
:100410000E944C0B7C01C2010E944C0B5C01C2018A
:100420000E944C0B0027F7FC0095102F102F0F2D6A
:10043000FE2CEE24CC24B7FCC094DC2C6501BB243C
:10044000AA24EA28FB280C291D29882477FC8094FB
:10045000982CE628F72808291929AA2797FDA0959E
:10046000BA2FB82FAA2799278827E82AF92A0A2B12
:100470001B2BB701C8011F910F91FF90EF90DF90E8
:10048000CF90BF90AF909F908F907F906F905F9034
:100490004F9008959F92AF92BF92CF92DF92EF92CA
:1004A000FF920F931F93162F072FF82EE92E8DE141
:1004B00097E06FE972E00E942A0E212F302F4F2D16
:1004C0005E2DC901DA015C016D018AE797E00E94A7
:1004D0001B0B892BD1F38AE797E00E944C0B982ED7
:1004E0009A24C601B501807090702FE83CEB40E083
:1004F00050E00E94430E7B018C01B60188279927AA
:100500000E94430E5B016C01FFE0D694C794B79440
:10051000A794FA95D1F7AE0CBF1CC01ED11E7F77F1
:1005200080709070CB0177276627A60EB71EC81E75
:10053000D91ED7FE08C081E090E0A0E0B0E8A80E88
:10054000B91ECA1EDB1E992071F48DE197E00E944E
:10055000100D1F910F91FF90EF90DF90CF90BF9003
:10056000AF909F9008958DE197E0692D0E94080D4E
:100570008AE797E00E941B0B892BD1F3A6CFCF927D
:10058000DF92EF92FF920F931F937B018C012AE77A
:10059000C22E27E0D22EC6016E2D0E94870B552752
:1005A000412F302F2F2DC601622F0E94870B9801FB
:1005B00044275527C601622F0E94870BE12EFF2496
:1005C00000271127C6016E2D0E94870B1F910F91E6
:1005D000FF90EF90DF90CF9008958DE00E94890802
:1005E00020E0019709F421E0822F08958F929F92D5
:1005F000AF92BF92CF92DF92EF92FF921F93CF9371
:10060000DF93182F4A015B010E9418076B017C01E0
:10061000C80CD91CEA1CFB1CC12FD0E08AE797E06C
:100620000E941B0B8C179D0784F4B7FC07C00E9427
:1006300018076C157D058E059F0538F461E070E0A4
:1006400080E090E00E942607E9CF8AE797E00E94C9
:100650001B0B20E08C179D070CF021E0822FDF910F
:10066000CF911F91FF90EF90DF90CF90BF90AF9010
:100670009F908F900895AF92BF92CF92DF92EF92AA
:10068000FF920F931F93CF93DF937B018C0159014E
:100690006A018DE197E063EF72E00E942D0E03C0C6
:1006A000C1E0D0E011C085E048EE53E060E070E0CA
:1006B0000E94F6028823B9F38AE797E00E944C0B68
:1006C0008334910581F7ECCFC130D105E1F40E946C
:1006D000F1017B018C018DE197E06DE073E00E94F8
:1006E0002A0E8DE197E0A701B8012AE030E00E94D0
:1006F000B70D8AE797E061E40E94870BC601B50158
:100700000E94BF0226C0C330D10571F48AE797E08A
:100710000E944C0B813419F4C4E0D0E0D5CF83346F
:1007200099F6C2E0D0E0D0CFC230D105A9F40E9442
:10073000F1017B018C018DE197E06DE073E00E9497
:100740002A0E8DE197E0A701B8012AE030E00E946F
:10075000B70DC3E0D0E0B8CF249709F0A4CF8DE166
:1007600097E063E273E00E942D0EB701C801DF91AC
:10077000CF911F910F91FF90EF90DF90CF90BF909E
:10078000AF900895AF92BF92CF92DF92EF92FF9217
:100790000F931F937B018C0159016A0180E090E067
:1007A0000097F1F48AE797E063E40E94870BC801A1
:1007B000B7010E94BF028DE197E061E473E00E94FF
:1007C0002A0E8DE197E063E40E94080D8DE197E029
:1007D000B801A7012AE030E00E94B70D81E090E067
:1007E0008130910551F585E048EE53E060E070E01E
:1007F0000E94F6028823B1F28AE797E00E944C0B30
:100800008134910579F60E94F1015B016C018DE163
:1008100097E06CE473E00E942A0E8DE197E0A50159
:10082000B6012AE030E00E94B70D8AE797E061E464
:100830000E94870B82E090E0D3CF8230910509F0CF
:10084000AFCFB501C6011F910F91FF90EF90DF90E0
:10085000CF90BF90AF900895EF92FF920F931F93A8
:10086000CF93DF938DE197E062E673E00E942D0E57
:10087000EE24FF248701C0E0D0E080E00E94E10781
:10088000A8019701220F331F441F551F7C01002729
:10089000F7FC0095102F81E090E0A0E0B0E0E822A6
:1008A000F9220A231B23E20EF31E041F151F64E620
:1008B00070E080E090E00E9426072196C032D105CA
:1008C000E1F68DE197E06FE773E00E942D0EB7012E
:1008D000C801DF91CF911F910F91FF90EF90089584
:1008E000FF920F931F93CF93DF93EC01198218822D
:1008F00000E010E08DE197E00E941B0B892BD1F303
:100900008DE197E00E941B0B181619069CF781E0F9
:10091000043F180719F4CC50DE4F0DC08DE197E06D
:100920000E944C0BF82E8DE0F81619F08AE0F816AC
:1009300071F4C00FD11F18828DE197E00E94100D55
:10094000C801DF91CF911F910F91FF9008958DE124
:1009500097E06F2D0E94080DFE01E00FF11FF0825D
:100960000F5F1F4FC7CF2F923F924F925F926F92B0
:100970007F928F929F92AF92BF92CF92DF92EF922F
:10098000FF920F931F93DF93CF9300D000D0CDB78A
:10099000DEB71C014B835C836D837E832DB73EB72E
:1009A0003A8329838DE197E064E074E00E942A0E87
:1009B000C1010E9470043C010196ADB7BEB7A81BEF
:1009C000B90B0FB6F894BEBF0FBEADBF4DB65EB645
:1009D0000894411C511C2B813C814D815E81C901D1
:1009E000DA015C016D01882499243EC0D201A80D72
:1009F000B91DF101E80DF91D80818A258C93C6018E
:100A0000B501807090702FE83CEB40E050E00E9410
:100A1000430E7B018C01B601882799270E94430E63
:100A20005B016C01FFE0D694C794B794A794FA9544
:100A3000D1F7AE0CBF1CC01ED11E7F7780709070A6
:100A4000CB0177276627A60EB71EC81ED91ED7FE74
:100A500008C081E090E0A0E0B0E8A80EB91ECA1E70
:100A6000DB1E0894811C911C681479040CF0BECF25
:100A7000A3014F5F5F4F8AE797E0B2010E94DE0C4F
:100A80008C018DE197E06DE074E00E942A0E8DE10B
:100A900097E0B8014AE050E00E940B0E94EF69160F
:100AA00091E0790609F47ECFA981BA810FB6F89456
:100AB000BEBF0FBEADBF26960FB6F894DEBF0FBE09
:100AC000CDBFCF91DF911F910F91FF90EF90DF90FD
:100AD000CF90BF90AF909F908F907F906F905F90DE
:100AE0004F903F902F900895AF92BF92CF92DF9298
:100AF000EF92FF920F931F93DF93CF93CDB7DEB7A3
:100B0000C55FD1400FB6F894DEBF0FBECDBF0E94C7
:100B10007F078DE197E040E855E260E070E00E94D9
:100B2000950A8AE797E040E855E260E070E00E94AD
:100B3000950A0E942C045B016C018DE197E06AE14B
:100B400074E00E942A0E8DE197E0B601A5012AE02B
:100B500030E00E94B70D0E94ED02882309F4A3C083
:100B60008DE197E068E274E00E942D0E8DE197E040
:100B70006AE374E00E942D0E8DE197E047EA51E4AC
:100B800060E070E02AE030E00E94B70D8DE197E070
:100B9000B601A5012AE030E00E94B70D8DE197E093
:100BA0004FEF5FEF6FEF7FE72AE030E00E94B70D75
:100BB00067EA71E480E090E0A6019501EFEFEE2E88
:100BC000EFEFFE2EEFEF0E2FEFE71E2F0E949301A7
:100BD0007B018C018DE197E064E574E00E942A0EB0
:100BE0008DE197E0B801A7012AE030E00E94B70D3F
:100BF00060E070E080E090E0A80197010E943B0374
:100C00007B018C018DE197E061E674E00E942A0E81
:100C10008DE197E0B801A7012AE030E00E94B70D0E
:100C20008DE197E06EE674E00E942D0E8DE197E075
:100C3000B801A7012AE030E00E94B70D8DE197E0EE
:100C4000B601A5012AE030E00E94B70D8DE197E0E2
:100C50004FEF5FEF6FEF7FE72AE030E00E94B70DC4
:100C6000C801B701A60195010FEFE02E0FEFF02E9E
:100C70000FEF002F0FE7102F0E9493017B018C01D3
:100C80008DE197E069E774E00E942A0E8DE197E01C
:100C9000B801A7012AE030E00E94B70D8DE197E08E
:100CA0006BE874E060C08DE197E06EEA74E00E944A
:100CB0002D0E67EA71E480E090E0A60195011FEF38
:100CC000E12E1FEFF12E1FEF012F1FE7112F0E94C2
:100CD00093017B018C018DE197E061E674E00E9455
:100CE0002A0E8DE197E0B801A7012AE030E00E94CA
:100CF000B70DC801B70120E030E040E050E00E94AD
:100D0000C2037B018C018DE197E064E574E00E94F1
:100D10002A0E8DE197E0B801A7012AE030E00E9499
:100D2000B70DC801B701A6019501BFEFEB2EBFEFCC
:100D3000FB2EBFEF0B2FBFE71B2F0E9493017B0100
:100D40008C018DE197E069E774E00E942A0E8DE145
:100D500097E0B801A7012AE030E00E94B70D8DE1CD
:100D600097E060EC74E00E942D0E6E010894C11CA7
:100D7000D11C8AE797E00E941B0B892B29F0C80140
:100D8000B7010E944A02F5CF8DE197E00E941B0B4C
:100D9000892B79F3C601B801A7010E94B304E9CFFA
:100DA0001F920F920FB60F9211242F933F938F93A0
:100DB0009F93AF93BF938091F8049091F904A09111
:100DC000FA04B091FB043091FC040196A11DB11D01
:100DD000232F2D5F2D3720F02D570196A11DB11D1A
:100DE0002093FC048093F8049093F904A093FA04F0
:100DF000B093FB048091F4049091F504A091F60463
:100E0000B091F7040196A11DB11D8093F404909355
:100E1000F504A093F604B093F704BF91AF919F91AE
:100E20008F913F912F910F900FBE0F901F901895AB
:100E30008FB7F8942091F8043091F9044091FA04A6
:100E40005091FB048FBFB901CA0108959B01AC0109
:100E50007FB7F8948091F4049091F504A091F60482
:100E6000B091F70466B5A89B05C06F3F19F00196D5
:100E7000A11DB11D7FBFBA2FA92F982F8827860FDC
:100E8000911DA11DB11D62E0880F991FAA1FBB1FF4
:100E90006A95D1F7BC012DC0FFB7F8948091F40496
:100EA0009091F504A091F604B091F704E6B5A89BE3
:100EB00005C0EF3F19F00196A11DB11DFFBFBA2F6C
:100EC000A92F982F88278E0F911DA11DB11DE2E03B
:100ED000880F991FAA1FBB1FEA95D1F7861B970B96
:100EE000885E9340C8F221503040404050406851E5
:100EF0007C4F211531054105510571F6089578940F
:100F000084B5826084BD84B5816084BD85B582600E
:100F100085BD85B5816085BDEEE6F0E080818160AC
:100F20008083E1E8F0E010828081826080838081AC
:100F300081608083E0E8F0E0808181608083E1EB84
:100F4000F0E0808184608083E0EBF0E0808181606C
:100F50008083E1E9F0E0808182608083808181602C
:100F60008083E0E9F0E0808181608083E1EAF0E065
:100F7000808182608083808181608083E0EAF0E00C
:100F8000808181608083E1E2F1E080818260808302
:100F9000808181608083E0E2F1E0808181608083F4
:100FA000EAE7F0E0808184608083808182608083D2
:100FB0008081816080838081806880831092C100FD
:100FC0000895382F863308F0365320917B00832F05
:100FD00086958695869590E08170907043E0880FA5
:100FE000991F4A95E1F7277F282B20937B003770C4
:100FF0008091E3048295880F880F807C832B8093F7
:101000007C0080917A00806480937A0080917A00DD
:1010100086FDFCCF2091780040917900942F80E0EC
:1010200030E0282B392BC9010895893009F449C0D3
:101030008A30A0F4843051F1853040F4823079F167
:10104000833000F5813009F063C026C0873079F124
:10105000883098F5863009F05BC025C08D3009F4E2
:1010600042C08E3028F48B30B1F18C30C0F52DC0E9
:10107000803109F442C0813109F445C08F3009F054
:1010800047C037C0809180008F7703C08091800077
:101090008F7D80938000089584B58F7702C084B5DA
:1010A0008F7D84BD08958091B0008F7703C08091BB
:1010B000B0008F7D8093B0000895809190008F776D
:1010C00007C0809190008F7D03C080919000877F42
:1010D0008093900008958091A0008F7707C0809141
:1010E000A0008F7D03C08091A000877F8093A00027
:1010F0000895809120018F7703C0809120018F7D1A
:1011000080932001089580912001877F80932001A2
:1011100008950F931F93482F50E0CA0182549E4FA9
:10112000FC012491CA0188589E4FFC0104914E5C39
:101130005E4FFA011491112319F420E030E015C03C
:10114000222319F0822F0E941508812F90E0880F2A
:10115000991F885E9E4FFC01A591B4918C9120E06F
:1011600030E0802311F021E030E0C9011F910F91A0
:1011700008951F920F920FB60F920BB60F92112483
:101180002F933F934F938F939F93EF93FF934091B0
:10119000C60020913D0530913E052F5F3F4F2F73D4
:1011A000307080913F05909140052817390759F01C
:1011B000E0913D05F0913E05E350FB4F40833093B5
:1011C0003E0520933D05FF91EF919F918F914F91A7
:1011D0003F912F910F900BBE0F900FBE0F901F905D
:1011E00018951F920F920FB60F920BB60F92112403
:1011F0002F933F934F938F939F93EF93FF93409140
:10120000CE002091C5053091C6052F5F3F4F2F734B
:1012100030708091C7059091C8052817390759F09B
:10122000E091C505F091C605EB57FA4F4083309326
:10123000C6052093C505FF91EF919F918F914F9126
:101240003F912F910F900BBE0F900FBE0F901F90EC
:1012500018951F920F920FB60F920BB60F92112492
:101260002F933F934F938F939F93EF93FF934091CF
:10127000D60020914D0630914E062F5F3F4F2F73C1
:10128000307080914F06909150062817390759F019
:10129000E0914D06F0914E06E35FF94F40833093A5
:1012A0004E0620934D06FF91EF919F918F914F91A4
:1012B0003F912F910F900BBE0F900FBE0F901F907C
:1012C00018951F920F920FB60F920BB60F92112422
:1012D0002F933F934F938F939F93EF93FF9340915F
:1012E00036012091D5063091D6062F5F3F4F2F73E0
:1012F00030708091D7069091D8062817390759F099
:10130000E091D506F091D606EB56F94F4083309325
:10131000D6062093D506FF91EF919F918F914F9123
:101320003F912F910F900BBE0F900FBE0F901F900B
:1013300018951F920F920FB60F920BB60F921124B1
:101340002F933F938F939F93EF93FF93209181056A
:101350003091820580918305909184052817390783
:1013600031F48091C1008F7D8093C10014C0E09161
:101370008305F0918405EF5BFA4F2081809183050E
:101380009091840501968F7390709093840580935B
:1013900083052093C600FF91EF919F918F913F911C
:1013A0002F910F900BBE0F900FBE0F901F901895AE
:1013B0001F920F920FB60F920BB60F9211242F931C
:1013C0003F938F939F93EF93FF9320910906309162
:1013D0000A0680910B0690910C062817390731F404
:1013E0008091C9008F7D8093C90014C0E0910B06E5
:1013F000F0910C06E753FA4F208180910B069091F3
:101400000C0601968F73907090930C0680930B06D8
:101410002093CE00FF91EF919F918F913F912F915B
:101420000F900BBE0F900FBE0F901F9018951F923C
:101430000F920FB60F920BB60F9211242F933F937A
:101440008F939F93EF93FF93209191063091920693
:1014500080919306909194062817390731F4809172
:10146000D1008F7D8093D10014C0E0919306F0915C
:101470009406EF5AF94F208180919306909194063B
:1014800001968F73907090939406809393062093A7
:10149000D600FF91EF919F918F913F912F910F90E7
:1014A0000BBE0F900FBE0F901F9018951F920F92BA
:1014B0000FB60F920BB60F9211242F933F938F9379
:1014C0009F93EF93FF932091190730911A07809112
:1014D0001B0790911C072817390731F480913101BF
:1014E0008F7D8093310114C0E0911B07F0911C07A0
:1014F000E752F94F208180911B0790911C070196BC
:101500008F73907090931C0780931B072093360174
:10151000FF91EF919F918F913F912F910F900BBE73
:101520000F900FBE0F901F901895AF92BF92DF9251
:10153000EF92FF920F931F93CF93DF93EC017A0109
:101540008B01DD24403081EE580780E0680780E0A1
:10155000780711F0DD24D39491E0A92EB12CEC8909
:10156000FD89DD2069F0C5010E8C02C0880F991F2E
:101570000A94E2F7808360E079E08DE390E005C0B3
:10158000108260E874E88EE190E0A80197010E9463
:10159000620E215030404040504056954795379557
:1015A000279580E12030380720F0DD2011F0DD2480
:1015B000D6CFE889F9893083EA89FB892083EE89CF
:1015C000FF89408121E030E0C9010A8C02C0880F08
:1015D000991F0A94E2F7482B4083EE89FF894081E6
:1015E000C9010B8C02C0880F991F0A94E2F7482B9F
:1015F0004083EE89FF894081C9010C8C02C0880FAD
:10160000991F0A94E2F7482B4083EE89FF89808175
:101610000D8C02C0220F331F0A94E2F72095282375
:101620002083DF91CF911F910F91FF90EF90DF907A
:10163000BF90AF900895DC011C96ED91FC911D9731
:10164000E05CFF4F2191319180819181281B390B02
:101650002F733070C9010895DC011C96ED91FC9147
:101660001D97E05CFF4F20813181E054F040DF01A5
:10167000AE5BBF4F8D919C9111972817390719F4D4
:101680002FEF3FEF07C08D919C91E80FF91F8081EC
:10169000282F30E0C9010895DC011C96ED91FC91E2
:1016A0001D97E05CFF4F20813181E054F040DF0165
:1016B000AE5BBF4F8D919C9111972817390719F494
:1016C0002FEF3FEF10C08D919C911197E80FF91FFC
:1016D00020818D919C91119701968F739070119636
:1016E0009C938E9330E0C9010895FC01868597850F
:1016F000DC01A05CBF4FFC01EE5BFF4F2D913C91E4
:1017000011978081918128173907C1F70895CF93E8
:10171000DF93EC01EE85FF85E05CFF4F2081318196
:10172000E054F0402F5F3F4F2F733070DF01AE5B0E
:10173000BF4F8D919C91119728173907D1F3E05C29
:10174000FF4F80819181E054F040E80FF91F6083E2
:10175000EE85FF85E05CFF4F31832083EE89FF89B2
:10176000208181E090E00D8C02C0880F991F0A94BF
:10177000E2F7282B208381E090E0DF91CF9108955C
:101780001F931092200710921F0728EE33E040E0CD
:1017900050E0209321073093220740932307509372
:1017A000240768EE74E070931E0760931D078DEFA9
:1017B00094E090932A078093290781E495E0909321
:1017C0002C0780932B0785EC90E090932E07809355
:1017D0002D0784EC90E09093300780932F0780ECE6
:1017E00090E0909332078093310781EC90E09093E2
:1017F00034078093330786EC90E09093360780930C
:10180000350714E010933707B3E0B0933807A7E02B
:10181000A0933907F5E0F0933A07E1E0E0933B0746
:1018200010923F0710923E072093400730934107E4
:10183000409342075093430770933D0760933C07E2
:1018400085E895E0909349078093480789EC95E0F7
:1018500090934B0780934A078DEC90E090934D074F
:1018600080934C078CEC90E090934F0780934E0749
:1018700088EC90E0909351078093500789EC90E0BA
:1018800090935307809352078EEC90E09093550706
:101890008093540710935607B0935707A0935807A7
:1018A000F0935907E0935A0710925E0710925D0774
:1018B00020935F073093600740936107509362075E
:1018C00070935C0760935B078DE096E090936807E8
:1018D0008093670781E596E090936A078093690794
:1018E00085ED90E090936C0780936B0784ED90E01A
:1018F00090936E0780936D0780ED90E09093700752
:1019000080936F0781ED90E0909372078093710749
:1019100086ED90E09093740780937307109375079A
:10192000B0937607A0937707F0937807E093790751
:1019300010927D0710927C0720937E0730937F07DB
:10194000409380075093810770937B0760937A07D9
:1019500085E996E0909387078093860789ED96E066
:10196000909389078093880785E391E090938B0794
:1019700080938A0784E391E090938D0780938C078E
:1019800080E391E090938F0780938E0781E391E04D
:10199000909391078093900786E391E0909393074B
:1019A0008093920710939407B0939507A09396079E
:1019B000F0939707E09398071F910895CF92DF92D5
:1019C000EF92FF920F931F93CF93DF937C016B01F4
:1019D0008A01C0E0D0E00FC0D6016D916D01D70142
:1019E000ED91FC910190F081E02DC7011995C80F90
:1019F000D91F015010400115110571F7CE01DF917B
:101A0000CF911F910F91FF90EF90DF90CF900895AD
:101A1000DC01ED91FC910190F081E02D1995089584
:101A2000EF92FF920F931F938C01DC01ED91FC91DB
:101A30000190F081E02D6DE019957C01D801ED91C8
:101A4000FC910190F081E02DC8016AE019959C019C
:101A50002E0D3F1DC9011F910F91FF90EF9008952A
:101A6000CF93DF93DB010D900020E9F71197A61BC0
:101A7000B70BEC01E881F9810280F381E02DAD0123
:101A80001995DF91CF9108954F925F927F928F9237
:101A90009F92AF92BF92CF92DF92EF92FF920F93FD
:101AA0001F93DF93CF93CDB7DEB7A1970FB6F8940E
:101AB000DEBF0FBECDBF2C01742ECB01223008F447
:101AC0002AE019A231E2C32ED12CCC0EDD1E822ECB
:101AD0009924AA24BB24672D752FA50194010E9487
:101AE000620E79018A01C801B701A50194010E9423
:101AF000430E472D461B0894C108D1084A3014F400
:101B0000405D01C0495CF6014083E114F104010528
:101B1000110521F07E2C5F2DC801DDCFC201B60179
:101B20000E94300DA1960FB6F894DEBF0FBECDBF58
:101B3000CF91DF911F910F91FF90EF90DF90CF90A9
:101B4000BF90AF909F908F907F905F904F9008953F
:101B5000DC012115310541F4ED91FC910190F081FA
:101B6000E02D642F199508950E94440D0895EF9279
:101B7000FF920F931F937C010E94A80D8C01C70157
:101B80000E94100D9C01200F311FC9011F910F9160
:101B9000FF90EF900895CF92DF92EF92FF920F9314
:101BA0001F93CF93DF93EC016A017B01211531056F
:101BB00041F4E881F9810190F081E02D642F1995BD
:101BC0001FC02A303105D1F477FF17C0E881F981B1
:101BD0000190F081E02D6DE219958C014427552785
:101BE000BA014C195D096E097F09CE012AE00E94F5
:101BF000440D9801280F391F04C02AE00E94440DAB
:101C00009C01C901DF91CF911F910F91FF90EF903F
:101C1000DF90CF900895CF92DF92EF92FF920F93D3
:101C20001F936C017B019A010027F7FC0095102F90
:101C3000B801A7010E94CB0D8C01C6010E94100DB6
:101C4000080F191FC8011F910F91FF90EF90DF90AF
:101C5000CF9008950E94300D0895EF92FF920F9358
:101C60001F937C010E94300D8C01C7010E94100D52
:101C7000080F191FC8011F910F91FF90EF90089551
:101C8000F8940C948A0E629FD001739FF001829F9A
:101C9000E00DF11D649FE00DF11D929FF00D839FFB
:101CA000F00D749FF00D659FF00D9927729FB00D98
:101CB000E11DF91F639FB00DE11DF91FBD01CF01AB
:101CC00011240895A1E21A2EAA1BBB1BFD010DC011
:101CD000AA1FBB1FEE1FFF1FA217B307E407F507DC
:101CE00020F0A21BB30BE40BF50B661F771F881FB8
:101CF000991F1A9469F760957095809590959B014E
:101D0000AC01BD01CF010895EE0FFF1F0590F491C6
:081D1000E02D1994F894FFCFB7
:101D1800496E7075743A20002000596F75722072F0
:101D28006573756C743A20006578706563746174C6
:101D3800696F6E20726573756C743A20004641496C
:101D48004C2121003D3D3D3D3D3D3D3D3D3D3D3D21
:101D58003D3D3D3D3D3D3D3D3D3D3D3D3D3D3D3DAB
:101D68003D3D3D3D3D3D3D3D3D3D3D3D3D3D3D3D9B
:101D78003D00746573745F6C6F6E676D756C6D6F25
:101D880064207465737420636F6D706C6574652E60
:101D980000746573745F6C6F6E67706F776D6F64D6
:101DA800207465737420636F6D706C657465005082
:101DB80061756C3A2000746573745F69735365725A
:101DC80076657220746573742070617373212100C5
:101DD8004641494C206F6E20746573745F69735374
:101DE80065727665722000746573745F69735365F4
:101DF80072766572207465737420636F6D706C659C
:101E08007465003E3E204C697374656E696E672088
:101E1800746F20636C69656E742E2E2E0063507586
:101E2800626C69634B65792072657665697665646D
:101E38003A20003E3E2064617461206578636861E1
:101E48006E67652065737461626C69736865642E7A
:101E5800006D73672073656E743A20007350756265
:101E68006C69634B65792072656365697665643A68
:101E780020003E3E2047656E65726174696E67207A
:101E880070726976617465206B65792E2E2E003E1E
:101E98003E2050726976617465206B6579206765AC
:101EA8006E6572617465642E00746573745F67652E
:101EB8006E507269766174654B65792074657374C8
:101EC80020636F6D706C65746500746573745F670B
:101ED8006574496E70757420746573743A20506C1B
:101EE8006561736520656E74657220612073656E27
:101EF80074656E63653A0053657269616C2E707221
:101F0800696E746C6E207465737420636F6D706C89
:101F1800657465004A6F616E6E653A200042797497
:101F280065732073656E743A200050726976617427
:101F380065206B65793A20003E3E204920616D207E
:101F480061207365727665722E00617267756D65C2
:101F58006E747320666F72206C6F6E67706F776D2A
:101F68006F643A00735075626C69634B65793A2007
:101F780000635075626C69634B65793A2000617241
:101F880067756D656E74733A007365637265744B3B
:101F98006579536F757263653A20003E3E2053653C
:101FA8007276657220697320726561647920746F36
:101FB80020636F6D6D756E69636174652E003E3EBA
:101FC800204920616D206120636C69656E742E0064
:101FD8003E3E20436C69656E7420697320726561AA
:101FE800647920746F20636F6D6D756E69636174B9
:101FF800652E000100000000870BDE0C1B0B4C0B4C
:042008002C0B750B1D
:00000001FF
